:020000042000DA
:1000000000980020A9040020B1040020C9040020A9
:1000100000000000000000000000000000000000E0
:10002000000000000000000000000000E1040020CB
:100030000000000000000000F9040020FB04002084
:10004000E91C0020053103000D31030015310300C8
:100050009D1D00208D310300E71D0020EF1D0020B5
:10006000FD040020FD040020071E0020AD31030028
:1000700057810200FD0400204B1B02004B1B0200B5
:100080004B1B02004B1B02004B1B02004B1B0200D0
:100090004B1B02004B1B0200FD0400204B1B020007
:020000042000DA
:100160003F00000085060020251000200D23002000
:10017000000000000000000063800200BD8002005B
:10018000750E0020FB8002001981020035810200FB
:100190005D8102006F1D00206B060020250E0020EF
:1001A0003D0E002000000000000000003F000000A5
:1001B000F48B002000040000740B080048010000CC
:1001C0006807080000040000C80C080020050000B3
:1001D000000000002000000048000000580000005F
:1001E0006800000004010000160100002801000062
:1001F0002E010000202A00008E2E000001000000C9
:1002000088130000AF100020E9600200FD93020097
:10021000AF12002019280300A5740200FD18002069
:1002200003000000D5200200192300200400000074
:10023000D74902000F490200831D020063910200AA
:10024000B7910200BF910200078202007182020092
:10025000242C0020AD83020093840200418502001B
:1002600015860200378602005F860200758602004E
:10027000F9870200258902005D8A0200D38C020002
:10028000098D02000F900200438D0200278E0200AC
:10029000F98E0200478F0200998F0200D58F02006D
:1002A00049510200775102002F5202001000000055
:1002B00020030000803E000000000000000000005D
:020000042000DA
:1002C000504600030003983A6400F401B80B000C98
:1002D000B80B120030003000CD009A01120024004B
:1002E00030006400B0001800280012001200D0078F
:1002F0000000FFFF00000000000000000000000000
:100300001F000002444131343538302D30310000B7
:1003100000000000000000000000000000000000DD
:0403200000000000D9
:020000042000DA
:10034000FFFF010000C201000000000000000000EB
:100350000000F4010100011B07031AFFD20002157F
:10036000585CDE931B0142CC9A1325009BEDC65EC0
:1003700000000000C5000000000009FF00605257A7
:100380002D424C450000000000000000000000006D
:10039000000000000000000000006A65740000001A
:1003A000000000000000000000000000000000004D
:1003B000000000000000000000000000000000003D
:1003C000000000000000000000000000000000002D
:1003D0000000000000000000010000CAEA80D00711
:0403E00006D06432AD
:020000042000DA
:100440000348854602F09AF800480047C72002009A
:100450000098002010B5114988683E2290432E3044
:1004600088600F4906200880FF200E49013008608F
:100470000021052000070180028A0F231B021A4376
:1004800002820122D204032308461B038418216040
:10049000001D9842FADB62B610BD00000033005028
:1004A0000034005080E100E01548804715480047BF
:1004B00004207146084203D0EFF30980124908472F
:1004C000EFF308801049084704207146084203D022
:1004D000EFF309800D490847EFF308800B490847FF
:1004E00004207146084203D0EFF309800849084709
:1004F000EFF3088006490847FEE7FEE7FEE7000045
:1005000055040020410400207D0A0020150500202C
:10051000F305002005221207518A802319435182D6
:10052000114903680B6043684B6083688B60C36844
:10053000CB6003690B6143694B6183698B61C0695F
:10054000C8610A48836A0B62C36A4B62036B8B62A1
:10055000C36BCB62436B0B63806B4863908A8006EE
:1005600001D500BE7047FEE70018080000ED00E06E
:1005700070B505460C46103C3F2002F011F80028EB
:100580000FD0DE488068322806D9DD498D4201D07F
:100590003C2801D9002070BD2146D84802F006F859
:1005A00006E0204602F008F801213F2002F00AF898
:1005B000012070BD10B5D3490B780A1D002005E05D
:1005C000C400145D3F2C04D0401CC0B29842F7D345
:1005D00010BDC000CC4A4018826010BD0289088955
:1005E000CA49101A80B2884201D901207047002000
:1005F000704781692039897F082904D2C44A89005B
:10060000515881617047FEE7C348C2490161C3493F
:100610004161C3498161C349C161C3490162C349A1
:100620004162C3498162C349C162C3490163C3498D
:100630004163C3498163C349C163C149B6485C3161
:1006400040300160C0494160C0498160C049C1601B
:100650000120C049C0060860BF49CA691202120AD7
:10066000CA61BC4980390860704710B5BB49002099
:10067000086000F089FB01208007016B49004908F0
:10068000016310BD08B5B64801240470B5480825BB
:10069000058001F09DFF02F04FFA00F0A2FAB24887
:1006A00001780170B14801780170012001F096FFD6
:1006B00027020D203946800101F096FF01F030FA43
:1006C00000F01AFC00F0B0FAA94E30894009400150
:1006D000308130890F21890288437114401830819C
:1006E000A44870822620B0820720F082A24830837E
:1006F000748370881E21884314307080042000F0B9
:10070000F5F8072000F0F2F80A2000F0EFF80620D4
:1007100000F0ECF80B2000F0E9F8012000F0E6F81A
:10072000022000F0E3F8002000F0E0F893480068B1
:1007300001F060FFFFF73EFFA00701683943016049
:1007400000F039F98E4F3868AA2805D1142000F03E
:10075000D9FA142000F0E4FAFFF787FFA22005245D
:100760002407E0827088E0218843A03070808548AB
:10077000006B007800280BD0002001F041FF01F051
:1007800045FF022806D001F041FF012802D00AE00F
:100790000120F2E773480580A08A800603D5608AAD
:1007A00080210843608204272089000621D501208A
:1007B0008007006B00041CD401F02EFFC00718D185
:1007C000042001F02FFF054601F032FF002D10D06C
:1007D000002000906A480068AA2802D1142000F086
:1007E0009FFA0421684601F029FF002801D000F09B
:1007F000E0FA72B662480068AA2801D100F0C4FA93
:1008000001F0B6F90546042806D0022D0BD0032DC1
:1008100009D0012863D067E05B480078012801D047
:10082000032500E00225208A3843208255484038BD
:10083000C069012810D9032D19D101F005FF002846
:1008400015D001F007FF002811D0032001F008FFA8
:1008500000280CD0022007E0032D08D1032001F06E
:10086000FFFE002803D001204849087000E002255F
:100870003948016939430161618A202291436182CB
:10088000218A022211432182618A022D20D039431C
:1008900061827F212288890180252A4322800022CB
:1008A000521CD2B20A2AFBD3628A10231A436282F4
:1008B000374A491E51612188A94321807188FF224E
:1008C00001329143718030BF0169B94301610BE08E
:1008D00039436182618A102291436182EEE700F020
:1008E000B9FA002800D030BF62B65DE7C106C90E74
:1008F00001208840274908607047000080040800F4
:100900001034000004060800B42E002030750000EA
:10091000042C0020942703000084004062B600DF0E
:1009200028A30200704701DF1CCA0200F8BD02DFE5
:1009300040CB0200F5E703DF84D4020004DF89B076
:10094000BC330200F8BD05DFF8BD06DFEC0C030088
:1009500070BD07DF80E100E000ED00E08C030800DF
:10096000008000200033005000000800202A08000A
:10097000200000504E020000777700000490002015
:100980000C8000202002002054020800C406080049
:100990000080004080E200E07047000033480178AA
:1009A000002902D080214170704731490020087031
:1009B0003049C87070472D480178002902D0812144
:1009C000417070472A49012008702A49C870704751
:1009D00026480178002902D08221417070472449BD
:1009E0000220087023490120C87070471F48817891
:1009F000002904D0491E0906090E817017D14278DA
:100A00000021002A04D09207920F0270417004E086
:100A10000278002A01D0521E02701206120E0170D6
:100A200005D0012A02D0022A01D1D1E7C3E77047DD
:100A300010B50E4CA078401CA0702078002805D17D
:100A400001F0E4FD421CFFF7A9FF227010BD074929
:100A50000120C870704705490020C87070470348DE
:100A6000C07870470448007870470000018000207B
:100A700054020800C6060800228000200522120742
:100A8000118A042319431182118A02231943118206
:100A90001189402319431181174B01211960174B0C
:100AA00008211980518A802319435182144903680F
:100AB0000B6143684B6183688B61C368CB610369D9
:100AC0000B6243694B6283698B62C069C8620D48DF
:100AD000836A0B63C36A4B63036B8B63C36BCB6328
:100AE000436B074940310B60806B4860908A8006F9
:100AF00001D500BE7047FEE780E200E00033005001
:100B00004018080000ED00E070B54348002201697C
:100B1000D243002901D0114600E00121CB170C0F70
:100B20001B0123430C0101613C490D684E682C43B5
:100B300033430C604B604369002B01D0144600E046
:100B40000124E317E50E5B012B4344610D6864014A
:100B50004E682C4333430C604B60C368002B01D0BC
:100B6000144600E00124E317650FDB002B43C4604B
:100B70000D68E4004E682C4333430C604B6083687F
:100B8000002B00D101228260D017930F8000184300
:100B90000C6892004B68224318430A60486070BD9D
:100BA00038B5002403252D0202232A4604212046BD
:100BB000009401F02FFF002201230521104600942C
:100BC00001F028FF14232A4603210020009401F09D
:100BD00021FF0022132302211046009401F01AFF86
:100BE00038BD10B505242407208A022188432082BD
:100BF000A08A0007FCD5A08880210843A08003219B
:100C0000092001F033FDFFF7FFFCFFF7C9FF608A01
:100C100020210843608210BD2890002020900020F1
:100C2000A34900204860704770B50521090708896D
:100C30003022904308810889802210430881088966
:100C400080088000401C0881088908231843088117
:100C500098480488144304804C8A9C434C820D8934
:100C6000402425430D810D8A0426B5430D828D8ACB
:100C7000AD07FCD58E4E00257560058801263543ED
:100C800005804589AE058C4D068801D52E4300E0D0
:100C9000AE43068005887826B5432835058005884B
:100CA0000626354305804D8A1D434D8203889343B4
:100CB00003800A89A2430A814089800503D57D49C2
:100CC00005206031888001208007016882159143EA
:100CD00001607A4801683F22520291434214891808
:100CE0000160016802031143016070BD0321744873
:100CF00009028181082242800021491C9629FCD3E7
:100D0000828070476F49488008880322104308801A
:100D10000888042210430880654901200870704744
:100D20007CB5634C217800292DD066490A8852078A
:100D3000FCD4CA880092898801911104019A89180B
:100D4000009161494843009901F096FC0090002011
:100D500020700098A060009801F083FB05462946AA
:100D60005A4801F034FB0A2101F06FFB01F080FBCF
:100D7000E060284601F090FB554A564B01F082FC9A
:100D800001F09EFB20617CBD10B549484168AA294D
:100D90000CD07C205049081884B25049204601F0FC
:100DA0006BFC081980B201F073FC10BDC068000A2A
:100DB000F0E710B54A490120C863C86B0028FCD190
:100DC00001208007C16947480268914201D2002290
:100DD000026019238A1ADB019A4212D3016001F0E2
:100DE0005DFC414A1188884201D9411A00E0091A84
:100DF00089B2182905D31080012001F055FC01F0BB
:100E000059FC10BD08B52A4989684843374901F0A3
:100E100033FC009008BD08B52549C9684843800ADD
:100E2000009008BD08B522494968002903D0FFF7A2
:100E3000E9FF009008BD01F043FCFAE708B51C4942
:100E40004968002903D0FFF7E6FF009008BD01F0D4
:100E50003DFCFAE710B53F2001F0A2FB002805D1C8
:100E600023488078002803D0032801D0002010BD3B
:100E7000012010BD08B51F4901204A695206D20F52
:100E800013D04A699206D20F0FD000220A61009255
:100E9000FF225F32009B5B1C00939342FAD34969A7
:100EA000C907C90F02D001F017FC002008BD0000DF
:100EB00008800020200000500010000000020040C8
:100EC00020300050001600500024F4000024744923
:100ED0007B14AE47E17A443F01120000710200002A
:100EE000C00000407C0408007804080040420F0065
:100EF000A00408000010005030B59C4A9C49D00561
:100F0000048880231C4304809A4C65892D0701D4F2
:100F1000521EFAD2984C01222260984C0A882280F4
:100F2000974A4988118001889943018030BD00208B
:100F3000704770477047704700207047012189074C
:100F4000086B0722104308637047704710B58E493D
:100F50008C4808608D494C2008808C4B8C4A203B83
:100F60001A828D498B4848808D488C4901808B4975
:100F700019314180222141818121890001828949E1
:100F800041828949018387491131418384498748D6
:100F90002031888041218648090181808549C180AE
:100FA000844C1034C48101824182891C8182611F7A
:100FB000C182FF21463101837F4941837F49592006
:100FC00008807E487E4C20300480432444807D4C41
:100FD0004C82D5218180FF21D33101817A49418121
:100FE0007A4981817B497A48088068487A49603823
:100FF0004180C18810242143C18071490A3901818F
:10100000624C7649403C61805A82082141815C48AB
:101010006A49008840390882584871490088088028
:1010200010BD704700B58BB06E4A42626E4A826254
:101030006E4A42616E4AC2626E4A02606E4A026243
:101040006E4A42606E4AC2614F4A4E4800211060AB
:101050004D484038026B03129A430263426B1F23D0
:101060001B049A4303231B04D21842636548026899
:10107000C3129A430260026803139A4302606846EF
:101080004154491CC9B22829FAD3014628225E4896
:1010900001F028FBFFF75AFF01F000FB5B490880D5
:1010A000002001F001FB01F005FB0BB000BD10B505
:1010B000354A0F2133480902106033484038426BEB
:1010C0001F231B049A4303231B04D2184263000608
:1010D0000268D208D2000260052000070289920847
:1010E0009200521C0281028908231A430281028A5B
:1010F0000A4302821F480189490949010181018986
:101100000F2292029143421489180181294920310A
:101110004182262181820721C1822D49DC39018348
:101120000121418341881E22914314314180384975
:101130000968002907D14189890504D501887822E9
:10114000914308310180FFF701FF3248006B0078BE
:10115000002808D0304800880C496039C880002039
:1011600001F04EFA10BD0120FAE70000A086010050
:10117000087F040020000050008000405602080054
:101180004A0308004C05540780000040602C0050C2
:101190007F7F0000AC2900000022005009090000F8
:1011A000002400502204000030D00000EE110000A6
:1011B000002500502E02000044200000402800506E
:1011C0000D95000002420000E4DC000010920000D7
:1011D00053780000002A00508B1000009DD50000BD
:1011E000002600502F0F0020330F0020390F002061
:1011F0003D0F0020350F00204B0F0020370F00203F
:10120000231000200002004020000800780408009D
:101210000C800020200200205204080070B5EFF37B
:101220001085012080F31088264801F061FA0446F9
:10123000002D1DD0012080F31088002C23D02046E3
:101240002038C08B204988421DD16189208901F056
:1012500055FA05000ED021461031A38962892089F4
:10126000A847002806D001280DD002280BD105E0A0
:101270000020E0E7204601F047FA04E0114821464B
:101280000C3001F093F9EFF31084012080F3108803
:101290000C480068002802D1012001F03BFA002C24
:1012A00003D0012080F3108870BD0020FAE710B54C
:1012B000BC21064801F034FA0549012001F036FA54
:1012C00010BD0000A80508003883000004060800CF
:1012D0001D120020F8B50D46064681002B48EA880D
:1012E0004458521C20686B89018F294F514300914B
:1012F000014640314A89C989511A8AB2991A89B27C
:10130000B94214D29A4212D0294601F015FA2D8919
:101310002049009801F0B0F92818801C4034E08280
:101320003002401C80B2042101F04CF9F8BD2821A4
:10133000304601F007FAF8BDF8B5054687001348B6
:101340000C46C059C9880068114E02464032538984
:10135000D2899A1A92B28B1A9BB2B34211D20B4E17
:101360008A420ED001F0F4F9F0590522611C5F3079
:1013700001F0B8F92802401C80B2052101F022F9E1
:10138000F8BD2821284601F0DDF9F8BD4C0308001E
:10139000FF7F00001027000070B516460D4610466E
:1013A00001F0FEF8002869D0340A304601F0F8F860
:1013B000012812D0A87A1E2811D029460A310E28F9
:1013C00045D019DC801E030001F0C8F90B2558290F
:1013D000582D58315839583D5800022070BD3146BB
:1013E000274801F0C1F90021204601F0C3F902218C
:1013F000304601F0E7F841E018283CD006DC102820
:1014000019D012282BD0162838D130E0522822D0FB
:10141000D22833D127E0204601F0B2F92EE0204651
:1014200001F0B4F92AE0204601F0B6F926E02046A2
:1014300001F0B8F922E0204601F0BAF91EE020469A
:1014400001F0BCF91AE0204601F0BEF916E0204692
:1014500001F0C0F912E0204601F0C2F90EE020468A
:1014600001F0C4F90AE0204601F0C6F906E0204682
:1014700001F0C8F902E0204601F0CAF9002070BD71
:1014800001280000F3B581B001980C460102CA1D85
:101490000E310223344801F0C1F904700199054668
:1014A000022732488E00002C06D0042C16D0062CC1
:1014B00010D0072C3FD108E0815905224968897C6A
:1014C000114069708059C77335E0084601F0ACF9E6
:1014D000687030E080590F21C1732CE004468059B8
:1014E0004068417C012902D1007E01280FD001987B
:1014F00001F0A0F901210028A0590BD04268D07D4D
:1015000000281CD001281AD004280DD00FE000209C
:1015100068700DE04068C27D022A01D0042A06D11D
:10152000007C02280BD102E0107C022807D06F70EB
:10153000A1590320C873284601F082F9FEBD6970E5
:10154000F6E701460A780120042A01D900207047F5
:101550004A78002A01D0012AF8D10A79082AF5D858
:1015600049790829F2D87047021C000028050800B4
:10157000FFB589B00D4600206946059008720B98AA
:10158000000A009001F056F907460B9801F008F8A0
:1015900000287DD00B982978000A8400764E012916
:1015A0005ED0042904D0062943D0072963D120E066
:1015B000687800281BD0305910224068A91C01F01F
:1015C00091F8002F06D03159C87B032807D0042892
:1015D00008D050E03059C07B032803D04BE00B20EB
:1015E000C87348E00521009801F030F943E001207C
:1015F000B6E03059C07B0E283DD1009801F014F9B7
:10160000002103E02A18401C9170C0B21028F9D3C1
:10161000688A69460883294606A8082214310230E0
:1016200001F060F806ABAA1C3946009801F014F9E5
:1016300021E03059C07B0F281DD1AA1C0A21009837
:1016400001F010F9002F04D03946009801F010F98C
:1016500011E000231A463946009801F00FF90AE01C
:10166000012F08D10B9800F09BFF01281CD0002807
:1016700001D0022005906846007A002811D002AA05
:101680000521009801F0EEF86846027A602000E03B
:1016900007E002436846027201233946009801F0D0
:1016A000EDF805980DB0F0BD3059C07B0228E2D1AD
:1016B0006878002851D002210B9800F083FF305940
:1016C00007224068A91C173001F00CF8E8780028C0
:1016D00004D130594068407C01283AD0009801F08C
:1016E000D3F8002837D0297A009801F0D3F80028E1
:1016F00033D0009801F0D4F80121009801F0D6F819
:1017000000282CD030594068417E00292BD0042974
:1017100029D0C17E027D1140C17630594068017FD9
:10172000427D114001776846007A0028A7D13059E0
:10173000022142680098173201F094F8305941684C
:101740004031897B002913D004210098FFF79AFECD
:1017500091E7022004E0062002E0082000E00320D8
:10176000694608728BE70021C17630594068D9E795
:101770000B21C1737FE700002805080070B50446FF
:10178000007800250D2801D00A2200E002225A49E3
:101790004B7A002B06D00D2804D0637C032B01D09C
:1017A000432551E0097A8A4339D10D2809D00E2802
:1017B00002D00F2803D134E0607C032804D34025F5
:1017C00042E0607C0328FAD8A07C0428F7D20A29DA
:1017D00008D0607C012822D0022820D0607803281D
:1017E00009D811E001F068F8012806D160780328D3
:1017F00003D0002801D0492526E001F05DF800283B
:1018000002D160780228F6D83020035D22462046B7
:10181000E17C3132143000F019F8054614E042251D
:1018200012E001F049F8012807D16078052804D1B9
:10183000A01D01F047F80028DDD001F03DF8002898
:1018400002D160780228D6D8284670BDFFB50020A6
:1018500086B001216A461170044605910021002CD2
:1018600006D0089D099A1F239A4234D9402032E0BD
:101870001C23069D079AF7E76B185E78330000F08B
:101880006DFF1D26101010101010101010262626A7
:10189000262626262626262626261010101010106C
:1018A0002600059B03E06F46FF5CB74204D05B1E39
:1018B0005BB2002BF7DA03E0002B01DB4A2006E0E5
:1018C000059B6F46FE54059B5B1CDBB205936B5C6E
:1018D000491C5918C9B2914201D20028CCD091427A
:1018E00002D04A200AB0F0BD641CE4B2022CF9D246
:1018F0000028B3D0F6E7000098050800F8B50C46BC
:101900009449164609680125002702228B1C3128BC
:1019100073D012DC0C2874D008DC012821D00228F6
:1019200040D007284FD00B2869D156E010287FD02F
:10193000112876D01228F7D18DE00123412871D0EB
:1019400008DC32286FD035286ED036286DD040287C
:10195000EAD1B1E0422869D0432868D04428E3D1D5
:10196000CFE006227C497D4800F0B2FF002808D075
:1019700006227A49304600F0B5FE0620207000208D
:10198000F8BD744801680878C00738D02078062868
:1019900001D22770C2E006229831304600F0A2FE44
:1019A00006200EE00A786B48920728D522783E2A56
:1019B000EFD305464A7E5A31304600F093FE286840
:1019C000407E2070A7E00878400718D520780228CC
:1019D000DFD3887C3070587C78E00A785D48120745
:1019E0000DD52278202AD4D30546CA7D1A31304637
:1019F00000F078FE2868C07DE3E735E001E077E09D
:101A000016E00A785348D20672D52278202AC0D32D
:101A100005460A7E9831304600F064FE2868007E54
:101A2000CFE70EE054E028E034E03BE058E060E02F
:101A30000878800670D520780428AAD30422091DCE
:101A400023E00878400667D52078002866D0087D16
:101A500008E022705FE0087800065DD52078002855
:101A60005CD0487D3070F4E70888C00554D52078F4
:101A700004288ED304220C3107E0088880054BD55A
:101A80002078042885D304220831304600F02AFE4D
:101A9000042096E7088840053ED5207800283DD0F0
:101AA000887D36E00888000536D5207802288FD357
:101AB000087C3070487C09E00888C0042CD5207868
:101AC000022885D38231087F3070487F7070C0E76C
:101AD0000888800420D5207800281FD0A03117E086
:101AE0000888400418D52078002817D0A1310FE0CD
:101AF00012E0088800040FD5207800280ED0A2310B
:101B000006E00868C00307D52078002806D0A33176
:101B100008783070237000252846F8BD0425FBE7BF
:101B200070B50F480F49C405228880252A432280BA
:101B30000D4A53891B0701D4401EFAD20B4A0120DB
:101B400010600622054800F0CDFD2088A8432080C3
:101B500070BD0000C0060800383E03001C80002055
:101B6000A0860100D47F04002000005000800040C7
:101B7000FEB5524D524C68690090002620793146DE
:101B8000022800D100914F4F4F483A68002A0FD1E8
:101B90000278002A0DD04D4A0123D363D36B002B6A
:101BA000FCD101229207D2691923DB019A420ED39C
:101BB000017000F093FE00287DD0E0780126002817
:101BC00079D005200007808AC00701D0042672E082
:101BD00000F022FD00286ED13D4800683F2804D166
:101BE0002079002801D128690090A178684600F08A
:101BF0007BFE00285FD0A178684600F01FFD00281A
:101C000059D000F077FE002855D03868AA281BD09C
:101C1000972007210125AD07EA6B920A9202521C18
:101C2000EA63EA6B2B4B80021A400243EA63E86BDB
:101C3000C002C00A49050843E86338680426002842
:101C40000DD0AA2813D021E02348FFF7EBF8009A23
:101C50000321521E0092A37893422CD8DAE7009811
:101C60006421C00200F008FD0BE001210CE00098A7
:101C700000F0F7FB1949096800F06CFB00F0F8FB75
:101C8000019021790029F0D100F03AFE1448C06A91
:101C90008047286B0004C00FFBD000F037FE00F037
:101CA0003BFE10480168C905FCD5052000070189E5
:101CB0008022914301813046FEBD0000A002002039
:101CC000C60608000C80002000800020C0000040F4
:101CD00060010020FF03E0FF0112000018800020D7
:101CE0001C0708000002004038B500200090584949
:101CF0000820088005242407218830200143218002
:101D0000218803221143218002E000BF00BF00BFF1
:101D1000A18A0906F9D561898908890061814D493F
:101D20004A88520852004A802188814321802088B5
:101D3000800880002080A08A400701D5FEF751FF6F
:101D40002089802108432081208A04218843208221
:101D5000A08A8007FCD5404841050268D20202D41F
:101D60000A69520702D4009A002AF6D038BD10B58D
:101D70000124A407A06BFFF761F8384900F07CFC50
:101D800027221201511A00D10121354A50601160F9
:101D9000206B082188430843206310BD10B500F074
:101DA000C1FD2B4801894908490001812D4800687F
:101DB0003F2801D100F0BCFD012080078169042289
:101DC0001143816100F0BAFD00F0BEFD00F0C2FDDC
:101DD00025480068AA2802D11420FEF793FF234962
:101DE0000020087010BD10B500F0BAFD10BD10B590
:101DF00001208007008A000704D500F0B7FD1B49C9
:101E00000320087010BD70B5194800888506124877
:101E1000AD0E44681348C030006B0078002802D132
:101E2000284600F0A9FD13480089104EC00505D5CD
:101E3000200607D5284600F0A5FD01E0200601D5C3
:101E400002203070200401D50120307070BD0000E8
:101E500000330050200000500002004071020000DA
:101E600040000040600100200C8000202280002003
:101E700000200050002C005010B51221244800F022
:101E800087FD24491C2000F089FD00211C2000F062
:101E900099FB10BD30B503460120002103241A46EA
:101EA000CA40D20704D04D006D1C2246AA40104300
:101EB000491CC9B20929F2D330BD024600201229BB
:101EC00001D98D207047062A06D0072A07D0082A94
:101ED000F8D10729F5D170470829F2D170470629B2
:101EE000EFD3704770B50A4C0546218802231C22A7
:101EF000094800F093FC058000F0A2FCE088002176
:101F000000F052FD01211C2000F05CFB70BD0000C0
:101F100024800020582D002004700000FEB53B4EA8
:101F20001C2070801D46174634460888FFF7B2FF14
:101F300002903748334601900833132202A90097D4
:101F4000A01D00F037FD040008D1F088002100F04A
:101F50002BFD044601211C2000F034FB01231C2230
:101F600029462C4800F05AFC047000F069FC00205F
:101F7000FEBD70B50C4625490B802078082814D882
:101F8000CA880831415C51188DB2822D0BD061781E
:101F9000FFF793FF010009D16D1C6178A8B2A21C64
:101FA00000F00EFD08E0822100E08121194B174866
:101FB0005B1CDA1C00F05EF9002070BD70B51D4698
:101FC0000C46088800F002FD104AFF2810711580A9
:101FD00009D0A178D08800F0E7FC02211C2000F095
:101FE000F1FA002070BD0B4B89219B1C9A1C0748FD
:101FF00000F040F9F5E710B5044A180A127990424A
:1020000002D10888FFF76EFF002010BD2480002059
:10201000442C00200170000010B50C21254800F070
:10202000B7FC2549102000F0B9FC0021102000F079
:10203000C9FA10BD70B506461E480D461446018803
:10204000042310221D4800F0E9FB04808670C5704F
:1020500000F0F6FB70BD7CB5164C0646E08800210A
:1020600000F0A2FC2089002802D0002100F09CFC96
:102070006089002802D0002100F096FC0F482188DA
:1020800004231022401E00F0C9FB0546E0886A4682
:10209000801C80B201A900F09FFC2E80009800787F
:1020A000A870284600F0CCFB0121102000F08AFA2D
:1020B0007CBD0000388000202C2E00200240000053
:1020C000FFB5674C83B010206080664816460F4607
:1020D00000230092019003221946A01D00F06AFC23
:1020E0000546E088002100F05FFC3878C0071CD06E
:1020F0005D480190002320460322194600960830CF
:1021000000F058FC2089002100F04EFC5748019057
:10211000002320460322194600960A3000F04AFCAC
:1021200005466089002100F03FFC002D03D101210C
:10213000102000F047FA012310224D48069900F0C4
:102140006DFB057000F07CFB002007B0F0BD70B5A2
:10215000434C0D462380088800F038FC2071FF288E
:1021600023D0A978E08800F01FFCE088EA1C801CDE
:1021700080B2012100F024FC2089002802D0A97837
:1021800000F012FC6089002809D0801C80B22A1D52
:10219000012100F015FCA978608900F005FC0221FE
:1021A000102000F00FFA002070BD01239B035A1D80
:1021B00089212B4800F05EF8F5E770B5284D0C46F4
:1021C00029798022180A88422AD1E9882088891C26
:1021D000884201D1012604E02989891C88421FD147
:1021E0000226217A02290AD822460832012100F06B
:1021F000E7FBE079002801D0022E03D00022012E57
:102200000AD00DE0287900F0EDFB237A0246314632
:102210001846FFF70FFF03E02188287900F0E8FB5C
:10222000002070BD1CB50E480C460279190A914277
:1022300014D1A17813290ED016290CD0C0886A4673
:10224000801C80B201A900F0C7FB009822880078AA
:102250000121FFF7EFFE2088FFF7FDFE00201CBDE7
:1022600038800020A82D0020CC2D0020F02D00204B
:1022700004400000F8B514460F461E460546428845
:1022800001880623204600F0C9FA0446287900F0A8
:10229000A9FB208027716680204600F0D1FAF8BDA6
:1022A00070B51446428800790D4601020C310423B2
:1022B000274800F0B3FA002D01D0132100E01221CD
:1022C0000170448000F0BCFA70BD0A880270120AE6
:1022D00042708A788270CA78C2700A7902714A792B
:1022E0004271897981710720704742780378120220
:1022F0001A430A8082788A70C278CA7002790A7199
:1023000042794A71807988710720704710B5FFF7CC
:10231000B3FDFFF781FE10BD70B5064615460C46AD
:10232000102000F03DF9022805D1E2B21023294621
:10233000304600F063FB1C2000F032F9022805D182
:10234000E2B21C232946304600F058FB70BD000065
:102350000D300000024670B54A40D30FDB07400045
:102360002DD04A002AD0010E140E091900021202C3
:10237000400A520A8418E50104465443000A120A2E
:102380002E045043A4194219200CC543AA18120C5C
:1023900001257F39521CAD0352191204240400D0C8
:1023A000521C104301D44000491EC2B20C06C009A1
:1023B0002018401C4008802A02D003E0002070BD95
:1023C00040084000002900DA0020184370BD70B5B5
:1023D00002464A40D50F40004A00ED074008520827
:1023E000002814D0002A12D0C40DD30D41020120C0
:1023F000C0055202490A520AE41A091812187D341B
:10240000914201D3641C00E04900002C01DA002055
:1024100070BD0023914201D3891A0343400849004B
:102420000028F7D100290AD0914202D10121C90721
:1024300005E0914201D2012101E00121C943E005FB
:10244000C018401900F058F870BD420005D0420095
:10245000120E52428A4201DB00207047C90508185B
:10246000704710B500229623114600F04DF810BDBC
:10247000410040020122400AD205090E80187F293E
:1024800001DA00207047962903DC9622511AC840D1
:102490007047963988407047C20FD2074000400805
:1024A0000BD0C10D0723DB01C91840020905400A02
:1024B0001143C2084007114370470020014670478E
:1024C000CB0FDB07490010B5490802460A4307D085
:1024D0000A0D07240903E401090B121B002A01DC81
:1024E000002010BDC900440F0C43C100E018D20504
:1024F000801800F001F810BD002904DA401C4900E2
:1025000001D140084000704770B40024050C05D18B
:102510001024000402D1002922D01124050E01D17B
:1025200008340002050F01D1241D0001850F01D1DF
:10253000A41C8000002801DB641C4000002908D096
:1025400020252E1B0D46F540A14000D00121294336
:1025500008431B1B0106DB1D000A002B02DA0020CA
:1025600070BC7047DB05181880180029F8DA401C89
:102570004900F5D170BC400840007047064C012569
:10258000064E05E02046E36807C82B439847103401
:10259000B442F7D3FDF758FF7C2E0020AC2E00206C
:1025A00003B40148019001BDB326030003B4014800
:1025B000019001BD2F22020003B40148019001BD2A
:1025C0000B91020003B40148019001BD31260300C4
:1025D00003B40148019001BD551B020003B401483A
:1025E000019001BD0F3B030003B40148019001BD00
:1025F000CF2B030003B40148019001BDCB2C030095
:1026000003B40148019001BD0990020003B40148E0
:10261000019001BD1F21020003B40148019001BDDA
:10262000C12D030003B40148019001BD092103003D
:1026300003B40148019001BDC92D030003B4014852
:10264000019001BD2B69020003B40148019001BD56
:10265000EB31030003B40148019001BD3D3203009A
:1026600003B40148019001BDD721030003B4014820
:10267000019001BD5D80020003B40148019001BDDD
:10268000A73A030003B40148019001BD913B030048
:1026900003B40148019001BD2F2F030003B401488A
:1026A000019001BD938F020003B40148019001BD68
:1026B000CD8C020003B40148019001BD418F02009E
:1026C00003B40148019001BD2768020003B401482A
:1026D000019001BD3968020003B40148019001BDB9
:1026E000B780020003B40148019001BD213B030003
:1026F00003B40148019001BDBF22020003B40148A8
:10270000019001BDEB26030003B40148019001BD17
:102710003524030003B40148019001BDDD2003000E
:1027200003B40148019001BD533B030003B40148C9
:10273000019001BD9D20030003B40148019001BD3B
:102740003350020003B40148019001BD5548020016
:1027500003B40148019001BD1F50020003B40148B9
:10276000019001BDFD3D030003B40148019001BD8E
:10277000A528030003B40148019001BDD5AF0200B4
:1027800003B40148019001BDA1A5020003B40148B2
:10279000019001BDE3A5020003B40148019001BD11
:1027A00087A8020003B40148019001BDA7A9020057
:1027B00003B40148019001BD93AA020003B401488B
:1027C000019001BD95AB020003B40148019001BD29
:1027D000F9AB020003B40148019001BD69AC0200ED
:1027E00003B40148019001BD17AD020003B40148D4
:1027F000019001BD77AD020003B40148019001BD15
:10280000F1AD020003B40148019001BD85AE0200A4
:1028100003B40148019001BD11AF020003B40148A7
:10282000019001BDB123030003B40148019001BD33
:1028300049E5020003B40148019001BDF9E302003B
:1028400003B40148019001BDE123030003B4014832
:10285000019001BD4BCD020003B40148019001BDC0
:1028600099D1020003B40148019001BDABD0020030
:1028700003B40148019001BD69D0020003B40148CE
:10288000019001BD77CF020003B40148019001BD62
:1028900001CC020003B40148019001BD29CC020023
:1028A00003B40148019001BD15D2020003B40148F0
:1028B000019001BD8DD2020003B40148019001BD19
:1028C0007F0C030003B40148019001BDAB0C030071
:1028D00003B40148019001BD773B030003B40148F4
:1028E000019001BD7920030003B40148019001BDAE
:1028F0002129030003B40148019001BDD9900200D1
:1029000003B40148019001BDC768020003B4014847
:10291000019001BD0D2C030003B40148019001BDDD
:10292000B9C7020003B40148019001BD652C030042
:1029300003B40148019001BDF793020003B40148BC
:10294000019001BDDB2E030003B40148019001BDDD
:10295000231D020003B40148019001BDC32C0300F4
:1029600003B40148019001BD3B66020003B4014875
:10297000019001BD2B66020003B40148019001BD26
:10298000038D020003B40148019001BDCF8F020006
:1029900003B40148019001BD533B030003B4014857
:1029A000019001BD8725030003B40148019001BDDA
:1029B0007B9C020003B40148019001BD459F0200C9
:1029C00003B40148019001BD6D9B020003B40148AE
:1029D000019001BDB7E3020003B40148019001BDBD
:1029E000A59B020003B40148019001BDE3E302008E
:1029F00003B40148019001BDF3AF020003B40148E4
:102A0000019001BD95E3020003B40148019001BDAE
:102A10008D3D0300FFB581B00C4605460A461F46B2
:102A2000012000210A9EFFF7EFFF2A01FFF7ECFFCC
:102A30000C4B1A685B6810401940084300D100BE77
:102A4000002E2146284602D000F00EF801E000F0EA
:102A50002DF83B4621462846039A00F049F805B078
:102A6000F0BD00002090002070B504460D460A46D7
:102A700001200021FFF7C8FF2201FFF7C5FF094A27
:102A80001368526818401140084300D100BE032C5F
:102A900000D104240449600140180121A94041806B
:102AA00070BD0000209000200030005070B504463A
:102AB0000D460A4601200021FFF7A6FF2201FFF77D
:102AC000A3FF094A1368526818401140084300D117
:102AD00000BE032C00D104240449600140180121E8
:102AE000A940818070BD000020900020003000507F
:102AF000F8B5164604460D460A461F460120002139
:102B0000FFF782FF2201FFF77FFF094B1A685B681E
:102B100010401940084300D100BE032C00D104240A
:102B2000044960014018690008183E43C680F8BD9A
:102B30002090002000300050FEB50020214E0346BA
:102B400028220021424392198C00491C13510A2962
:102B5000FADB401C0428F3DBFDF7D6FF19480022FE
:102B60000838026042601546002417486900475A39
:102B70000120A04080B207421CD028206843801961
:102B8000A1004058411C19D0002810D0C11722467E
:102B9000FFF73AFF2A01FFF737FF0A4B083B1A6895
:102BA0005B681043074A1943083A10605160641C7F
:102BB0000A2CDDDB6D1C042DD6DBFEBD00950194D7
:102BC00000BEE3E7289000203A2C002002E008C86D
:102BD000121F08C1002AFAD170477047002001E097
:102BE00001C1121F002AFBD170470000FFFF000047
:102BF0007105002002FC00007D92020003FC000031
:102C000089920200DD050020991300208514002020
:102C10004315002071150020D51200203913002023
:102C20007D1700200101000A04280A040203AA00FB
:102C300055032A00A001FFFF2C01FF003F00FF0306
:102C4000FF0100000028010002000200282D0020E2
:102C500003280100050005002A2D0020292A010073
:102C6000120000000000000003280100050005001C
:102C70002F2D0020242A0100120000000000000077
:102C80000328010005000500342D0020252A01003D
:102C900012000000000000000328010005000500EC
:102CA000392D0020272A010012000000000000003A
:102CB00003280100050005003E2D0020262A010002
:102CC00012000000000000000328010005000500BC
:102CD000432D0020282A01001200000000000000FF
:102CE0000328010005000500482D0020232A0100CB
:102CF0000800000000000000032801000500050096
:102D00004D2D00202A2A01001200000000000000C2
:102D10000328010005000500522D0020502A010063
:102D200007000000000000000A18020000292A0223
:102D30000100242A020200252A020300272A020495
:102D400000262A020500282A020600232A0207007C
:102D50002A2A020800502A00882D0020A02D0020D9
:102D60003680002003000100007000001D1F0020BD
:102D700002700000731F002003700000BD1F0020C0
:102D800003380000F71F0020682D0020010000001C
:102D9000702D002002000000000000000000000074
:102DA000802D002001000000002801000200020028
:102DB000142E00200328010005000500162E002017
:102DC000062A0900010000000000000000280100A0
:102DD000020002001C2E002003280100050005004F
:102DE0001E2E0020062A080001000000000000003E
:102DF0000028010002000200242E00200328010008
:102E000005000500262E0020072A01000100000011
:102E10000000000003180A0000062A00021804003F
:102E200000062A000418020000072A005C2E002079
:102E3000742E0020448000200300010003400000A5
:102E4000C1200020004000004F2100200E30000073
:102E5000BB21002003380000252200203C2E00204A
:102E600001000000442E0020010000004C2E002034
:102E700001000000542E002001000000C42E00209C
:102E80000080002048000000DC2B0020C42E002021
:102E900020900020A8000000DC2B0020680708001C
:102EA000F41108000C1E0000DC2B0020EC2B00208D
:102EB0000300000000000000AC2E0020A404080065
:042EC000020001000B
:040000052000044192
:00000001FF
