:020000042000DA
:1000000000980020AD040020B5040020CD0400209D
:1000100000000000000000000000000000000000E0
:10002000000000000000000000000000E5040020C7
:100030000000000000000000FD040020FF0400207C
:10004000051D0020053103000D31030015310300AB
:10005000AF1D00208D310300511E0020651E0020C1
:100060000105002001050020A51E0020AD31030080
:1000700057810200010500204B1B02004B1B0200B0
:100080004B1B02004B1B02004B1B02004B1B0200D0
:100090004B1B02004B1B0200010500204B1B020002
:020000042000DA
:10016000320000008D06002049100020C71F00202B
:10017000000000000000000063800200BD8002005B
:10018000A30E0020FB8002001981020035810200CD
:100190005D810200811D002073060020770E002083
:1001A0008D0E002000000000000000003F00000055
:1001B000F48B002000040000740B080048010000CC
:1001C0006807080000040000C80C080020050000B3
:1001D000000000002000000048000000580000005F
:1001E0006800000004010000160100002801000062
:1001F0002E010000202A00008E2E000001000000C9
:1002000088130000D3100020E9600200FD93020073
:10021000D312002019280300A57402002119002020
:1002200003000000D5200200CF1F002004000000C2
:10023000D74902000F490200831D020063910200AA
:10024000B7910200BF910200078202007182020092
:1002500078380020AD8302009384020041850200BB
:1002600015860200378602005F860200758602004E
:10027000F9870200258902005D8A0200D38C020002
:10028000098D02000F900200438D0200278E0200AC
:10029000F98E0200478F0200998F0200D58F02006D
:1002A00049510200775102002F5202001000000055
:1002B00020030000803E000000000000000000005D
:020000042000DA
:1002C000504600030003983A6400F401B80B000C98
:1002D000B80B120030003000CD009A01120024004B
:1002E00030006400B0001800280012001200D0078F
:1002F0000000FFFF00000000000000000000000000
:100300001F000002444131343538302D30310000B7
:1003100000000000000000000000000000000000DD
:0403200000000000D9
:020000042000DA
:10034000FFFF010000C201000000000000000000EB
:100350000000F4010100011B070A1AFFD200021578
:10036000585CDE931B0142CC9A1325009BEDC65EC0
:1003700000000000C5000000000009FF00605257A7
:100380002D424C450000000000000000000000006D
:1003900000000000000000000000494E464F525F80
:1003A0004C494E4B0000000000000000000000001F
:1003B000000000000000000000000000000000003D
:1003C000000000000000000000000000000000002D
:1003D0000000000000000000010000CAEA80D00711
:0403E00006D06432AD
:020000042000DA
:100440000348854602F07EFE00480047C7200200B0
:100450000098002000BE000010B5114988683E22B7
:1004600090432E3088600F4906200880FF200E49F7
:10047000013008600021052000070180028A0F2357
:100480001B021A4302820122D204032308461B03E3
:1004900084182160001D9842FADB62B610BD00008E
:1004A000003300500034005080E100E015488047E0
:1004B0001548004704207146084203D0EFF3098035
:1004C00012490847EFF30880104908470420714695
:1004D000084203D0EFF309800D490847EFF3088085
:1004E0000B49084704207146084203D0EFF3098006
:1004F00008490847EFF3088006490847FEE7FEE78A
:10050000FEE700005904002041040020AD0A00204D
:1005100019050020FB05002010B505221207518A9D
:10052000802319435182124903680B6043684B6072
:1005300083688B60C368CB6003690B6143694B615F
:1005400083698B61C069C8610A48836A0B62C36AA8
:100550004B62036B8B62C36BCB62436B0B63806B31
:100560004863908A800602D5FFF774FF10BDFEE74E
:100570000018080000ED00E070B505460C46103C80
:100580003F2002F0F1FD00280FD0E74880683228B4
:1005900006D9E6498D4201D03C2801D9002070BD22
:1005A0002146E14802F0E6FD06E0204602F0E8FDC3
:1005B00001213F2002F0EAFD012070BD10B5DC49A9
:1005C0000B780A1D002005E0C400145D3F2C04D008
:1005D000401CC0B29842F7D310BDC000D54A4018A5
:1005E000826010BD80688968401AD34980B2884211
:1005F00001D9012070470020704781692039897F27
:10060000082904D2CD4A8900515881617047FEE71C
:10061000CC48CB490161CC494161CC498161CC498D
:10062000C161CC490162CC494162CC498162CC496B
:10063000C162CC490163CC494163CC498163CC4957
:10064000C163CA49BF485C3140300160C94941605B
:10065000C9498160C949C1600120C949C006086013
:10066000C849CA691202120ACA61C54980390860BC
:10067000704710B5C4490020086000F0B1FB0120AC
:100680008007016B49004908016310BD1CB5BF48D4
:1006900001240470BE480826068002F07DFD03F0A8
:1006A00067F800F0D1FABB4801780170BA480178C8
:1006B0000170012002F076FD27020D2039468001ED
:1006C00002F076FD01F03EFA00F028FC00F0E0FABE
:1006D000B24D288940094001288128890F218902CB
:1006E0008843691440182881AD4868822620A88272
:1006F0000720E882AB4828836C8368881E218843E2
:1007000014306880042000F008F9072000F005F993
:100710000A2000F002F9062000F0FFF80B2000F09C
:10072000FCF8012000F0F9F8022000F0F6F80020B3
:1007300000F0F3F89C48006802F040FDFFF73EFF30
:10074000A00701683943016000F040F9974F38680D
:10075000AA2805D1142000F009FB142000F014FB96
:1007600001F05EFEFFF785FFA22005242407E0824A
:100770008A484188E0229143A03141808C48006B37
:10078000007800280BD0002002F01EFD02F022FDB0
:10079000022806D002F01EFD012802D00AE0012046
:1007A000F2E77B480680A08A800603D5608A802114
:1007B0000843608202F0A9FA022604252089000677
:1007C00021D501208007006B00041CD402F008FD35
:1007D000C00718D1042002F009FD019002F00CFDC1
:1007E000019800280FD0002001903868AA2802D173
:1007F000142000F0C9FA042101A802F003FD00282A
:1008000001D000F002FB02F0A5F96A48017C002942
:1008100001D00021017402F049FB0028CED172B64C
:100820003868AA2801D100F0DBFA01F0B3F9694673
:100830000870042806D002280CD003280AD001280A
:1008400068D068E05C480078012802D00320087076
:1008500000E00E70208A2843208255484038C06945
:100860000128087811D903284BD102F0D1FC0028C7
:1008700047D002F0D3FC002843D0032002F0D4FC80
:1008800000283ED04D48067008E0032839D102F018
:10089000CBFC002835D0494901200870394801694E
:1008A00029430161618A202291436182218A314377
:1008B0002182694609780229618A24D0294361820C
:1008C0007F212288890180231A4322800022521C22
:1008D000D2B20A2AFBD3628A10231A436282384AB0
:1008E000491E516121888022914321802B494A88E9
:1008F000FF2301339A434A8030BF0169A943016154
:1009000009E06846BFE729436182618A102291436A
:100910006182EBE730BF62B650E7C106C90E012025
:10092000884028490860704780040800103400009F
:10093000040608004C3C00203075000058380020A8
:10094000942703000084004062B600DF28A3020061
:10095000704701DF1CCA0200F8BD02DF40CB020075
:10096000F5E703DF84D4020004DF89B0BC33020062
:10097000F8BD05DFF8BD06DFEC0C030070BD07DF36
:1009800080E100E000ED00E08C030800108400200E
:100990000033005000000800202A0800200000500A
:1009A0004E02000077770000049000201C84002095
:1009B00020020020D291002054020800C406080042
:1009C0000080004080E200E070470000334801787A
:1009D000002902D080214170704731490020087001
:1009E0003049C87070472D480178002902D0812114
:1009F000417070472A49012008702A49C870704721
:100A000026480178002902D082214170704724498C
:100A10000220087023490120C87070471F48817860
:100A2000002904D0491E0906090E817017D14278A9
:100A30000021002A04D09207920F0270417004E056
:100A40000278002A01D0521E02701206120E0170A6
:100A500005D0012A02D0022A01D1D1E7C3E77047AD
:100A600010B50E4CA078401CA0702078002805D14D
:100A700002F0B0FB421CFFF7A9FF227010BD07492E
:100A80000120C870704705490020C87070470348AE
:100A9000C078704704480078704700001184002037
:100AA00054020800C60608003284002010B5052252
:100AB0001207118A042319431182118A0223194350
:100AC00011821189402319431181184B01211960AA
:100AD000174B08211980518A8023194351821549E7
:100AE00003680B6143684B6183688B61C368CB61AA
:100AF00003690B6243694B6283698B62C069C86298
:100B00000D48836A0B63C36A4B63036B8B63C36BD0
:100B1000CB63436B074940310B60806B4860908A20
:100B2000800602D5FFF796FC10BDFEE780E200E0EC
:100B3000003300504018080000ED00E070B5504848
:100B400000220169D243002901D0114600E00121B1
:100B5000CB170C0F1B0123430C01016149490D68A0
:100B60004E682C4333430C604B604369002B01D02B
:100B7000144600E00124E317E50E5B012B434461BA
:100B80000D6864014E682C4333430C604B60C368AE
:100B9000002B01D0144600E00124E317650FDB00B1
:100BA0002B43C4600D68E4004E682C4333430C6053
:100BB0004B608368002B01D0144600E00124E3174A
:100BC000A50F9B002B4384600D68A4004E682C4346
:100BD00033430C604B60C369002B00D10122C2611A
:100BE000D017530EC00118430B68D2014C681A434A
:100BF00020430A60486070BD38B5002403252D02EB
:100C000002232A4604212046009402F01DFD002202
:100C1000012305211046009402F016FD14232A46F4
:100C200003210020009402F00FFD00221323022173
:100C30001046009402F008FD00232A4607211846BA
:100C4000009402F001FD38BD10B505242407208A68
:100C5000022188432082A08A0007FCD5A088802139
:100C60000843A0800321092002F0E4FAFFF7D0FC3A
:100C7000FFF7C2FF608A20210843608210BD000098
:100C800008800020008000209349002048607047C1
:100C900070B5052109070889302290430881088929
:100CA000802210430881088980088000401C088148
:100CB000088908231843088188480488144304805D
:100CC0004C8A9C434C820D89402425430D810D8A1A
:100CD0000426B5430D828D8AAD07FCD57E4E0025D6
:100CE000756005880126354305804589AE057C4D34
:100CF000068801D52E4300E0AE430680058878269D
:100D0000B5432835058005880626354305804D8A7C
:100D10001D434D820388934303800A89A2430A81BD
:100D20004089800503D56D49052060318880012008
:100D3000800701688215914301606A4801683F227B
:100D40005202914342148918016001680203114361
:100D5000016070BD032064490002888108224A8036
:100D60000020401C9628FCD38A8070475F49488049
:100D70000888032210430880088804221043088052
:100D8000554901200870704770B5534C21780029EF
:100D900025D056490A885207FCD4CA88898812048B
:100DA0005118534A504302F04BFA00212170A060C1
:100DB00002F037F9054601464E4802F0E6F80A21EE
:100DC00002F023F902F034F9E060284602F045F918
:100DD000494A4A4B02F03AFA02F056F9206170BDD6
:100DE00010B53D484168AA290CD07C204449081818
:100DF00084B24449204602F023FA081980B202F076
:100E00002BFA10BDC068000AF0E710B53E4801217A
:100E1000C163C16B0029FCD101208007C1693B4837
:100E20000268914201D20022026019238A1ADB0172
:100E30009A4212D3016002F015FA354A11888842AD
:100E400001D9411A00E0091A89B2182905D3108086
:100E5000012002F00DFA02F011FA10BD10B51E4982
:100E6000896848432B4902F0EBF910BD1A49C9685B
:100E70004843800A704710B517494968002902D0D5
:100E8000FFF7ECFF10BD02F0FFF910BD10B51249DD
:100E90004968002902D0FFF7E9FF10BD02F0FAF916
:100EA00010BD10B51C4A012051694906C90F10D068
:100EB00051698906C90F0CD000211161FF235F33EE
:100EC000491C9942FCD35169C907C90F02D002F0ED
:100ED000E7F9002010BD0000188400202000005019
:100EE00000100000000200402030005000160050AA
:100EF0000024F400002474497B14AE47E17A443F97
:100F00000112000071020000C00000407C040800D3
:100F10007804080040420F000010005030B59C4A91
:100F20009C49D005048880231C4304809A4C658921
:100F30002D0701D4521EFAD2984C01222260984CFF
:100F40000A882280974A4988118001889943018044
:100F500030BD0020704770477047704700207047D1
:100F600001218907086B0722104308637047704707
:100F700010B58E498C4808608D494C2008808C4BF8
:100F80008C4A203B1A828D498B4848808D488C4979
:100F900001808B49193141802221418181218900C1
:100FA00001828949418289490183874911314183FD
:100FB0008449874820318880412186480901818001
:100FC0008549C180844C1034C48101824182891CCE
:100FD0008182611FC182FF21463101837F494183A4
:100FE0007F49592008807E487E4C2030048043246D
:100FF00044807D4C4C82D5218180FF21D3310181F9
:101000007A4941817A4981817B497A4808806848D8
:101010007A4960384180C18810242143C1807149D8
:101020000A390181624C7649403C61805A8208212C
:1010300041815C486A4900884039088258487149B2
:101040000088088010BD704700B58BB06E4A4262C0
:101050006E4A82626E4A42616E4AC2626E4A0260A3
:101060006E4A02626E4A42606E4AC2614F4A4E4800
:10107000002110604D484038026B03129A4302630E
:10108000426B1F231B049A4303231B04D2184263A1
:1010900065480368C21293430360026803139A43CE
:1010A000026068464154491CC9B22829FAD3014656
:1010B00028225E4802F0FAF8FFF75AFF02F0D2F851
:1010C0005B490880002002F0D3F802F0D7F80BB09B
:1010D00000BD10B5354A0F2133480902106033486E
:1010E0004038426B1F231B049A4303231B04D2186E
:1010F000426300060268D208D200026005200007A1
:10110000028992089200521C0281028908231A4324
:101110000281028A0A4302821F4801894909490162
:10112000018101890F2292029143421489180181A1
:10113000294920314182262181820721C1822D49FE
:10114000DC3901830121418341881E2291431431FE
:10115000418038490968002907D14189890504D5AA
:1011600001887822914308310180FFF701FF32485E
:10117000006B0078002808D0304800880C4960399E
:10118000C880002002F020F810BD0120FAE700001E
:10119000A0860100087F040020000050008000406D
:1011A000560208004A0308004C055407800000401E
:1011B000602C00507F7F0000AC290000002200500E
:1011C00009090000002400502204000030D0000073
:1011D000EE110000002500502E0200004420000007
:1011E000402800500D95000002420000E4DC0000A1
:1011F0001092000053780000002A00508B1000006D
:101200009DD5000000260050530F0020570F0020EE
:101210005D0F0020610F0020590F00206F0F00208C
:101220005B0F002047100020000200402000080053
:10123000780408001C8400202002002052040800CA
:1012400070B5EFF31085012080F31088264802F076
:1012500033F80446002D1DD0012080F31088002CA7
:1012600023D020462038C08B204988421DD1618977
:10127000208902F027F805000ED021461031A389FD
:1012800062892089A847002806D001280DD00228AD
:101290000BD105E00020E0E7204602F019F804E059
:1012A000114821460C3001F065FFEFF31084012056
:1012B00080F310880C480068002802D1012002F059
:1012C0000DF8002C03D0012080F3108870BD0020A1
:1012D000FAE710B5BC21064802F006F805490120DE
:1012E00002F008F810BD0000A805080038830000CF
:1012F0000406080041120020F8B50D46064681009C
:101300002B48EA884458521C20686B89018F294F6A
:1013100051430091014640314A89C989511A8AB224
:10132000991A89B2B94214D29A4212D0294601F0D0
:10133000E7FF2D892049009801F082FF2818801CC2
:101340004034E0823002401C80B2042101F01EFFD4
:10135000F8BD2821304601F0D9FFF8BDF8B50546A3
:10136000870013480C46C059C9880068114E0246D0
:1013700040325389D2899A1A92B28B1A9BB2B342E5
:1013800011D20B4E8A420ED001F0C6FFF059052251
:10139000611C5F3001F08AFF2802401C80B20521E9
:1013A00001F0F4FEF8BD2821284601F0AFFFF8BD9A
:1013B0004C030800FF7F00001027000070B51646A0
:1013C0000D46104601F0D0FE002869D0340A3046A0
:1013D00001F0CAFE012812D0A87A1E2811D0294691
:1013E0000A310E2845D019DC801E030001F09AFF57
:1013F0000B255829582D58315839583D580002208E
:1014000070BD3146274801F093FF0021204601F0CE
:1014100095FF0221304601F0B9FE41E018283CD08A
:1014200006DC102819D012282BD0162838D130E02D
:10143000522822D0D22833D127E0204601F084FF61
:101440002EE0204601F086FF2AE0204601F088FFCA
:1014500026E0204601F08AFF22E0204601F08CFFC2
:101460001EE0204601F08EFF1AE0204601F090FFBA
:1014700016E0204601F092FF12E0204601F094FFB2
:101480000EE0204601F096FF0AE0204601F098FFAA
:1014900006E0204601F09AFF02E0204601F09CFFA2
:1014A000002070BD01280000F3B581B001980C4602
:1014B0000102CA1D0E310223344801F093FF04706B
:1014C00001990546022732488E00002C06D0042CD4
:1014D00016D0062C10D0072C3FD108E081590522E8
:1014E0004968897C114069708059C77335E00846A6
:1014F00001F07EFF687030E080590F21C1732CE04D
:10150000044680594068417C012902D1007E0128AF
:101510000FD0019801F072FF01210028A0590BD0D3
:101520004268D07D00281CD001281AD004280DD094
:101530000FE0002068700DE04068C27D022A01D0F3
:10154000042A06D1007C02280BD102E0107C02287C
:1015500007D06F70A1590320C873284601F054FFCB
:10156000FEBD6970F6E701460A780120042A01D918
:10157000002070474A78002A01D0012AF8D10A7960
:10158000082AF5D849790829F2D87047021C0000CA
:1015900028050800FFB589B00D4600206946059072
:1015A00008720B98000A009001F028FF07460B987C
:1015B00001F0DAFD00287DD00B982978000A84001C
:1015C000764E01295ED0042904D0062943D007298C
:1015D00063D120E0687800281BD030591022406881
:1015E000A91C01F063FE002F06D03159C87B0328E7
:1015F00007D0042808D050E03059C07B032803D01E
:101600004BE00B20C87348E00521009801F002FF71
:1016100043E00120B6E03059C07B0E283DD1009850
:1016200001F0E6FE002103E02A18401C9170C0B2D0
:101630001028F9D3688A69460883294606A8082233
:101640001431023001F032FE06ABAA1C3946009874
:1016500001F0E6FE21E03059C07B0F281DD1AA1C05
:101660000A21009801F0E2FE002F04D039460098CC
:1016700001F0E2FE11E000231A463946009801F01D
:10168000E1FE0AE0012F08D10B9801F06DFD012861
:101690001CD0002801D0022005906846007A00285E
:1016A00011D002AA0521009801F0C0FE6846027A16
:1016B000602000E007E002436846027201233946D9
:1016C000009801F0BFFE05980DB0F0BD3059C07B09
:1016D0000228E2D16878002851D002210B9801F04D
:1016E00055FD305907224068A91C173001F0DEFD76
:1016F000E878002804D130594068407C01283AD06D
:10170000009801F0A5FE002837D0297A009801F052
:10171000A5FE002833D0009801F0A6FE0121009814
:1017200001F0A8FE00282CD030594068417E0029E5
:101730002BD0042929D0C17E027D1140C1763059B9
:101740004068017F427D114001776846007A002899
:10175000A7D13059022142680098173201F066FE85
:10176000305941684031897B002913D00421009809
:10177000FFF79AFE91E7022004E0062002E008202D
:1017800000E00320694608728BE70021C1763059DA
:101790004068D9E70B21C1737FE7000028050800E6
:1017A00070B50446007800250D2801D00A2200E01B
:1017B00002225A494B7A002B06D00D2804D0637CB4
:1017C000032B01D0432551E0097A8A4339D10D28F2
:1017D00009D00E2802D00F2803D134E0607C032802
:1017E00004D3402542E0607C0328FAD8A07C04287A
:1017F000F7D20A2908D0607C012822D0022820D004
:101800006078032809D811E001F03AFE012806D1DA
:101810006078032803D0002801D0492526E001F094
:101820002FFE002802D160780228F6D83020035D10
:1018300022462046E17C3132143000F019F805468A
:1018400014E0422512E001F01BFE012807D1607868
:10185000052804D1A01D01F019FE0028DDD001F0FB
:101860000FFE002802D160780228D6D8284670BD25
:10187000FFB5002086B001216A461170044605912B
:101880000021002C06D0089D099A1F239A4234D9C2
:10189000402032E01C23069D079AF7E76B185E781C
:1018A000330001F03FFD1D26101010101010101015
:1018B000102626262626262626262626262610100A
:1018C000101010102600059B03E06F46FF5CB74226
:1018D00004D05B1E5BB2002BF7DA03E0002B01DBC8
:1018E0004A2006E0059B6F46FE54059B5B1CDBB25D
:1018F00005936B5C491C5918C9B2914201D200286A
:10190000CCD0914202D04A200AB0F0BD641CE4B2AF
:10191000022CF9D20028B3D0F6E7000098050800A1
:10192000F8B50C469449164609680125002702229D
:101930008B1C312873D012DC0C2874D008DC0128F1
:1019400021D0022840D007284FD00B2869D156E07B
:1019500010287FD0112876D01228F7D18DE00123EE
:10196000412871D008DC32286FD035286ED0362857
:101970006DD04028EAD1B1E0422869D0432868D030
:101980004428E3D1CFE006227C497D4801F084FD64
:10199000002808D006227A49304601F087FC06204C
:1019A00020700020F8BD744801680868C00738D06E
:1019B0002078062801D22770C2E0062298313046EE
:1019C00001F074FC06200EE00A686B48920728D5E7
:1019D00022783E2AEFD305464A7E5A31304601F03E
:1019E00065FC2868407E2070A7E00868400718D58D
:1019F00020780228DFD3887C3070587C78E00A6831
:101A00005D4812070DD52278202AD4D30546CA7D19
:101A10001A31304601F04AFC2868C07DE3E735E022
:101A200001E077E016E00A685348D20672D52278C2
:101A3000202AC0D305460A7E9831304601F036FC94
:101A40002868007ECFE70EE054E028E034E03BE079
:101A500058E060E00868800670D520780428AAD392
:101A60000422091D23E00868400667D52078002875
:101A700066D0087D08E022705FE0086800065DD54A
:101A8000207800285CD0487D3070F4E70868C005F5
:101A900054D5207804288ED304220C3107E008683E
:101AA00080054BD52078042885D3042208313046A0
:101AB00001F0FCFB042096E7086840053ED520783D
:101AC00000283DD0887D36E00868000536D52078AE
:101AD00002288FD3087C3070487C09E00868C00475
:101AE0002CD52078022885D38231087F3070487F3A
:101AF0007070C0E70868800420D5207800281FD0C7
:101B0000A03117E00868400418D52078002817D0C5
:101B1000A1310FE012E0086800040FD520780028FA
:101B20000ED0A23106E00868C00307D5207800284F
:101B300006D0A33108783070237000252846F8BD00
:101B40000425FBE770B50F480F49C405228880259E
:101B50002A4322800D4A53891B0701D4401EFAD222
:101B60000B4A012010600622054801F09FFB2088E7
:101B7000A843208070BD0000C0060800383E030066
:101B80002C840020A0860100D47F04002000005097
:101B900000800040F8B5514D002668690090FEF7BE
:101BA00076FF00214E4C002802D12079022800D176
:101BB00000914C4F4C483A68002A0FD10278002A15
:101BC0000DD04A4A0123D363D36B002BFCD10122F1
:101BD0009207D2691923DB019A427DD3017001F08B
:101BE00061FC002878D0E0780126002874D0052018
:101BF0000007808AC00701D004266DE001F0F0FAEA
:101C0000002869D12079002801D128690090A178A5
:101C1000684601F04DFC00285ED0A178684601F0CE
:101C2000F1FA002858D001F049FC002854D0386857
:101C3000AA281BD0972007210125AD07EA6B920A3D
:101C40009202521CEA63EA6B294B80021A4002435B
:101C5000EA63E86BC002C00A49050843E8633868D4
:101C6000042600280DD0AA2813D020E02148FFF731
:101C700002F9009A0321521E0092A37893422BD8B6
:101C8000DAE700986421C00201F0DAFA0AE00121E3
:101C90000BE0009801F0C5F91749096801F038F91F
:101CA00001F0C6F921790029F1D101F00DFC1348AA
:101CB000C06A8047286B0004C00FFBD001F00AFC0B
:101CC00001F00EFC0E480168C905FCD5052000078F
:101CD00001898022914301813046F8BDA002002095
:101CE000C60608001C84002010840020C0000040AC
:101CF000FF03E0FF01120000288400201C070800F9
:101D00000002004010B57B49082008800524240704
:101D10002188302001432180218803221143218022
:101D200002E000BF00BF00BFA18A0906F9D56189A2
:101D300089088900618170494A88520852004A80A6
:101D40002188814321802088800880002080A08A0B
:101D5000400701D5FEF778FF2089802108432081C4
:101D6000208A042188432082A08A8007FCD563480A
:101D700041050268D202FCD40A695207F9D510BDA8
:101D800010B50124A407A06BFFF780F85C4901F0AF
:101D900057FA27221201511A00D10121594A5060E5
:101DA0001160206B082188430843206310BD10B5E3
:101DB00001F09CFB4F48018949084900018101F06D
:101DC0009BFB01208007816904221143816101F09E
:101DD00099FB01F09DFB01F0A1FB4B480068AA288C
:101DE00002D11420FEF7C2FF48490020087010BD40
:101DF000F8B5054646484849047B4648C969006825
:101E000040300089884201D1002002E00002401CDD
:101E100080B23F4E000A203E870013E02E20B16AB8
:101E2000604308184088C00609D001F07DFB3B499B
:101E30006422C9598A56904201DA00F02BFF641CD3
:101E40006407640F28466D1EEDB20028E6D1F8BD88
:101E5000314810B54030C068C0B2FFF7C9FF01F08B
:101E600069FB10BD10B501208007008A000718D556
:101E70002B490120087027484E230068264A40302D
:101E8000018912685943274BC918515AC07C090A65
:101E9000081AC0B2FFF7ACFF01F052FB1B49032048
:101EA000087010BDF8B52048008887061348BF0E9B
:101EB000446819484030006B0078002802D1384649
:101EC00001F044FB194800890125C0050F4E002888
:101ED00005DA200609D5384601F03EFB01E0200670
:101EE00003D50F48456002203070200400D53570BE
:101EF000F8BD0000003300502000005000020040F8
:101F000071020000400000401C8400203284002048
:101F1000380308006C030800E00100204C030800AF
:101F2000209000204A00080000200050002C0050A3
:101F3000F8B505460E4610461F466A8829880623CE
:101F400001F050FA0446287901F00CFB208026713C
:101F50006780204601F058FAF8BD70B515464288F2
:101F600000790C4601020C310423214801F03AFAB1
:101F7000002C01D0132100E012210170458001F0F6
:101F800043FA70BD0A880270120A42708A78827021
:101F9000CA78C2700A7902714A794271897981716D
:101FA000072070474278037812021A430A80827829
:101FB0008A70C278CA7002790A7142794A7180794E
:101FC00088710720704710B500F014F810BD70B587
:101FD00006460C461546342001F0C6F8022805D105
:101FE000E2B234232946304601F0C2FA70BD000047
:101FF0000D30000010B5DC21634801F0BFFA6349E1
:10200000342001F0C1FA0021342001F0BFF810BDE6
:10201000FEB50025684685805B4C009560896A4660
:10202000801C80B201A901F0B5FA684680880228B8
:1020300012D1009800280FD0007800280CD0E18839
:1020400001233422524801F0CDF900990978218208
:10205000057001F0D9F907E0E5814D482582E18856
:102060003422401C01F09CFA0098002800D000782F
:1020700069460881A5810A2702AA0221032001F0EE
:1020800095FA00266189B000C01D081880B202AA26
:10209000022101F08BFAA089761C401CA081BE426F
:1020A000F0DB68460089002800D1A581FEBDFEB5A1
:1020B0000646002768468780334C0097E08961898F
:1020C0008000C01D08183D4680B26A4601A901F093
:1020D00061FA0098002817D00088002814D0E08901
:1020E00061898000801D081880B23246142101F0F9
:1020F0005DFAE08961898000801D081882B20021A4
:102100002046FFF72AFF0127E089401C80B2E081CA
:102110000A2800D3E5813846FEBDF8B51A4C0025E3
:10212000608A00282ED00527002614206843001955
:102130001430FFF7BCFF002805D0608A6D1C401EDC
:10214000ADB260827F1E761C608A0A2E04DA0028F7
:1021500017D0002FE9DC01E0002812D000260DE0A6
:1021600014206843011914207043001914311430ED
:10217000142201F09BF86D1CADB2761C608AB0424F
:10218000EEDC3846F8BD0000A8800020983800201A
:1021900003D000003EB50020C0439C4C0290E38079
:1021A000088860819A4801900092204600232D22E1
:1021B00002A90A3001F000FA05466089002101F009
:1021C00001FA002D03D10121342000F0DFFFE18866
:1021D000012334228F4801F005F9057001F014F94C
:1021E00000203EBDF8B500256846884C0580628019
:1021F0002380E3800E46488801F0EAF92071708858
:102200002081E581A5818448258280888349801FBB
:10221000087060896A46801C80B2022101F0C6F90C
:1022200060896A46C01D80B2022101F0BFF9608951
:102230006A460B3080B2022101F0B8F960896A4623
:102240000F3080B2022101F0B1F960896A46133083
:1022500080B2022101F0AAF960896A46173080B283
:10226000022101F0A3F960896A461B3080B2022185
:1022700001F09CF960896A461F3080B2022101F0AA
:1022800095F960896A46233080B2022101F08EF907
:102290006089012101F096F90221342000F076FFD7
:1022A0000020F8BD10B50121342000F06FFF0020A0
:1022B00010BDFFB583B000276846544E0781308AB1
:1022C000002852D004985549057853480024808846
:1022D0000870009442E00197F08971898000C01D68
:1022E000081880B201AA02A901F054F90198002847
:1022F0001CD00088002819D0F08971898000801DC9
:102300000818214614225143049A80B28A18921C5C
:10231000142101F04BF9F08971898000801D0818A3
:1023200082B200213948FFF718FE02E00221684618
:1023300001813A48641C01786D1E491E0170F089C4
:10234000A4B2401C80B2ADB2F0810A2801D3F7815B
:102350000AE00098401C00900A2805DA002D03D0FE
:102360002E4800780028B6D1002007B0F0BDF8B59F
:102370000C46164623468A880833498820881F461B
:1023800001F02CF9214D21886889081A801E03006C
:1023900000F0C8FF2A163939391F1939391F193980
:1023A000391F1939391F1939391F1939391F193985
:1023B000391F1939391F1939391F1939391F193975
:1023C000FFF726FE218828890022C0B201F00CF90F
:1023D00019E0104829881A233246401C01F002F8FF
:1023E0000646287901F0BEF8308020887080207A77
:1023F00030716088707162883946B01D00F056FFF8
:10240000304601F001F80020F8BD0000A88000204F
:102410000039002006D000001E050800289000208A
:1024200038B50124684604700C21494801F0A6F82B
:10243000474D6946EC702A1D352001F0DBF8002875
:1024400000D02C7100F014FA4249322001F09CF8BF
:102450000021322000F09AFE00F0B2F838BD10B52D
:1024600000F0C5FA10BD10B5394802238078322239
:1024700001020E31384800F0B5FF0121017013212F
:10248000417000F0C1FF10BD10B5044630482C2348
:1024900080783222010230480E31801E00F0A2FF07
:1024A00001462030047200224272084600F0ACFF60
:1024B00010BD10B5502332220D21284800F092FFA4
:1024C000044600F009FA204600F09EFF0221322067
:1024D00000F05CFE10BD214810B5012332220D2111
:1024E0000B3800F07FFF0221017000F08DFF10BD5E
:1024F00010B500F090FA10BD194B10B59A4201D9F1
:102500001A4602E0002A00D1012201F079F810BD3C
:10251000F8B5064611480F461546252332220D21EF
:10252000C01C00F05FFF04460120207720460622F1
:1025300039461D3000F0BAFE2320065565822582FB
:10254000204600F092FA204600F05EFFF8BD000041
:1025500034840020643B0020043800000E34000066
:102560003075000010B501F051F8254901F054F81C
:102570002448081810BDF8B5234D0646A876002457
:1025800001F044F82919641CE4B20874082CF7D34C
:1025900000241027381BB04201DD002007E001F0C5
:1025A00035F8C117090E0918090A0902401A2855F9
:1025B000641CE4B2102CEDD301F028F82883F8BD98
:1025C00010B52421104800F0D9FF00F052F910BDD9
:1025D00010B50E4802238078322201020E310C48D9
:1025E00000F000FF0D21017007492031897841700A
:1025F00000F00AFF0321322000F0C8FD10BD0000EA
:10260000A0BB0D00A086010040840020348400207F
:102610001A38000010B5084609781C460B0000F077
:1026200081FE080520202008181B1E2000F020FA3B
:1026300017E04178012904D0002902D0022903D0F3
:102640000FE000F016FA0CE01146204600F01AFAEE
:1026500007E000F00FFA04E000F00DFA01E000F0EE
:102660000BFA002010BD10B508782F4C801E030017
:1026700000F058FE020214188878A070C0070AD033
:102680002A49294A4879203AD07627480622891DC6
:10269000001F00F00BFE00F0F0F903E0FFF7E3FE8F
:1026A0000020A070002010BDF8B50D461946122379
:1026B0001F4800F097FE0446284600F0DFF9002787
:1026C000002821D0184EB078C0071DD0304608220F
:1026D000A91C103800F0E0FE002815D13046203843
:1026E000018B2A8891420FD101212170807E607474
:1026F000314610222039601C00F0D8FDB078FFF779
:10270000C3FE00F0BEF900E02770204600F07CFE1A
:102710002078002801D1FFF7A6FE0020F8BD10B5F3
:1027200000F0AEF9002010BD608400203484002049
:102730001838000010B5104600F016FD002809D129
:10274000012332220D21484800F04CFE0121017086
:1027500000F05AFE002010BD70B5087815460F280D
:102760002DD008DC01280DD002282CD003281CD045
:102770000E2830D11FE0102825D0112823D0122890
:1027800029D123E04878002825D137482223322256
:102790000D21801C00F026FE04460146284600F06C
:1027A0003BF9204600F030FE15E04878002812D1B1
:1027B00000F03DF90FE0487800F050F90BE0487860
:1027C00000F04DF907E000F04FF904E048784428A4
:1027D00001D100F04CF9002070BD70B50D461046D7
:1027E0001C4600F0C1FC022805D12049200A88704F
:1027F000284600F03FF8002070BD70B508780C4600
:1028000015460A2810D1104600F0AEFC04280BD162
:102810006078002802D000F01FF905E00521284665
:1028200000F0B4FC00F019F9002070BD10B510469E
:1028300000F0BEF8002010BD10B50C46104600F0A8
:1028400093FC012808D12078002805D1FFF707FE66
:10285000002801D000F004F9002010BD10B5084692
:1028600000F004F9002010BD023400003484002080
:102870007047704770B50446CB488078FF2828D051
:102880003221CA4800F054FD0521322000F07EFCC0
:10289000C648092332223F21401F00F0A3FD054610
:1028A000012028702088A870607A6870214606226E
:1028B0000A31E81C00F0FAFC284600F0A5FD60880B
:1028C00000F0CCF900F09CF9B9488078FFF7DCFD06
:1028D00070BDFFF7EEFD70BDF0B5044693B00E205D
:1028E0002070002565709620A081E081072020746B
:1028F000012060741C20E074274622461F202037E8
:10290000143238741646511E0B2000F073FE002856
:1029100005D02A46E574A7A1304600F0C7FC224640
:102920003132511E0C20119200F064FE002805D0B7
:102930003D742A46A1A1119800F0B8FCE07C1A2150
:10294000081A45B2002D31DD3E206946087001AA03
:10295000022000F04FFE002807D00D2268460270CA
:1029600097A101A800F05EFE03E068460078002809
:102970001CD068460078A84200D2054669460D7012
:10298000E07C6D1C8555E27C2046092115301154F0
:10299000E17C401C081869460A7801A900F086FC11
:1029A00069460878E27C801C1018E07413B0F0BD12
:1029B00010B50C4600F0D8FB032803D0052801D041
:1029C000042813D10221322000F0E0FB80490020CE
:1029D00008707648092332223F21C01E00F002FD14
:1029E0002188817000F010FDFFF763FD10BD70B508
:1029F00000247849022008706B4DE878022807D23D
:102A0000012801D100F0F0F8E878401CE87000E0FF
:102A10000124204670BD7047032008700A204870CA
:102A200000204882087548751720C882704710B585
:102A30000121322000F0AAFBFFF711FD002801D090
:102A4000FFF737FD5948042332223F210A3800F0AE
:102A5000C9FC00F0D9FC10BD704770477047704743
:102A600010B5FFF726FD10BD7047704770477047DF
:102A70007047704770477047704770470120704734
:102A800070477047704710B50C46484819460123F7
:102A900032220B3800F0A6FC2178491C017000F0AE
:102AA000B3FC002010BD10B5087800F091FD0102C4
:102AB0000E3102233222484800F094FC01210170BB
:102AC0001321417000F0A0FC002010BD70B500245F
:102AD000404D26460C351420604340190680801C6A
:102AE0002246122100F0A4FD641C202CF3DB70BDF3
:102AF00010B54878364C012801D0002007E0207836
:102B0000012803D0FEF726F9FFF7E0FF012020702F
:102B1000002010BD10B5322000F026FB052814D18E
:102B200022480E2332223F21401E00F05BFC044667
:102B3000002020701C480C22008860702749A01CCF
:102B400000F0B4FB204600F05FFC10BD0188491C7A
:102B500001807047F8B51E481E4C0078012821D12D
:102B60001F4F204D26460C360097A06869898000CB
:102B7000801D0A1860681421484380191B2300F047
:102B8000D0F800280EDD6068401C6060202801DB62
:102B900000206060A068401CA0600A28E4DB0020E0
:102BA000A060E1E7F8BD0000348400200DC80000FB
:102BB00060840020070103180000000002FF0000ED
:102BC000444131343538302054454D504C000000DC
:102BD000658400208481002004380000D291002008
:102BE0004D2B0020A880002010B502233222342172
:102BF0000B4800F0F7FB0021018000F005FC10BD40
:102C000010B5342104233222880200F0EBFB32217C
:102C1000018004490988418000F0F6FB10BD0000E6
:102C200005D000003484002010B50C46104600F09A
:102C30009BFA012809D1322201231146900200F0AB
:102C4000D1FB2178017000F0DFFB002010BD10B532
:102C5000487900F024F8002010BD00001121821FE7
:102C60000C2A05D2A24A41008A18203A1421515E4A
:102C7000A04A508088B21080411C083A1160704709
:102C800010B512219C4800F079FC9C489A49808834
:102C9000888110BD98484189491C418170479649F7
:102CA000CA88521CCA800A8910180881704770B5FA
:102CB000914CE089401CE081E0898E494D88FF21DC
:102CC0006843913188421FDB12222146881800F0A8
:102CD000EDFA1221204600F051FC2146123188897C
:102CE000A081A089C889122268430880A089101A8F
:102CF0004A88121A4A808B88142242439B1A8B807E
:102D00006080A2800120087470BD10B5FF21913150
:102D10007B4800F0E9FA7A480021001F41700170F9
:102D200010BDF0B5764D84462D1F68782E1D070125
:102D30008E46BC19E17B002902D00020C043F0BDC3
:102D40000121E1736146F1517146A1736260A38173
:102D50000599A160411CC9B269701929EFD30021FE
:102D60006970F0BD192802D30020C0437047644940
:102D700000014018C07B704770B5044661482C23A1
:102D80008078322201020520491D800200F02AFBD2
:102D900005001AD00420A880A089C0B2A87160687C
:102DA0002881A27B6A8128460C30216800F07EFAD7
:102DB000284600F029FBA07B00F038FD0020E073DE
:102DC000A268002A01D003CC904770BDF8B54C4CE6
:102DD0000146241F2078251D00014019C07B0027D3
:102DE00000281CD045488088012818DD461A14E0C8
:102DF000207800014019FFF7BFFF20787F1C401C9E
:102E0000C0B2761E2070192801D300202070000661
:102E1000000D4019C07B002801D0002EE8DC3846A8
:102E2000F8BD70B5354933488C8812210B1B3449E5
:102E3000304A091F08388D78083A40681268002D1A
:102E400001D0A01A401C012800DA0120934201DDC4
:102E5000012200E000228A70C0B2FFF7B7FF264AC5
:102E6000211A918170BD70B5244912268C882149A0
:102E7000002008390A682149331B89881E4D89B210
:102E8000934209DA112C04DA1D4B1B1F9B78012B8E
:102E900002D0B01A02D004E0A98170BD122A00D07D
:102EA0000120C0B2FFF792FF211AF5E7F8B5164CE2
:102EB00000272078154E3D46012803D031680129AE
:102EC00009D012E0FFF7CFFF0746022035602070DF
:102ED000FFF7EDFE09E0022807D1FFF7A2FF074642
:102EE00035602078022800D125703846F8BD0000F2
:102EF000FC3B0020643C0020C09100201E0508001F
:102F00003090002034840020209000202490002065
:102F1000024670B54A40D30FDB0740002DD04A006F
:102F20002AD0010E140E091900021202400A520A98
:102F30008418E50104465443000A120A2E04504343
:102F4000A4194219200CC543AA18120C01257F3977
:102F5000521CAD0352191204240400D0521C104319
:102F600001D44000491EC2B20C06C0092018401C02
:102F70004008802A02D003E0002070BD40084000D5
:102F8000002900DA0020184370BD70B502464A409F
:102F9000D50F40004A00ED0740085208002816D01F
:102FA000002A14D041000C0E51000B0E41020120EA
:102FB000C0055202490A520AE41A091812187D344F
:102FC000914201D3641C00E04900002C01DA00208A
:102FD00070BD0023914201D3891A03434008490080
:102FE0000028F7D100290AD0914202D10121C90756
:102FF00005E0914201D2012101E00121C943E00530
:10300000C018401900F05CF870BD420005D04200C5
:10301000120E52428A4201DB00207047C90508188F
:10302000704710B500229623114600F051F810BDEC
:1030300040004008C10D40020122400AD20580181C
:103040007F2901DA00207047962903DC9622511A65
:10305000C8407047963988407047C20FD207400079
:1030600040080ED0C10D0723DB01C9180905400235
:103070001143400A0022C30852071A434007114374
:103080007047002001467047CB0FDB07490010B5A1
:10309000490802460A4307D00A0D07240903E40140
:1030A000090B121B002A01DC002010BDC900440FCF
:1030B0000C43C100E018D205801800F001F810BDE3
:1030C000002904DA401C490001D140084000704743
:1030D00070B40024050C05D11024000402D100298D
:1030E00022D01124050E01D108340002050F01D1B0
:1030F000241D0001850F01D1A41C8000002801DBE4
:10310000641C4000002908D020252E1B0D46F540E8
:10311000A14000D001210D4328431B1B0106DB1DEC
:10312000000A002B02DA002070BC7047DB0518187B
:1031300080180029F8DA401C4900F5D170BC40081D
:1031400040007047064C0125064E05E02046E36826
:1031500007C82B4398471034B442F7D3FDF774F9EE
:10316000143C0020443C002003B40148019001BD00
:10317000B326030003B40148019001BD2F220200D1
:1031800003B40148019001BD0B91020003B4014852
:10319000019001BD3126030003B40148019001BD37
:1031A000551B020003B40148019001BD0F3B030011
:1031B00003B40148019001BDCF2B030003B40148C3
:1031C000019001BDCB2C030003B40148019001BD67
:1031D0000990020003B40148019001BD1F210200C3
:1031E00003B40148019001BDC12D030003B401489F
:1031F000019001BD0921030003B40148019001BD04
:10320000C92D030003B40148019001BD2B690200E0
:1032100003B40148019001BDEB31030003B4014840
:10322000019001BD3D32030003B40148019001BD8E
:10323000D721030003B40148019001BD5D80020065
:1032400003B40148019001BDA73A030003B401484B
:10325000019001BD913B030003B40148019001BD01
:103260002F2F030003B40148019001BD938F02008A
:1032700003B40148019001BDCD8C020003B40148A4
:10328000019001BD418F020003B40148019001BDCE
:103290002768020003B40148019001BD39680200AB
:1032A00003B40148019001BDB780020003B4014896
:1032B000019001BD213B030003B40148019001BD11
:1032C000BF22020003B40148019001BDEB260300B8
:1032D00003B40148019001BD3524030003B4014843
:1032E000019001BDDD20030003B40148019001BD40
:1032F000533B030003B40148019001BD9D2003002E
:1033000003B40148019001BD3350020003B40148E9
:10331000019001BD5548020003B40148019001BD70
:103320001F50020003B40148019001BDFD3D0300A0
:1033300003B40148019001BDA528030003B401486E
:10334000019001BDD5AF020003B40148019001BD59
:10335000A1A5020003B40148019001BDE3A502004C
:1033600003B40148019001BD87A8020003B40148DD
:10337000019001BDA7A9020003B40148019001BD5D
:1033800093AA020003B40148019001BD95AB02006D
:1033900003B40148019001BDF9AB020003B4014838
:1033A000019001BD69AC020003B40148019001BD68
:1033B00017AD020003B40148019001BD77AD0200D2
:1033C00003B40148019001BDF1AD020003B401480E
:1033D000019001BD85AE020003B40148019001BD1A
:1033E00011AF020003B40148019001BDB1230300F5
:1033F00003B40148019001BD49E5020003B401484E
:10340000019001BDF9E3020003B40148019001BD40
:10341000E123030003B40148019001BD4BCD02003C
:1034200003B40148019001BD99D1020003B40148E1
:10343000019001BDABD0020003B40148019001BD71
:1034400069D0020003B40148019001BD77CF0200AA
:1034500003B40148019001BD01CC020003B401484E
:10346000019001BD29CC020003B40148019001BDC7
:1034700015D2020003B40148019001BD8DD20200B3
:1034800003B40148019001BD7F0C030003B401485F
:10349000019001BDAB0C030003B40148019001BDD4
:1034A000773B030003B40148019001BD792003007C
:1034B00003B40148019001BD2129030003B4014870
:1034C000019001BDD990020003B40148019001BDF3
:1034D000C768020003B40148019001BD0D2C030030
:1034E00003B40148019001BDB9C7020003B401480B
:1034F000019001BD652C030003B40148019001BD9A
:10350000F793020003B40148019001BDDB2E0300D4
:1035100003B40148019001BD231D020003B401481A
:10352000019001BDC32C030003B40148019001BD0B
:103530004975020003B40148019001BD3B660200D9
:1035400003B40148019001BD2B66020003B4014899
:10355000019001BD038D020003B40148019001BD3B
:10356000CF8F020003B40148019001BDE3E30200E4
:1035700003B40148019001BD95E3020003B4014882
:10358000019001BD533B030003B40148019001BD0C
:103590008725030003B40148019001BDA59B0200EB
:1035A00003B40148019001BD0D24030003B4014898
:1035B000019001BD6D9B020003B40148019001BD63
:1035C000459F020003B40148019001BD7B9C0200AD
:1035D00003B40148019001BDB7E3020003B4014800
:1035E000019001BD2B9B020003B40148019001BD75
:1035F000F3AF020003B40148019001BDD1290300DB
:1036000003B40148019001BD2528030003B401481B
:10361000019001BDFD3A030003B40148019001BDD2
:10362000D33A030003B40148019001BD213B0300DC
:1036300003B40148019001BD453B030003B40148B8
:10364000019001BD8D3D0300FFB5174681B00546D1
:103650000C460A46012000210A9EFFF7EFFF2A01CF
:10366000FFF7ECFF0C4B1A685B68104019400843E9
:1036700001D1FCF7EFFE002E2146284602D000F0D3
:103680000DF801E000F02CF83A4621462846049B4C
:1036900000F048F805B0F0BD0080002070B5044689
:1036A0000D460A4601200021FFF7C8FF2201FFF75F
:1036B000C5FF094A1368526818401140084301D1F8
:1036C000FCF7C8FE032C00D1042404496001401813
:1036D0000121A940418070BD0080002000300050D1
:1036E00070B504460D460A4601200021FFF7A6FFEB
:1036F0002201FFF7A3FF094A1368526818401140DE
:10370000084301D1FCF7A6FE032C00D10424044990
:10371000600140180121A940818070BD0080002017
:1037200000300050F8B5164604460D460A461F46BE
:1037300001200021FFF782FF2201FFF77FFF0A4BE4
:103740001A685B6810401940084301D1FCF782FEFB
:10375000032C00D1042405496001401869000818B1
:103760003E43C680F8BD00000080002000300050BD
:10377000FEB50020234C03462822002142431219A3
:103780008D00491C53510A29FADB401C0428F3DB45
:10379000FDF7D4F91B480022083802604260164643
:1037A000002577000120A84081B21748C05B08427D
:1037B00023D0282070430019A9000191009040589F
:1037C000401C01D1FCF746FE0199009840580028A2
:1037D00010D0C1172A46FFF731FF3201FFF72EFF45
:1037E000084A083A1368526818431143054A083AD0
:1037F000106051606D1C0A2DD4DB761C042ECFDBCB
:10380000FEBD0000088000208E38002002E008C8BD
:10381000121F08C1002AFAD170477047002001E04A
:1038200001C1121F002AFBD17047000003494A88DA
:10383000521C4A808A88101888807047C0910020E6
:10384000FFFF00007905002002FC00007D920200CD
:1038500003FC000089920200E5050020BD13002052
:10386000A91400206715002095150020F9120020EA
:103870005D130020A11700200101000A04280A049A
:103880000203AA0055032A00A001FFFF2C01FF003C
:103890003F00FF03FF010000443B00205C3B002091
:1038A0002990002003000100A0FF060000A1FF16E0
:1038B0000000A2FF160000A3FF160000A4FF1600E0
:1038C00000A5FF160000A6FF160000A7FF160000C7
:1038D000A8FF160000A9FF160000AAFF160000AB03
:1038E000FF456E61626C652053747265616D446161
:1038F0007461204465766963650044617461000009
:103900000028010002000200A8380020032801005E
:1039100005000500AA380020A1FF090002000000F0
:10392000000000000229090202000000000000005F
:103930000129010018001800E138002003280100C7
:1039400005000500AF380020A2FF090214000000A6
:10395000000000000229090202000000000000002F
:103960000129010004000400FA38002003280100A6
:1039700005000500B4380020A3FF09021400000070
:1039800000000000022909020200000000000000FF
:103990000129010004000400FA3800200328010076
:1039A00005000500B9380020A4FF0902140000003A
:1039B00000000000022909020200000000000000CF
:1039C0000129010004000400FA3800200328010046
:1039D00005000500BE380020A5FF09021400000004
:1039E000000000000229090202000000000000009F
:1039F0000129010004000400FA3800200328010016
:103A000005000500C3380020A6FF090214000000CD
:103A1000000000000229090202000000000000006E
:103A20000129010004000400FA38002003280100E5
:103A300005000500C8380020A7FF09021400000097
:103A4000000000000229090202000000000000003E
:103A50000129010004000400FA38002003280100B5
:103A600005000500CD380020A8FF09021400000061
:103A7000000000000229090202000000000000000E
:103A80000129010004000400FA3800200328010085
:103A900005000500D2380020A9FF0902140000002B
:103AA00000000000022909020200000000000000DE
:103AB0000129010004000400FA3800200328010055
:103AC00005000500D7380020AAFF090214000000F5
:103AD00000000000022909020200000000000000AE
:103AE0000129010004000400FA3800200328010025
:103AF00005000500DC380020ABFF090214000000BF
:103B0000000000000229090202000000000000007D
:103B10000129010004000400FA38002005D000004B
:103B20009521002000D00000E521002001D00000F8
:103B3000A522002002D00000B32200200E30000099
:103B40006F2300201C3B002001000000243B0020CC
:103B5000010000002C3B00200300000000000000DA
:103B60000000000000000000F43B002064840020FE
:103B70000600010001340000352700200034000059
:103B80005927002000380000FB27002001380000E2
:103B9000DB270020033800002D28002000C800008B
:103BA00039280020103400005D2800201338000060
:103BB0001526002015380000672600201738000061
:103BC000A9260020193800001F27002001C8000086
:103BD000872A002009C80000A72A00200BC800007F
:103BE000F12A002006D00000292C002007D0000078
:103BF0004F2C0020743B002010000000070008003C
:103C000009000A000A000C000D000D000F000F0053
:103C100010001100683C00200080002068040000B3
:103C20001C380020683C002020900020C4010000C7
:103C30001C38002068070800F41108000C1E000062
:103C40001C38002040380020030000000000000065
:103C5000443C0020A4040800020001000800000009
:083C600001000000070006004E
:040000052000044192
:00000001FF
