:020000040000FA
:10000000708300004901000051010000950E0000BE
:1000100000000000000000000000000000000000E0
:10002000000000000000000000000000550100007A
:10003000000000000000000057010000590100000E
:100040005B0100005B0100005B0100005B01000040
:100050005B0100005B0100005B0100005B01000030
:10006000DF0D0000430B00005B0100005B0100009E
:100070005B0100005B0100005B0100005B01000010
:100080005B0100005B0100005B0100005B01000000
:100090005B0100005B0100005B0100005B010000F0
:1000A00000F002F800F040F80CA030C8083824181E
:1000B0002D18A246671EAB4654465D46AC4201D1A0
:1000C00000F032F87E460F3E0FCCB6460126334292
:1000D00000D0FB1AA246AB46334318477413000006
:1000E00094130000103A02D378C878C1FAD85207A6
:1000F00001D330C830C101D504680C6070470000DE
:100100000023002400250026103A01D378C1FBD833
:10011000520700D330C100D50B6070471FB5C046F1
:10012000C0461FBD10B510BD01F05DF81146FFF7C8
:10013000F5FF00F0E1FA01F075F803B4FFF7F2FF04
:1001400003BC01F079F800000748804707480047E2
:10015000FEE7FEE7FEE7FEE7FEE7FEE704480549A7
:10016000054A064B7047000081010000A100000015
:1001700070800000708300007081000070810000BA
:100180000348044908607047014802490860704705
:1001900000E1F5050480000008B5002002230322D9
:1001A00012020421009001F04EF8002001230246C3
:1001B0000521009001F047F80120002302021946B2
:1001C0000090184601F03FF801200023020201468A
:1001D0000090184601F037F80120002302020621A2
:1001E0000090184601F02FF801200023020201467A
:1001F000009001F028F801201023032212020221AE
:100200000090002001F01FF80120112303221202A8
:1002100003210090002001F016F80120172303228B
:10022000120206210090002001F00DF80120182391
:100230005A0107210090002001F005F80120192340
:10024000032212020021009000F0FDFF0120002394
:10025000032212020321009000F0F5FF08BD10B543
:10026000002005210907088008201649088005207C
:100270000007408A20218843203005210907488251
:100280000846408A8021884380300521090748823A
:100290000846008A0221884305210907088208468A
:1002A000008A0221884305210907088200BF052032
:1002B0000007808A08210842F9D000F041F8FFF7D2
:1002C0006BFF10BD003300500122920302430A432A
:1002D000194B1A8001229203024301231A430A4355
:1002E000154B1A800B225A807047134909880F2238
:1002F000920191430207920D11430F4A11807047FA
:1003000000200D49088070470C490B4800880222E4
:100310009043801C084A108000BF0846491E0028F0
:1003200004D00548008802221042F6D10020024A7B
:10033000108110464089704700150050A0860100CA
:100340000520000780888021884380300521090727
:10035000888080203C49888100208880092008808E
:10036000032088810846008A402188433649088254
:100370000120088108468088400840008880704736
:1003800000BF3149898A20221142FAD0C1B22E4AD7
:100390001180704700B5034603E01878FFF7F0FFBF
:1003A0005B1C18780028F8D100BD00B527A0FFF726
:1003B000F1FF2BA0FFF7EEFF2EA0FFF7EBFF31A020
:1003C000FFF7E8FF00BD00BF1F48808AC007C00FCD
:1003D000FAD01D480088C0B2704710B50446F0201E
:1003E000204003110A2B01DA302000E03720C0182A
:1003F000C3B21846FFF7C4FF23071B0F0A2B01DA0D
:10040000302000E03720C018C3B21846FFF7B8FF0D
:1004100010BD10B504462104080EFFF7DEFFE0B260
:10042000FFF7DBFF10BD10B50446200EFFF7D5FF28
:100430002102080EFFF7D1FF2104080EFFF7CDFFC0
:10044000E0B2FFF7CAFF10BD001000500A0D0A0D00
:100450002A2A2A2A2A2A2A2A2A2A2A2A2A0000007A
:100460000A0D2A20554152542054455354202A0A3B
:100470000D0000002A2A2A2A2A2A2A2A2A2A2A2A77
:100480002A0A0D000A0D48656C6C6F20576F726C5C
:100490006421203D3D2055415254207072696E7494
:1004A000665F737472696E672829203D3D2E0A0DC0
:1004B00000000000F8B504465348048053488442C5
:1004C00001DD64254DE05148844215DC63200001C4
:1004D000844211DD0146601A00F07AFE4C4900901A
:1004E00000F08AFD07464B4900F03AFF064600F04F
:1004F00033FE1C30C5B234E063200001844215DCB9
:1005000055200001844211DD0146601A00F060FEB2
:100510004149009000F070FD0746404900F020FF7F
:10052000064600F019FE001DC5B21AE05520000174
:10053000844215DC47200001844211DD0146601A27
:1005400000F046FE3449009000F056FD0746812138
:10055000C90500F005FF064600F0FEFDC5B200E04B
:1005600000252846F8BD70B504462D4884420ADBB4
:100570000146611A6422514308464721C90000F030
:1005800095FCC5B200E00025284670BD70B5064652
:10059000012189024800FFF797FE0720FFF7A5FE1B
:1005A000FFF7B2FE84B200210120C002FFF78CFEEB
:1005B0000720FFF79AFEFFF7A7FE001984B2FFF7A6
:1005C0009FFE2411240117480078002802D1FF2043
:1005D0001449087013480078854201DD11480578F8
:1005E000012E02D0022E0AD104E02046FFF762FF5E
:1005F000054606E02046FFF7B6FF054601E0002568
:1006000000BF00BF284670BD08800000A90600009A
:100610000000F24200009042000060430000C04130
:10062000710400007083000010B547A0FFF7B2FE10
:100630004BA0FFF7AFFE50A0FFF7ACFE53A0FFF7B3
:10064000A9FE58A0FFF7A6FE0120FFF79FFF044672
:10065000FFF7C3FE5DA0FFF79DFE10BD10B55DA0C6
:10066000FFF798FE10BD10B55FA0FFF793FE69A0DD
:10067000FFF790FE5CA0FFF78DFE70A0FFF78AFEEB
:1006800076A0FFF787FE83A0FFF784FE8EA0FFF71A
:1006900081FE95A0FFF77EFE9CA0FFF77BFEA5A044
:1006A000FFF778FEA9A0FFF775FEFFF7D7FF10BD93
:1006B00070B505460026A8A0FFF76CFE14E0012ED9
:1006C00000D112E0FFF77FFE04466D2C02D0782C9B
:1006D00008D103E0FFF7C7FF012604E001202880CE
:1006E000012600E000BF00BFE9E700BF70BD10B504
:1006F000A8A0FFF74FFE10BD08B50025FFF7AFFD1E
:10070000A9A0FFF747FEB2A0FFF744FEB8A0FFF78D
:1007100041FEBEA0FFF73EFEC8A0FFF73BFED3A000
:10072000FFF738FE09E0012D00D107E0FFF74BFE8F
:1007300000906C462078FFF723FEF4E700BFD8A0B6
:10074000FFF728FE00BFFEE70A0D0A0D2A2A2A2A13
:100750002A2A2A2A2A2A2A2A2A2A2A2A00000000A1
:100760000A0D2A20424154544552592054455354AD
:10077000202A0A0D000000002A2A2A2A2A2A2A2AC8
:100780002A2A2A2A2A2A2A2A0A0D00000A0D426148
:10079000747465727920747970653A2043523230EE
:1007A000333200000A0D43757272656E7420626107
:1007B0007474657279206C6576656C20286D61783B
:1007C0002E3078464625293A2030780025206C6561
:1007D000667400000A0D4D616B6520612063686FCF
:1007E000696365203A2000000A0D3D3D3D3D3D3DD9
:1007F0003D3D3D3D3D3D3D3D3D3D3D3D3D3D3D3D29
:100800003D3D3D3D3D3D3D3D3D3D3D3D3D3D0A0D7B
:10081000000000003D20444131343538302050651F
:10082000726970686572616C204578616D706C6585
:1008300073204D656E75203D0A0D0000752E205504
:10084000415254205072696E7420537472696E67FD
:10085000204578616D706C650A0D0000662E2028B9
:1008600064697361626C656420696E207468697381
:10087000206275696C64292053504920466C61736D
:1008800068204D656D6F7279204578616D706C657B
:100890000A0D0000652E202864697361626C65642E
:1008A00020696E2074686973206275696C64292000
:1008B00049324320454550524F4D204578616D7077
:1008C0006C650A0D00000000712E20517561647284
:1008D000617475726520456E636F6465722045783A
:1008E000616D706C650A0D00742E2054696D65721F
:1008F00030202850574D302C2050574D312920455D
:1009000078616D706C650A0D00000000702E205437
:10091000696D657232202850574D322C2050574D4A
:10092000332C2050574D3429204578616D706C650B
:100930000A0D0000622E20426174746572792045B0
:1009400078616D706C650A0D00000000782E2045FE
:100950007869740A0D0A0D000A0D0A0D507265734C
:1009600073206D20666F72205065726970686572C1
:10097000616C204578616D706C6573204D656E7596
:10098000206F72207820746F2065786974203A2077
:10099000000000000A0D2020456E64206F66207460
:1009A00065737473200A0D000A0D494E464F525F5D
:1009B0004C494E4B2044413134353830444B20555E
:1009C000415254204578616D706C65730A0D0000CA
:1009D0002D2D2D2D2D2D2D2D2D2D2D2D2D2D2D2D47
:1009E0002D2D2D2D2D2D2D2D2D2D2D0A0D00000001
:1009F0004265666F72652072756E6E696E672074EF
:100A000068652074657374733A0A0D004D616B65F7
:100A1000207375726520796F752068617665206333
:100A20006F6E6E656374656420746865205541520D
:100A30005420746F2050430A0D0000005468652054
:100A400044413134353830444B2077696C6C206F29
:100A5000757420707574207768617420796F7520C3
:100A60006B657920696E0A0D00000000506C6561AD
:100A70007365206B657920696E20746865206368F2
:100A8000617261637465727320796F752077616E2E
:100A90007420746F2073656E64206E0D000000007A
:100AA0000A0D20456E64206F662074657374730AA6
:100AB0000D00000010B5002819DAA34A03071B0F28
:100AC000083B9B089B00D2588307DC0EFF23A34002
:100AD0009A438B071B0E8407E40EA3401A439A4BDC
:100AE0000407240F083CA408A4001A5118E0974AF0
:100AF00003231B02D21883089B00D2588307DC0E05
:100B0000FF23A3409A438B071B0E8407E40EA340E8
:100B10001A438E4B032424021B198408A4001A5183
:100B200010BD8B480078002808D1092001218140A0
:100B3000864A8032116000BF002070470020C04309
:100B4000FBE7FEB50026052000070088302188431A
:100B50000521090708800846008880088000088071
:100B6000084680880121C9030840C01313D0794882
:100B700000880421084080100DD0022675480088A6
:100B800002218843801C7349088008460088400879
:100B90004000088010E005200007808810210840F0
:100BA000001109D0012601206B4988800846008881
:100BB0008021884368490880022E19D1674800685F
:100BC00000281ED000BF6348408800B2074600BF1F
:100BD0006048808800B2019000BF5E48408900B242
:100BE00000905E4805683846009A0199A84708E0D9
:100BF000012E06D15A480068002802D058480468DF
:100C0000A047FEBDFFB581B004460D46164605203F
:100C1000000780881021884310300521090788804B
:100C200000204D490881F0B24880002010E0C20049
:100C30002146D140CFB24100474A89184F81C200B6
:100C40002946D140CFB24100434A89184F82401C07
:100C50000428ECDB4048C0890321090288432104B1
:100C6000890F090208433C49C8810846C08A03210C
:100C7000090288432904890F090208433649C882BA
:100C800001208880092000F057F804988006800E23
:100C9000802108433049088001210920FFF70AFF1D
:100CA0002B48007840084000401C29490870092062
:100CB00000F03BF805B0F0BD00B5254800784008CD
:100CC0004000234908700120234988800846008895
:100CD0008021884320490880FFF723FF00BD1F497A
:100CE000086070470521090789880122D2039143D2
:100CF00089180522120791800178427811434288B1
:100D00001143144A11818188D180704710B50020A9
:100D10001049088105200007808889018843052142
:100D20000907888000F0D4FA10BDC206D20E012156
:100D30009140064A11607047C206D20E01219140CF
:100D4000084A1160704700001CED00E000E100E07F
:100D50007483000000020050000100507C830000FA
:100D60007883000080E200E070B504460D46164628
:100D70004348006808218843E900082211400843DD
:100D80003F4908600846006804218843B1000422F6
:100D9000114008433A490860084600680221884328
:100DA000610002221140084335490860FE210820F5
:100DB00000F02FF870BD334B58809980DA8070476F
:100DC000082001218140304A116000BF704708208F
:100DD000012181402C4A8032116000BF704710B55C
:100DE0002A480068002802D028480068804710BDC3
:100DF00070B506460C461546012000F083FA3046D1
:100E000000F08CFA204600F09DFA284600F094FA93
:100E100070BD10B5002819DA1D4A03071B0F083BE7
:100E20009B089B00D2588307DC0EFF23A3409A4304
:100E30008B071B0E8407E40EA3401A43144B0407D0
:100E4000240F083CA408A4001A5118E00E4A0323FA
:100E50001B02D21883089B00D2588307DC0EFF23A5
:100E6000A3409A438B071B0E8407E40EA3401A434A
:100E7000054B032424021B198408A4001A5110BD39
:100E8000003400500034005000E100E00C8000000D
:100E90001CED00E000BFFEE7002203098B422CD3CB
:100EA000030A8B4211D300239C464EE003460B43BA
:100EB0003CD4002243088B4231D303098B421CD31C
:100EC000030A8B4201D394463FE0C3098B4201D30E
:100ED000CB01C01A524183098B4201D38B01C01A46
:100EE000524143098B4201D34B01C01A52410309BD
:100EF0008B4201D30B01C01A5241C3088B4201D36C
:100F0000CB00C01A524183088B4201D38B00C01A18
:100F1000524143088B4201D34B00C01A5241411A3F
:100F200000D201465241104670475DE0CA0F00D022
:100F30004942031000D34042534000229C4603091B
:100F40008B422DD3030A8B4212D3FC22890112BAA1
:100F5000030A8B420CD3890192118B4208D3890179
:100F600092118B4204D389013AD0921100E0890991
:100F7000C3098B4201D3CB01C01A524183098B4272
:100F800001D38B01C01A524143098B4201D34B015B
:100F9000C01A524103098B4201D30B01C01A5241BE
:100FA000C3088B4201D3CB00C01A524183088B4245
:100FB00001D38B00C01A5241D9D243088B4201D3CE
:100FC0004B00C01A5241411A00D2014663465241B9
:100FD0005B10104601D34042002B00D549427047B8
:100FE00063465B1000D3404201B50020C046C046B6
:100FF00002BD70477047704770B5FF242404C609CE
:10100000FF25264001352E43C209CB090546224063
:1010100023404D40002A6BD0002B69D0A24267D0FC
:10102000A34265D0002D00DA32460124E4052143B5
:10103000204309020002090AD21A000A4B0C7F243D
:10104000E31A434C7C44E35C7D24240412191414F9
:101050005B00A218884201D3521C00E040004942C4
:101060000C465C4324115C43DB016415E318040A5D
:101070005C43C502200D0C4644436419250A5D43B8
:101080002303EC0C0D46654300030019EB184C429A
:10109000A34201D35B18401CD4052018002B07D0B5
:1010A0005B00C91804D3401C002901D1400840004E
:1010B0003F2189048A4209D3002A08DC1106090F5E
:1010C00004D0032149074018C00FC00770BD01229A
:1010D0004100120689187F2252069142F6D205215C
:1010E0004907401801D5901070BDFF20C00570BDA4
:1010F000002D00DA3246174EA24207D2A34205D293
:101100001802000E17D0E80FC00770BDFF2443007F
:101110002406A34216D84900A14213D8A34201D104
:10112000A1420FD0A14201D1002101E041004908B4
:10113000D005084370BD1002000E03D0FF2002430B
:10114000D00570BD304670BD48404140484053E72F
:10115000C80300000000C07F01460002CA1504D089
:101160000123DB071843002A09DB9E239A1A01D4C6
:10117000D0407047FF2248001206904201D900205B
:101180007047C817C04370471F22030C02D10F22BB
:1011900000041CD0030E01D1083A0002030F01D154
:1011A000121F0001830F01D1921E8000002801DB75
:1011B000521E4000D20551180212511819229040B7
:1011C00004D3491C002801D149084900084670474A
:1011D000C10FC90700D04042012292071143D3E753
:1011E00001218907D0E7754600F022F8AE460500D8
:1011F00069465346C008C000854618B020B5FEF7C2
:10120000ADFF60BC00274908B6460026C0C5C0C572
:10121000C0C5C0C5C0C5C0C5C0C5C0C5403D4900EA
:101220008D4670470446C046C0462046FEF785FFFF
:10123000004870471080000001491820ABBEFEE74F
:10124000260002007047FFB581B004460D461646E1
:101250000A9F002F04D02946204600F00DF803E035
:101260002946204600F016F8324629462046049BBF
:1012700000F01EF805B0F0BD30B5032800D1042001
:101280004401034D63199A1C01248C40148030BD25
:101290000030005030B5032800D104204401034D34
:1012A00063191A1D01248C40148030BD0030005099
:1012B000F0B5032800D104204601044FF5194E0073
:1012C000AF1DF41916461E432680F0BD00300050B5
:1012D00000B50A4800780221884308490870084888
:1012E000008802218843801C054908800846008840
:1012F000400840000880FFF714FC00BD7483000024
:10130000000200500449096849084900C207D20F89
:101310001143014A116070471034005005490968B3
:1013200004229143820004231A401143014A1160B0
:1013300070470000103400500149C8817047000018
:1013400000340050054909680222914342000223FB
:101350001A401143014A11607047000010340050D8
:1013600070B5420064414B005C41120E39D01B0E37
:1013700038D0FF2A3CD0FF2B3AD040024902400A25
:10138000490A060045184E43000A090AD218484384
:10139000ED017F3A0104731A4019190C4318990F93
:1013A00004D001215B0849075B1A521CD80904D3F9
:1013B000401CF50301D19D0607D0FF2A08D2D505B0
:1013C00006D0E4072043401970BD0125A843F4E787
:1013D000002A01DCE00770BD2402FF202043C00585
:1013E00070BD1B0EFF2A03D0FF2B01D0E00770BD9C
:1013F000FF2645003606B54206D84D00B54203D853
:10140000D218FF2A00D0E7E7004870BD0000C07F77
:101410008182838485868788898B8C8D8E8F91923B
:1014200093959697999A9C9D9FA0A2A3A5A7A8AAD9
:10143000ACAEB0B2B3B5B7B9BCBEC0C2C5C7C9CCFB
:10144000CED1D4D7D9DCDFE2E6E9ECF0F3F7FAFE4F
:10145000701400000080000010000000E400000094
:1014600080140000108000007003000000010000E4
:1014700000E1F50500E1F5050000000000000000B6
:04000005000000A156
:00000001FF
