:020000042000DA
:1000000000980020AD040020B5040020CD0400209D
:1000100000000000000000000000000000000000E0
:10002000000000000000000000000000E5040020C7
:100030000000000000000000FD040020FF0400207C
:10004000291D0020053103000D3103001531030087
:10005000D31D00208D3103001D1E0020251E002011
:1000600001050020010500203D1E0020AD310300E8
:1000700057810200091200204B1B02004B1B02009B
:100080004B1B02004B1B02004B1B02004B1B0200D0
:100090004B1B02004B1B0200010500204B1B020002
:020000042000DA
:100160003200000021060020890E00202D09002009
:10017000000000000000000063800200BD8002005B
:10018000E30C0020FB80020019810200358102008F
:100190005D810200A51D002007060020B70C00208D
:1001A000CD0C002000000000000000003F00000017
:1001B000F48B002000040000740B080048010000CC
:1001C0006807080000040000C80C080020050000B3
:1001D000000000002000000048000000580000005F
:1001E0006800000004010000160100002801000062
:1001F0002E010000202A00008E2E000001000000C9
:1002000088130000130F0020E9600200FD93020034
:10021000EB12002019280300A574020039190020F0
:1002200003000000D52002002D090020040000007A
:10023000D74902000F490200831D020063910200AA
:10024000B7910200BF910200078202007182020092
:10025000142D0020AD83020093840200418502002A
:1002600015860200378602005F860200758602004E
:10027000F9870200258902005D8A0200D38C020002
:10028000098D02000F900200438D0200278E0200AC
:10029000F98E0200478F0200998F0200D58F02006D
:1002A00049510200775102002F5202001000000055
:1002B00020030000803E000000000000000000005D
:020000042000DA
:1002C000504600030003983A6400F401B80B000C98
:1002D000B80B120030003000CD009A01120024004B
:1002E00030006400B0001800280012001200D0078F
:1002F0000000FFFF00000000000000000000000000
:100300001F000002444131343538302D30310000B7
:1003100000000000000000000000000000000000DD
:0403200000000000D9
:020000042000DA
:10034000FFFF010000C201000000000000000000EB
:100350000000F4010100011B070A1AFFD200021578
:10036000585CDE931B0142CC9A1325009BEDC65EC0
:1003700000000000C5000000000009FF00605257A7
:100380002D424C450000000000000000000000006D
:1003900000000000000000000000494E464F525F80
:1003A0004C494E4B0000000000000000000000001F
:1003B000000000000000000000000000000000003D
:1003C000000000000000000000000000000000002D
:1003D0000000000000000000010000CAEA80D00711
:0403E00006D06432AD
:020000042000DA
:100440000348854602F0CAF900480047C720020069
:100450000098002000BE000010B5114988683E22B7
:1004600090432E3088600F4906200880FF200E49F7
:10047000013008600021052000070180028A0F2357
:100480001B021A4302820122D204032308461B03E3
:1004900084182160001D9842FADB62B610BD00008E
:1004A000003300500034005080E100E015488047E0
:1004B0001548004704207146084203D0EFF3098035
:1004C00012490847EFF30880104908470420714695
:1004D000084203D0EFF309800D490847EFF3088085
:1004E0000B49084704207146084203D0EFF3098006
:1004F00008490847EFF3088006490847FEE7FEE78A
:10050000FEE700005904002041040020110A0020E9
:10051000190500208F05002010B505221207518A09
:10052000802319435182124903680B6043684B6072
:1005300083688B60C368CB6003690B6143694B615F
:1005400083698B61C069C8610A48836A0B62C36AA8
:100550004B62036B8B62C36BCB62436B0B63806B31
:100560004863908A800602D5FFF774FF10BDFEE74E
:100570000018080000ED00E080688968401AC8494A
:1005800080B2884201D901207047002070478169FC
:100590002039897F082904D2C24A890051588161D3
:1005A0007047FEE7C148C0490161C1494161C14985
:1005B0008161C149C161C1490162C1494162C14909
:1005C0008162C149C162C1490163C1494163C149F5
:1005D0008163C149C163BF49B4485C3140300160A7
:1005E000BE494160BE498160BE49C1600120BE492B
:1005F000C0060860BD49CA691202120ACA61BA4936
:1006000080390860704710B5B9490020086000F0D3
:1006100007FB01208007016B49004908016310BDF9
:100620001CB5B44801240470B3490820088002F0C6
:10063000E7F802F001FB00F035FAB04801780170EC
:10064000AF4801780170012002F0E0F827020D2088
:100650003946800102F0E0F801F080FA00F07EFBFC
:1006600000F036FAA74D28894009400128812889E1
:100670000F2189028843691440182881A2486882A2
:100680002620A8820720E882A04828836C836888F7
:100690001E21884314306880042000F0F9F80720F8
:1006A00000F0F6F80A2000F0F3F8062000F0F0F869
:1006B0000B2000F0EDF8012000F0EAF8022000F035
:1006C000E7F8002000F0E4F89148006802F0AAF88A
:1006D000A00701683943016000F02AF98D4E3068A7
:1006E000AA2805D1142000F061FA142000F06CFA59
:1006F00001F0DCFBFFF787FFA22005242407E0823E
:1007000080484188E0229143A03141808248006BBB
:10071000007800280BD0002002F08AF802F08EF852
:10072000022806D002F08AF8012802D00BE001204E
:10073000F2E7714908200880A08A800603D5608A04
:10074000802108436082022604252089000622D5E4
:1007500001208007006B00041DD402F075F8C0076B
:1007600019D1042002F076F8019002F079F801988E
:10077000002810D00020019066480068AA2802D105
:10078000142000F021FA042101A802F06FF80028DB
:1007900001D000F05AFA72B65E480068AA2801D16A
:1007A00000F03EFA01F002FA69460870042806D00B
:1007B00002280CD003280AD0012866D066E05748EA
:1007C0000078012802D00320087000E00E70208A13
:1007D0002843208250484038C0690128087811D940
:1007E000032849D102F048F8002845D002F04AF821
:1007F000002841D0032002F04BF800283CD04848A4
:10080000067008E0032837D102F042F8002833D000
:100810004349012008703548016929430161618A13
:10082000202291436182218A3143218269460978DD
:100830000229618A22D0294361827F21228889018D
:1008400080231A4322800022521CD2B20A2AFBD3F0
:10085000628A10231A436282324A491E51612188FA
:1008600080229143218027494A88BA434A8030BF79
:100870000169A943016109E06846C1E72943618232
:10088000618A102291436182EDE730BF62B65CE776
:10089000C106C90E01208840234908607047000046
:1008A00030750000F42C00209427030000840040E1
:1008B00062B600DF28A30200704701DF1CCA0200F5
:1008C000F8BD02DF40CB0200F5E703DF84D402006D
:1008D00004DF89B0BC330200F8BD05DFF8BD06DFD8
:1008E000EC0C030070BD07DF80E100E000ED00E0EC
:1008F0008C03080000800020003300500000080036
:10090000202A0800200000504E02000077770000E7
:10091000049000200C8000202002002054020800D7
:10092000C40608000080004080E200E0704700003C
:1009300033480178002902D0802141707047314945
:10094000002008703049C87070472D480178002990
:1009500002D08121417070472A49012008702A493C
:10096000C870704726480178002902D08221417062
:10097000704724490220087023490120C87070473D
:100980001F488178002904D0491E0906090E81708C
:1009900017D142780021002A04D09207920F0270EA
:1009A000417004E00278002A01D0521E0270120643
:1009B000120E017005D0012A02D0022A01D1D1E71E
:1009C000C3E7704710B50E4CA078401CA07020788B
:1009D000002805D101F032FF421CFFF7A9FF227069
:1009E00010BD07490120C870704705490020C87034
:1009F00070470348C078704704480078704700008B
:100A00000180002054020800C60608002280002051
:100A100010B505221207118A042319431182118A85
:100A20000223194311821189402319431181184B64
:100A300001211960174B08211980518A802319431D
:100A40005182154903680B6143684B6183688B6170
:100A5000C368CB6103690B6243694B6283698B6234
:100A6000C069C8620D48836A0B63C36A4B63036B3A
:100A70008B63C36BCB63436B074940310B60806B67
:100A80004860908A800602D5FFF7E4FC10BDFEE7BF
:100A900080E200E0003300504018080000ED00E064
:100AA0007047704710B505242407208A0221884327
:100AB0002082A08A0007FCD5FFF774FD608A202100
:100AC0000843608210BD00009349002048607047D1
:100AD00070B50521090708893022904308810889EB
:100AE000802210430881088980088000401C08810A
:100AF000088908231843088188480488144304801F
:100B00004C8A9C434C820D89402425430D810D8ADB
:100B10000426B5430D828D8AAD07FCD57E4E002597
:100B2000756005880126354305804589AE057C4DF5
:100B3000068801D52E4300E0AE430680058878265E
:100B4000B5432835058005880626354305804D8A3E
:100B50001D434D820388934303800A89A2430A817F
:100B60004089800503D56D490520603188800120CA
:100B7000800701688215914301606A4801683F223D
:100B80005202914342148918016001680203114323
:100B9000016070BD032064490002888108224A80F8
:100BA0000020401C9628FCD38A8070475F4948800B
:100BB0000888032210430880088804221043088014
:100BC000554901200870704770B5534C21780029B1
:100BD00025D056490A885207FCD4CA88898812044D
:100BE0005118534A504301F059FE00212170A06072
:100BF00001F063FD054601464E4801F012FD0A2151
:100C000001F04FFD01F060FDE060284601F071FD4C
:100C1000494A4A4B01F048FE01F082FD206170BD57
:100C200010B53D484168AA290CD07C2044490818D9
:100C300084B24449204601F031FE081980B201F027
:100C400039FE10BDC068000AF0E710B53E4801212A
:100C5000C163C16B0029FCD101208007C1693B48F9
:100C60000268914201D20022026019238A1ADB0134
:100C70009A4212D3016001F023FE354A118888425E
:100C800001D9411A00E0091A89B2182905D3108048
:100C9000012001F01BFE01F01FFE10BD10B51E4922
:100CA000896848432B4901F0F9FD10BD1A49C9680C
:100CB0004843800A704710B517494968002902D097
:100CC000FFF7ECFF10BD01F00DFE10BD10B512498D
:100CD0004968002902D0FFF7E9FF10BD01F008FEC6
:100CE00010BD10B51C4A012051694906C90F10D02A
:100CF00051698906C90F0CD000211161FF235F33B0
:100D0000491C9942FCD35169C907C90F02D001F0AF
:100D1000F5FD002010BD00000880002020000050DC
:100D2000001000000002004020300050001600506B
:100D30000024F400002474497B14AE47E17A443F58
:100D40000112000071020000C00000407C04080095
:100D50007804080040420F000010005030B59C4A53
:100D60009C49D005048880231C4304809A4C6589E3
:100D70002D0701D4521EFAD2984C01222260984CC1
:100D80000A882280974A4988118001889943018006
:100D900030BD002070477047704770470020704793
:100DA00001218907086B07221043086370477047C9
:100DB00010B58E498C4808608D494C2008808C4BBA
:100DC0008C4A203B1A828D498B4848808D488C493B
:100DD00001808B4919314180222141818121890083
:100DE00001828949418289490183874911314183BF
:100DF00084498748203188804121864809018180C3
:100E00008549C180844C1034C48101824182891C8F
:100E10008182611FC182FF21463101837F49418365
:100E20007F49592008807E487E4C2030048043242E
:100E300044807D4C4C82D5218180FF21D3310181BA
:100E40007A4941817A4981817B497A48088068489A
:100E50007A4960384180C18810242143C18071499A
:100E60000A390181624C7649403C61805A820821EE
:100E700041815C486A490088403908825848714974
:100E80000088088010BD704700B58BB06E4A426282
:100E90006E4A82626E4A42616E4AC2626E4A026065
:100EA0006E4A02626E4A42606E4AC2614F4A4E48C2
:100EB000002110604D484038026B03129A430263D0
:100EC000426B1F231B049A4303231B04D218426363
:100ED00065480368C21293430360026803139A4390
:100EE000026068464154491CC9B22829FAD3014618
:100EF00028225E4801F008FDFFF75AFF01F0E0FCF0
:100F00005B490880002001F0E1FC01F0E5FC0BB03A
:100F100000BD10B5354A0F2133480902106033482F
:100F20004038426B1F231B049A4303231B04D2182F
:100F3000426300060268D208D20002600520000762
:100F4000028992089200521C0281028908231A43E6
:100F50000281028A0A4302821F4801894909490124
:100F6000018101890F229202914342148918018163
:100F7000294920314182262181820721C1822D49C0
:100F8000DC3901830121418341881E2291431431C0
:100F9000418038490968002907D14189890504D56C
:100FA00001887822914308310180FFF701FF324820
:100FB000006B0078002808D0304800880C49603960
:100FC000C880002001F034FC10BD0120FAE70000C9
:100FD000A0860100087F040020000050008000402F
:100FE000560208004A0308004C05540780000040E0
:100FF000602C00507F7F0000AC29000000220050D0
:1010000009090000002400502204000030D0000034
:10101000EE110000002500502E02000044200000C8
:10102000402800500D95000002420000E4DC000062
:101030001092000053780000002A00508B1000002E
:101040009DD5000000260050930D0020970D002034
:101050009D0D0020A10D0020990D0020AF0D002056
:101060009B0D0020870E0020000200402000080099
:10107000780408000C8000202002002052040800A0
:1010800030B4704C6F497048603408E043681A7897
:101090005B1C0A6002684360521E026005D0A28B8E
:1010A0009207D20FF2D130BC7047002242604B68E9
:1010B0000224A3434B6081680029F4D0826030BCD5
:1010C0000020084730B55F4A93898024A343938169
:1010D000072313810023938095892543958193806D
:1010E0009380108091819089A04390815749A001FD
:1010F0000860574A1168FF242402A1434400214399
:101100001160524980390860524908604E480376A0
:101110000361C3604360036030BDD3E749492220C7
:10112000086170474749222008617047454A0120FD
:1011300051694906C90F10D051698906C90F0CD0F1
:1011400000211161FF235F33491C9942FCD351698F
:10115000C907C90F02D02220106100207047E5E7BF
:101160003848A021016141698906C90FFBD0416956
:101170004906C90FF7D07047F2E7334B5A61D9607F
:1011800018613048012142688A430A43426070472F
:10119000F3E710B52C4CA26021606060FFF770FF90
:1011A0006068002805D02749486802229043104310
:1011B000486010BDEDE710B5224881680907090FA6
:1011C00001291AD002291CD0042917D00C2914D1C6
:1011D0001D4A117E012910D141690906C90F0CD0A1
:1011E0000021D160116183885B085B0083805369B3
:1011F000002B02D001205161984710BD00F005F886
:1012000010BDFFF73DFF10BDD5E70F490D4808E0C1
:1012100002680B691A705B1CCA680B61521ECA60B7
:1012200004D04269D207D20FF2D1704700220A617E
:1012300043685B085B0043604B69002BF5D00020DE
:101240004A61184700110050D42D002080E100E0D1
:101250000CE400E080E200E070B5EFF310850120BF
:1012600080F31088264801F055FB0446002D1DD060
:10127000012080F31088002C23D020462038C08B1A
:10128000204988421DD16189208901F049FB050070
:101290000ED021461031A38962892089A8470028F1
:1012A00006D001280DD002280BD105E00020E0E790
:1012B000204601F03BFB04E0114821460C3001F0D0
:1012C0003BFBEFF31084012080F310880C4800688A
:1012D000002802D1012001F035FB002C03D00120B1
:1012E00080F3108870BD0020FAE710B5BC210648D5
:1012F00001F02EFB0549012001F030FB10BD00007C
:10130000A8050800388300000406080059120020D0
:10131000F8B50D46064681002B48EA884458521C11
:1013200020686B89018F294F51430091014640315C
:101330004A89C989511A8AB2991A89B2B94214D212
:101340009A4212D0294601F00FFB2D8920490098BE
:1013500001F0A4FA2818801C4034E0823002401CBE
:1013600080B2042101F006FBF8BD2821304601F0CF
:1013700007FBF8BDF8B50546870013480C46C05971
:10138000C9880068114E024640325389D2899A1AA0
:1013900092B28B1A9BB2B34211D20B4E8A420ED03C
:1013A00001F0F4FAF0590522611C5F3001F0ACFA4B
:1013B0002802401C80B2052101F0DCFAF8BD28218A
:1013C000284601F0DDFAF8BD4C030800FF7F00005D
:1013D0001027000070B516460D46104601F0DCFAE5
:1013E000002869D0340A304601F0D6FA012812D01C
:1013F000A87A1E2811D029460A310E2845D019DCBA
:10140000801E030001F0CEFA0B255829582D5831C3
:101410005839583D5800022070BD3146274801F028
:10142000C7FA0021204601F0C9FA0221304601F036
:10143000A1FA41E018283CD006DC102819D0122867
:101440002BD0162838D130E0522822D0D22833D1E0
:1014500027E0204601F0B8FA2EE0204601F0BAFA63
:101460002AE0204601F0BCFA26E0204601F0BEFA50
:1014700022E0204601F0C0FA1EE0204601F0C2FA48
:101480001AE0204601F0C4FA16E0204601F0C6FA40
:1014900012E0204601F0C8FA0EE0204601F0CAFA38
:1014A0000AE0204601F0CCFA06E0204601F0CEFA30
:1014B00002E0204601F0D0FA002070BD01280000B3
:1014C000F3B581B001980C460102CA1D0E3102230A
:1014D000344801F0C7FA04700199054602273248E2
:1014E0008E00002C06D0042C16D0062C10D0072C11
:1014F0003FD108E0815905224968897C1140697013
:101500008059C77335E0084601F0B2FA687030E0E0
:1015100080590F21C1732CE0044680594068417CFA
:10152000012902D1007E01280FD0019801F0A6FA0E
:1015300001210028A0590BD04268D07D00281CD082
:1015400001281AD004280DD00FE0002068700DE0AB
:101550004068C27D022A01D0042A06D1007C0228FC
:101560000BD102E0107C022807D06F70A159032034
:10157000C873284601F088FAFEBD6970F6E7014697
:101580000A780120042A01D9002070474A78002AED
:1015900001D0012AF8D10A79082AF5D84979082911
:1015A000F2D87047021C000028050800FFB589B07A
:1015B0000D4600206946059008720B98000A0090BD
:1015C00001F05CFA07460B9801F0E6F900287DD09F
:1015D0000B982978000A8400764E01295ED00429F0
:1015E00004D0062943D0072963D120E06878002879
:1015F0001BD0305910224068A91C01F085F9002F3A
:1016000006D03159C87B032807D0042808D050E001
:101610003059C07B032803D04BE00B20C87348E04F
:101620000521009801F036FA43E00120B6E0305978
:10163000C07B0E283DD1009801F01AFA002103E08A
:101640002A18401C9170C0B21028F9D3688A6946E4
:101650000883294606A808221431023001F054F903
:1016600006ABAA1C3946009801F01AFA21E030595D
:10167000C07B0F281DD1AA1C0A21009801F016FA80
:10168000002F04D03946009801F016FA11E000232B
:101690001A463946009801F015FA0AE0012F08D1E0
:1016A0000B9801F079F901281CD0002801D0022004
:1016B00005906846007A002811D002AA05210098FA
:1016C00001F0F4F96846027A602000E007E0024386
:1016D0006846027201233946009801F0F3F9059833
:1016E0000DB0F0BD3059C07B0228E2D168780028E7
:1016F00051D002210B9801F03DF930590722406882
:10170000A91C173001F000F9E878002804D13059FD
:101710004068407C01283AD0009801F0D9F90028AF
:1017200037D0297A009801F0D9F9002833D00098F1
:1017300001F0DAF90121009801F0DCF900282CD041
:1017400030594068417E00292BD0042929D0C17E20
:10175000027D1140C17630594068017F427D1140C1
:1017600001776846007A0028A7D1305902214268E3
:101770000098173201F09AF9305941684031897B5D
:10178000002913D004210098FFF79AFE91E7022068
:1017900004E0062002E0082000E003206946087209
:1017A0008BE70021C17630594068D9E70B21C1731E
:1017B0007FE700002805080070B504460078002582
:1017C0000D2801D00A2200E002225A494B7A002B50
:1017D00006D00D2804D0637C032B01D0432551E0B3
:1017E000097A8A4339D10D2809D00E2802D00F2852
:1017F00003D134E0607C032804D3402542E0607CC0
:101800000328FAD8A07C0428F7D20A2908D0607CE3
:10181000012822D0022820D06078032809D811E0BE
:1018200001F06EF9012806D16078032803D0002862
:1018300001D0492526E001F063F9002802D1607843
:101840000228F6D83020035D22462046E17C313262
:10185000143000F019F8054614E0422512E001F0BA
:101860004FF9012807D16078052804D1A01D01F0A7
:101870004DF90028DDD001F043F9002802D160784D
:101880000228D6D8284670BDFFB5002086B00121B9
:101890006A461170044605910021002C06D0089D6F
:1018A000099A1F239A4234D9402032E01C23069D16
:1018B000079AF7E76B185E78330001F073F81D267E
:1018C000101010101010101010262626262626267E
:1018D0002626262626261010101010102600059BFE
:1018E00003E06F46FF5CB74204D05B1E5BB2002B87
:1018F000F7DA03E0002B01DB4A2006E0059B6F4688
:10190000FE54059B5B1CDBB205936B5C491C5918AC
:10191000C9B2914201D20028CCD0914202D04A20D3
:101920000AB0F0BD641CE4B2022CF9D20028B3D096
:10193000F6E7000098050800F8B50C4694491646ED
:1019400009680125002702228B1C312873D012DC84
:101950000C2874D008DC012821D0022840D00728A8
:101960004FD00B2869D156E010287FD0112876D0AF
:101970001228F7D18DE00123412871D008DC3228EC
:101980006FD035286ED036286DD04028EAD1B1E02E
:10199000422869D0432868D04428E3D1CFE006220A
:1019A0007C497D4801F0B8F8002808D006227A4921
:1019B000304600F0A9FF062020700020F8BD7448D2
:1019C00001680868C00738D02078062801D227703F
:1019D000C2E006229831304600F096FF06200EE065
:1019E0000A686B48920728D522783E2AEFD305462D
:1019F0004A7E5A31304600F087FF2868407E2070CA
:101A0000A7E00868400718D520780228DFD3887C33
:101A10003070587C78E00A685D4812070DD522784E
:101A2000202AD4D30546CA7D1A31304600F06CFF17
:101A30002868C07DE3E735E001E077E016E00A685A
:101A40005348D20672D52278202AC0D305460A7E92
:101A50009831304600F058FF2868007ECFE70EE04E
:101A600054E028E034E03BE058E060E0086880069D
:101A700070D520780428AAD30422091D23E0086821
:101A8000400667D52078002866D0087D08E02270DF
:101A90005FE0086800065DD5207800285CD0487DAE
:101AA0003070F4E70868C00554D5207804288ED338
:101AB00004220C3107E0086880054BD52078042803
:101AC00085D304220831304600F01EFF042096E73B
:101AD000086840053ED5207800283DD0887D36E056
:101AE0000868000536D5207802288FD3087C30702E
:101AF000487C09E00868C0042CD52078022885D3EA
:101B00008231087F3070487F7070C0E708688004B9
:101B100020D5207800281FD0A03117E008684004A5
:101B200018D52078002817D0A1310FE012E00868FE
:101B300000040FD5207800280ED0A23106E00868F6
:101B4000C00307D52078002806D0A331087830706C
:101B5000237000252846F8BD0425FBE770B50F4823
:101B60000F49C405228880252A4322800D4A5389C3
:101B70001B0701D4401EFAD20B4A01201060062236
:101B8000054800F0C1FE2088A843208070BD0000F9
:101B9000C0060800383E03001C800020A08601001B
:101BA000D47F04002000005000800040F8B5534D61
:101BB000002668690090FEF71CFF0021504C0028A9
:101BC00002D12079022800D100914E4F4E483A6848
:101BD000002A0FD10278002A0DD04C4A0123D3638A
:101BE000D36B002BFCD101229207D2691923DB01B0
:101BF0009A420ED3017000F095FF00287CD0E07867
:101C00000126002878D005200007808AC00701D06F
:101C1000042671E000F018FE00286DD13C480068F1
:101C20003F2804D12079002801D128690090A178AB
:101C3000684600F07DFF00285ED0A178684600F07D
:101C400015FE002858D000F079FF002854D03868DD
:101C5000AA281BD0972007210125AD07EA6B920A1D
:101C60009202521CEA63EA6B2A4B80021A4002433A
:101C7000EA63E86BC002C00A49050843E8633868B4
:101C8000042600280DD0AA2813D020E02248FFF710
:101C900012F8009A0321521E0092A37893422BD887
:101CA000DAE700986421C00200F0F8FD0AE00121A3
:101CB0000BE0009800F001FD1849096800F074FC81
:101CC00000F002FD21790029F1D100F03DFF144818
:101CD000C06A8047286B0004C00FFBD000F03AFFB9
:101CE00000F03EFF0F480168C905FCD5052000073C
:101CF00001898022914301813046F8BDA002002075
:101D0000C60608000C80002000800020C0000040B3
:101D100060010020FF03E0FF011200001880002096
:101D20001C0708000002004010B556490820088032
:101D300005242407218830200143218021880322A3
:101D40001143218002E000BF00BF00BFA18A090645
:101D5000F9D561898908890061814B494A8852080F
:101D600052004A8021888143218020888008800099
:101D70002080A08A400701D5FEF794FE20898021AB
:101D800008432081208A042188432082A08A80077A
:101D9000FCD53E4841050268D202FCD40A695207CC
:101DA000F9D510BD10B50124A407A06BFEF78EFF76
:101DB000374900F073FD27221201511A00D1012189
:101DC000344A50601160206B082188430843206327
:101DD00010BD10B500F0CAFE2A4801894908490023
:101DE00001812D4800683F2801D100F0C5FE012087
:101DF0008007816904221143816100F0C3FE00F075
:101E0000C7FE00F0CBFE25480068AA2802D11420A6
:101E1000FEF7CCFE22490020087010BD10B500F07E
:101E2000C3FE10BD10B501208007008A000704D54D
:101E300000F0C0FE1A490320087010BD70B51948A3
:101E4000008885061148AD0E44681348C030006B09
:101E50000078002802D1284600F0B2FE124800891E
:101E60000F4EC00505D5200607D5284600F0AEFE6A
:101E700001E0200601D502203070200401D50120A8
:101E8000307070BD00330050200000500002004050
:101E90007102000040000040600100200C80002022
:101EA0002280002000200050002C005038B5012472
:101EB000684604700C21494800F08EFE474D694683
:101EC000EC702A1D352000F08DFE002800D02C710A
:101ED00000F014FA4249322000F08AFE002132203C
:101EE00000F048FD00F0B2F838BD10B500F09CFAE3
:101EF00010BD10B5394802238078322201020E311C
:101F0000384800F0AFFD012101701321417000F04D
:101F1000BBFD10BD10B5044630482C23807832221A
:101F2000010230480E31801E00F09CFD0146203039
:101F3000047200224272084600F0A6FD10BD10B5E2
:101F4000502332220D21284800F08CFD044600F079
:101F5000F3F9204600F098FD0221322000F00AFD3E
:101F600010BD214810B5012332220D210B3800F09D
:101F700079FD0221017000F087FD10BD10B500F061
:101F80005FFA10BD194B10B59A4201D91A4602E00A
:101F9000002A00D1012200F031FE10BDF8B506463E
:101FA00011480F461546252332220D21C01C00F092
:101FB00059FD0446012020772046062239461D306F
:101FC00000F0A2FC2320065565822582204600F001
:101FD00061FA204600F058FDF8BD00002480002082
:101FE000342D0020043800000E340000307500004D
:101FF00010B500F009FE254900F00CFE2448081831
:1020000010BDF8B5234D0646A876002400F0FCFD6F
:102010002919641CE4B20874082CF7D30024102793
:10202000381BB04201DD002007E000F0EDFDC117D4
:10203000090E0918090A0902401A2855641CE4B25D
:10204000102CEDD300F0E0FD2883F8BD10B524215D
:10205000104800F0C1FD00F052F910BD10B50E4857
:1020600002238078322201020E310C4800F0FAFC83
:102070000D210170074920318978417000F004FD7D
:102080000321322000F076FC10BD0000A0BB0D0043
:10209000A086010030800020248000201A38000033
:1020A00010B5084609781C460B0000F07BFC0805BB
:1020B00020202008181B1E2000F0EFF917E04178BF
:1020C000012904D0002902D0022903D00FE000F03A
:1020D000FEF90CE01146204600F044FA07E000F05B
:1020E00014FA04E000F012FA01E000F010FA002007
:1020F00010BD10B508782F4C801E030000F052FC74
:10210000020214188878A070C0070AD02A49294A08
:102110004879203AD07627480622891D001F00F012
:10212000F3FB00F01AFA03E0FFF7E3FE0020A070D3
:10213000002010BDF8B50D46194612231F4800F0C7
:1021400091FC0446284600F009FA0027002821D017
:10215000184EB078C0071DD030460822A91C103890
:1021600000F0DAFC002815D130462038018B2A888F
:1021700091420FD101212170807E6074314610227E
:102180002039601C00F0C0FBB078FFF7C3FE00F000
:10219000E8F900E02770204600F076FC207800285F
:1021A00001D1FFF7A6FE0020F8BD10B500F0D8F968
:1021B000002010BD5080002024800020183800002E
:1021C00010B5104600F0E8FB002809D101233222A7
:1021D0000D21484800F046FC0121017000F054FC3C
:1021E000002010BD70B5087815460F282DD008DCEA
:1021F00001280DD002282CD003281CD00E2830D165
:102200001FE0102825D0112823D0122829D123E03F
:102210004878002825D13748222332220D21801CFE
:1022200000F020FC04460146284600F00AF920464A
:1022300000F02AFC15E04878002812D100F015F9CA
:102240000FE0487800F01FF90BE0487800F01CF927
:1022500007E000F01EF904E04878442801D100F0BE
:102260001BF9002070BD70B50D4610461C4600F0ED
:1022700093FB022805D12049200A8870284600F0E7
:102280003FF8002070BD70B508780C4615460A2846
:1022900010D1104600F080FB04280BD16078002894
:1022A00002D000F0EEF805E00521284600F062FBC0
:1022B00000F0E8F8002070BD10B5104600F0A8F856
:1022C000002010BD10B50C46104600F065FB01283B
:1022D00008D12078002805D1FFF707FE002801D09B
:1022E00000F0D3F8002010BD10B5084600F0D3F878
:1022F000002010BD02340000248000207047704789
:1023000070B5994D0446A878FF2812D005213220D7
:1023100000F030FB21882980617A6971214606220C
:102320000A31A81D00F0F0FA90488078FFF7F2FD1E
:1023300070BDFFF704FE70BDF0B5044693B00E20EB
:102340002070002565708A48A081E08107202074F4
:10235000012060741C20E074274622461F2020378D
:10236000143238741646511E0B2000F03BFC002836
:1023700005D02A46E5747FA1304600F0C5FA224612
:102380003132511E0C20119200F02CFC002805D097
:102390003D742A4679A1119800F0B6FAE07C1A2122
:1023A000081A45B2002D31DD3E206946087001AAA9
:1023B000022000F017FC002807D00D2268460270AA
:1023C0006FA101A800F02CFC03E06846007800280B
:1023D0001CD068460078A84200D2054669460D70B8
:1023E000E07C6D1C8555E27C204609211530115496
:1023F000E17C401C081869460A7801A900F084FABB
:1024000069460878E27C801C1018E07413B0F0BDB7
:1024100010B500F0C1FA032803D0052801D0042824
:1024200001D1FFF78CFD10BD0020594A0121117028
:102430004D4AD378002B01D001207047D1707047EE
:102440007047032008700A204870002048820875F1
:1024500048751722CA8208220A8310224A83888379
:102460006422CA8320310870704710B501213220E0
:1024700000F080FAFFF739FD002801D0FFF75FFD7B
:1024800010BD704770477047704710B5FFF757FD94
:1024900010BD704770477047704710B532481E2313
:1024A0008078322201020E313A4800F0DBFA012135
:1024B00001704170C170102242710322827001715B
:1024C000002202728171C17100F0DEFA10BD1FB5E9
:1024D00031A30FCB6C460FC423481E2380783222D1
:1024E00001020E312B4800F0BDFA044628481022A4
:1024F00044606946A01C00F007FA04202070012007
:102500006070204600F0C0FA1FBD7047704770B57C
:1025100005461E2332220E211E4800F0A3FA04466F
:102520006878FFF76EFD0720207010490120607069
:102530002039887E2077088B60822046082210315F
:10254000143000F0E1F9094910222039A01C00F0F4
:10255000DBF9204600F098FA70BD70470120704703
:102560007047704770470000248000205080002092
:102570004C040000070103180000000002FF0000E7
:10258000444131343538302054454D504C00000022
:10259000C89000201438000000010203040506075B
:1025A00008090A0B0C0D0E0F024670B54A40D30FF6
:1025B000DB0740002DD04A002AD0010E140E091965
:1025C00000021202400A520A8418E50104465443EC
:1025D000000A120A2E045043A4194219200CC543C4
:1025E000AA18120C01257F39521CAD03521912048E
:1025F000240400D0521C104301D44000491EC2B232
:102600000C06C0092018401C4008802A02D003E0B4
:10261000002070BD40084000002900DA0020184367
:1026200070BD70B502464A40D50F40004A00ED0724
:1026300040085208002816D0002A14D041000C0E81
:1026400051000B0E41020120C0055202490A520AF4
:10265000E41A091812187D34914201D3641C00E079
:102660004900002C01DA002070BD0023914201D303
:10267000891A0343400849000028F7D100290AD0ED
:10268000914202D10121C90705E0914201D2012105
:1026900001E00121C943E005C018401900F05CF8D1
:1026A00070BD420005D04200120E52428A4201DB48
:1026B00000207047C9050818704710B500229623FE
:1026C000114600F051F810BD40004008C10D400215
:1026D0000122400AD20580187F2901DA00207047C4
:1026E000962903DC9622511AC840704796398840D3
:1026F0007047C20FD207400040080ED0C10D07231B
:10270000DB01C918090540021143400A0022C30831
:1027100052071A4340071143704700200146704793
:10272000CB0FDB07490010B5490802460A4307D022
:102730000A0D07240903E401090B121B002A01DC1E
:10274000002010BDC900440F0C43C100E018D205A1
:10275000801800F001F810BD002904DA401C49007F
:1027600001D140084000704770B40024050C05D129
:102770001024000402D1002922D01124050E01D119
:1027800008340002050F01D1241D0001850F01D17D
:10279000A41C8000002801DB641C4000002908D034
:1027A00020252E1B0D46F540A14000D001210D43F0
:1027B00028431B1B0106DB1D000A002B02DA002048
:1027C00070BC7047DB05181880180029F8DA401C27
:1027D0004900F5D170BC400840007047064C012507
:1027E000064E05E02046E36807C82B43984710349F
:1027F000B442F7D3FDF728FEA42D0020D42D0020ED
:1028000003B40148019001BD551B020003B4014807
:10281000019001BD0F3B030003B40148019001BDCD
:10282000CF2B030003B40148019001BDCB2C030062
:1028300003B40148019001BD0990020003B40148AE
:10284000019001BD1F21020003B40148019001BDA8
:10285000C12D030003B40148019001BD092103000B
:1028600003B40148019001BDC92D030003B4014820
:10287000019001BD2B69020003B40148019001BD24
:10288000EB31030003B40148019001BD3D32030068
:1028900003B40148019001BDD721030003B40148EE
:1028A000019001BDA73A030003B40148019001BDA6
:1028B000913B030003B40148019001BD2F2F030099
:1028C00003B40148019001BD938F020003B4014895
:1028D000019001BDCD8C020003B40148019001BDFF
:1028E000418F020003B40148019001BD2768020036
:1028F00003B40148019001BD3968020003B40148E6
:10290000019001BDB780020003B40148019001BDF0
:10291000213B030003B40148019001BDBF22020026
:1029200003B40148019001BDEB26030003B4014844
:10293000019001BD3524030003B40148019001BD9D
:102940002F22020003B40148019001BDDD200300E5
:1029500003B40148019001BD533B030003B4014897
:10296000019001BD9D20030003B40148019001BD09
:102970003350020003B40148019001BD3126030029
:1029800003B40148019001BD5548020003B4014859
:10299000019001BD1F50020003B40148019001BD28
:1029A000B326030003B40148019001BDFD3D0300BF
:1029B00003B40148019001BDA528030003B40148F8
:1029C000019001BDD5AF020003B40148019001BDE3
:1029D000A1A5020003B40148019001BDE3A50200D6
:1029E00003B40148019001BD87A8020003B4014867
:1029F000019001BDA7A9020003B40148019001BDE7
:102A000093AA020003B40148019001BD95AB0200F6
:102A100003B40148019001BDF9AB020003B40148C1
:102A2000019001BD69AC020003B40148019001BDF1
:102A300017AD020003B40148019001BD77AD02005B
:102A400003B40148019001BDF1AD020003B4014897
:102A5000019001BD85AE020003B40148019001BDA3
:102A600011AF020003B40148019001BDB12303007E
:102A700003B40148019001BD49E5020003B40148D7
:102A8000019001BDF9E3020003B40148019001BDCA
:102A9000E123030003B40148019001BD4BCD0200C6
:102AA00003B40148019001BD99D1020003B401486B
:102AB000019001BDABD0020003B40148019001BDFB
:102AC00069D0020003B40148019001BD77CF020034
:102AD00003B40148019001BD01CC020003B40148D8
:102AE000019001BD29CC020003B40148019001BD51
:102AF00015D2020003B40148019001BD8DD202003D
:102B000003B40148019001BD7F0C030003B40148E8
:102B1000019001BDAB0C030003B40148019001BD5D
:102B2000773B030003B40148019001BD7920030005
:102B300003B40148019001BD2129030003B40148F9
:102B4000019001BDD990020003B40148019001BD7C
:102B5000C768020003B40148019001BD0D2C0300B9
:102B600003B40148019001BDB9C7020003B4014894
:102B7000019001BD652C030003B40148019001BD23
:102B8000F793020003B40148019001BDDB2E03005E
:102B900003B40148019001BD231D020003B40148A4
:102BA000019001BDC32C030003B40148019001BD95
:102BB0003B66020003B40148019001BD2B66020090
:102BC00003B40148019001BD038D020003B4014824
:102BD000019001BDCF8F020003B40148019001BDF7
:102BE000533B030003B40148019001BDD129030008
:102BF00003B40148019001BD8725030003B40148D7
:102C0000019001BD2528030003B40148019001BDD6
:102C1000FD3A030003B40148019001BDD33A03001B
:102C200003B40148019001BD213B030003B40148F6
:102C3000019001BD8D3D0300FEB50020234C0346ED
:102C400028220021424312198D00491C53510A29A0
:102C5000FADB401C0428F3DBFDF722FF1B480022AF
:102C60000838026042601646002577000120A8401F
:102C700081B21748C05B084223D028207043001956
:102C8000A900019100904058401C01D1FDF7E2FBE2
:102C9000019900984058002810D0C1172A46FFF724
:102CA000C5FF3201FFF7C2FF084A083A13685268AD
:102CB00018431143054A083A106051606D1C0A2DF3
:102CC000D4DB761C042ECFDBFEBD00002890002054
:102CD0002A2D002002E008C8121F08C1002AFAD1DC
:102CE00070477047002001E001C1121F002AFBD18C
:102CF0007047000079050020D5130020C114002082
:102D00007F150020AD150020111300207513002041
:102D1000B91700200101000A04280A040203AA00CE
:102D200055032A00A001FFFF2C01FF003F00FF0315
:102D3000FF010000000000009C2D002054800020B6
:102D40000600010001340000C12100200034000011
:102D5000E521002000380000872200200138000013
:102D60006722002003380000B922002000C80000BC
:102D7000C522002010340000E92200201338000092
:102D8000A120002015380000F32000201738000093
:102D90003521002019380000AB210020442D0020EF
:102DA0000B000000F02D00200080002058000000E3
:102DB000E42C0020F02D002020900020B000000026
:102DC000E42C002068070800F41108000C1E000025
:102DD000E42C0020000000000000000000000000C3
:102DE00000000000000000000000000000000000E3
:040000052000044192
:00000001FF
