:020000042000DA
:1000000000980020C5040020CD040020E504002055
:1000100000000000000000000000000000000000E0
:10002000000000000000000000000000FD040020AF
:10003000000000000000000015050020170500204A
:10004000D1270020053103000D31030015310300D5
:10005000E72800208D310300372900203F290020A8
:10006000190500201905002057290020AD31030093
:1000700057810200FF1900204B1B02004B1B02009E
:100080004B1B02004B1B02004B1B02004B1B0200D0
:100090004B1B02004B1B0200190500204B1B0200EA
:020000042000DA
:100160003200000073060020E1130020A12A0020C5
:10017000000000000000000063800200BD8002005B
:1001800045120020FB800200198102003581020027
:100190005D810200932800204F0600207711002087
:1001A0009911002000000000000000003F00000046
:1001B000F48B002000040000740B080048010000CC
:1001C0006807080000040000C80C080020050000B3
:1001D000000000002000000048000000580000005F
:1001E0006800000004010000160100002801000062
:1001F0002E010000202A00008E2E000001000000C9
:1002000088130000B7140020E9600200FD9302008B
:100210001F1B002019280300A57402006D21002077
:1002200003000000D5200200A92A002004000000DD
:10023000D74902000F490200831D020063910200AA
:10024000B7910200BF910200078202007182020092
:1002500048450020AD8302009384020041850200DE
:1002600015860200378602005F860200758602004E
:10027000F9870200258902005D8A0200D38C020002
:10028000098D02000F900200438D0200278E0200AC
:10029000F98E0200478F0200998F0200D58F02006D
:1002A00049510200775102002F5202001000000055
:1002B00020030000803E000000000000000000005D
:020000042000DA
:1002C000504600030003983A6400F401B80B000C98
:1002D000B80B120030003000CD009A01120024004B
:1002E00030006400B0001800280012001200D0078F
:1002F0000000FFFF00000000000000000000000000
:100300001F000002444131343538302D30310000B7
:1003100000000000000000000000000000000000DD
:0403200000000000D9
:020000042000DA
:10034000FFFF010000C201000000000000000000EB
:100350000000F4010100011B070A1AFFD200021578
:10036000585CDE931B0142CC9A1325009BEDC65EC0
:1003700000000000C5000000000009FF00605257A7
:100380002D424C450000000000000000000000006D
:10039000000000000000000000005A484959414E8A
:1003A000472D4850530000000000000000000000EE
:1003B000000000000000000000000000000000003D
:1003C000000000000000000000000000000000002D
:1003D0000000000000000000010000CAEA80D00711
:0403E00006D06432AD
:020000042000DA
:100440000348854603F0C4FC00480047C72002006B
:100450000098002000BE000000BE0000134989681B
:100460003E2291432E31114A91600621104A11809B
:10047000082101228A400F4B1A6000BF00210E4A5A
:1004800011801146098A0D4A914389180A4A11823E
:10049000002005E000210122D20482181160001D15
:1004A00007498842F6DB62B670470000003300500F
:1004B0000034005080E100E000000050000F000018
:1004C0000030000015488047154800470420714659
:1004D000084203D0EFF3098012490847EFF3088080
:1004E0001049084704207146084203D0EFF3098001
:1004F0000D490847EFF308800B490847042071466F
:10050000084203D0EFF3098008490847EFF3088059
:1005100006490847FEE7FEE7FEE700005D0400200D
:1005200041040020250C002031050020C7050020D3
:1005300010B504461A48408A802188438030184903
:10054000488218492068086060684860A068886030
:10055000E068C8602069086160694861A0698861D5
:10056000E069C8611048806A08620F48C06A486242
:100570000D48006B88620C48C06BC8620A48406B2B
:1005800008630948806B48630548808A2021084039
:10059000202802D1FFF75EFF01E000BFFEE710BD9B
:1005A000000000500018080000ED00E030B50246E1
:1005B00093688C68181B80B2FC4DA84201D90120B9
:1005C00030BD0020FCE78269203A917F082904D2DF
:1005D0008A00F74B9A58826101E000BFFEE770473E
:1005E00010B5F448F4490861F4484861F44888615A
:1005F000F448C861F4480862F4484862F4488862E4
:10060000F448C862F4480863F4484863F4488863CF
:10061000F448C863F448F5490860F5484860F5486F
:100620008860F548C860F548C206D20E01219140A5
:10063000F34A116000BF002100F01DFAEF48C20626
:10064000D20E01219140EF4A116000BF10BD10B5DC
:10065000ED480021016000F00AFD0020012189071A
:10066000096B49004908C2071143E84A116300BFFA
:1006700010BD1CB50120E64908700820E549088036
:1006800003F0B8FB03F0D8FE00F081FBE2480078ED
:10069000E1490870E1480078E0490870012003F062
:1006A000AFFBFF2101310D20800103F0AFFB01F012
:1006B00042FF00F0F3FD00F099FBD94800894009A2
:1006C0004001D749088108460089D6498843052159
:1006D000C9024018D2490881D3484882262088821E
:1006E0000720C882D14808830120488308464088F3
:1006F0001E2188431430CA494880042000F0B4F910
:10070000072000F0B1F90A2000F0AEF9062000F051
:10071000ABF90B2000F0A8F9012000F0A5F90220A8
:1007200000F0A2F9002000F09FF9C148006803F032
:1007300073FBB6480068FF21013188434018B34974
:10074000086000F0D7F9BB480068AA2805D114203A
:1007500000F031FC142000F041FC02F045FCFFF7F2
:1007600076FFA220B449C882AD484088E021884382
:10077000A030AB494880B148046B2078002803D1F1
:10078000012003F04FFB02E0002003F04BFB03F0DD
:100790004FFB022803D003F04BFB01280FD10820A8
:1007A0009C490880A448808A20210840202806D13E
:1007B000A148408A8021884380309F49488252E185
:1007C0009D48008980210840C01101282DD1800753
:1007D000006B09020840C00B27D103F02FFBC007B4
:1007E000C00F22D1042003F02FFB054603F032FB9B
:1007F000002D11D0002000908E480068AA2802D158
:10080000142000F0EBFB0421684603F029FB0028CC
:1008100001D000F045FC00BF00BF002000BF002851
:1008200000D020E102F0ADFF00BF00BF002000BFFC
:10083000002800D017E172B600BF00BF7D480068F5
:10084000AA2801D100F013FC01F0C2FE0190694614
:100850000879042808D17A480078012802D10220BA
:10086000019001E00320019068460079022803D03E
:100870006846007903286FD16F48008A04218843B5
:10088000001D6D4908826F48C069012817D9684664
:100890000079032810D103F0E9FA00280CD003F006
:1008A000EBFA002808D0032003F0ECFA002803D06C
:1008B00002206549087010E0022001900DE06846B2
:1008C0000079032807D103F0DDFA002803D00120C6
:1008D0005D49087001E00220019000BF00BF68463A
:1008E0000079022803D06846007903284AD1574886
:1008F000006904210843554908614F48408A202176
:1009000088434D4948820846008A02218843801C5A
:10091000494908826846007902280DD10846408A74
:1009200004218843001D444948820846408A10211A
:1009300088434149488225E03F48408A0421884352
:10094000001D3D49488242480988802291438031F8
:10095000394A1180002102E07EE04A1CD1B20A2906
:10096000FBDB3549498A102291431031324A5182CA
:10097000411E384A516130490988802291432E4AEC
:10098000118000BF26484088FF2101318843244957
:10099000488000BF00BF30BF6946087900BF2B48C0
:1009A000006904218843294908615AE03075000034
:1009B00028450020942703000084004062B600DF31
:1009C00028A30200704701DF1CCA0200F8BD02DF45
:1009D00040CB0200F5E703DF84D4020004DF89B0D6
:1009E000BC330200F8BD05DF18340200408400402B
:1009F000F8BD06DFEC0C030070BD07DFFBFFFFFF57
:100A000080E100E000E100E08C030800000000400D
:100A1000008000200033005000000800202A080059
:100A200020000050003C00004E02000077770000DC
:100A300004900020088000200000005020020020C8
:100A400054020800E0010020C406080000ED00E0A8
:100A5000C01F00000080004068460079012800D1D6
:100A600030BF62B600BFABE6C206D20E0121914094
:100A70001C4A1160704710B5002819DA1A4A03079A
:100A80001B0F083B9B089B00D2588307DC0EFF23FB
:100A9000A3409A438B071B0E8407E40EA3401A431E
:100AA000114B0407240F083CA408A4001A5118E0B5
:100AB0000E4A03231B02D21883089B00D2588307D7
:100AC000DC0EFF23A3409A438B071B0E8407E40E22
:100AD000A3401A43054B032424021B198408A400D5
:100AE0001A5110BD80E200E01CED00E000E100E0E2
:100AF0007047000044480078002804D1434908703A
:100B00004349C87002E080204249087070473E485F
:100B10000078002805D101203C4908703C49C87084
:100B200002E081203B490870704737480078002870
:100B300006D102203549087001203549C87002E00D
:100B4000822034490870704700B533480078002887
:100B500004DD31480078401E2F4908702E48007887
:100B6000002800DD00BD2B480078002809D0294866
:100B700000788007800F24490870002025490870FC
:100B800008E021480078002804D01F480078401E63
:100B90001D4908701C48027800201B490870002A73
:100BA00004D0012A03D0022A07D103E006E0FFF7B0
:100BB000AEFF03E0FFF7B9FF00E000BF00BF00BFDA
:100BC000D0E710B514480078401C134908700E484F
:100BD0000078002808D103F02BF90446601CC4B249
:100BE000FFF788FF0848047010BD01200B4908700A
:100BF000704700200949087070470848007870471E
:100C00000748007870470000018000205402080067
:100C1000C606080002800020038000200480002017
:100C20002280002010B504462A48008A0421884307
:100C3000001D284908820846008A02218843801C3A
:100C400024490882084600894021884340302149D0
:100C500008810020012181401F4A116000BF082047
:100C60001E4908801B48408A8021884380301949EA
:100C700048821B492068086160684861A0688861F3
:100C8000E068C8612069086260694862A06988629A
:100C9000E069C8621348806A08631248C06A486302
:100CA0001048006B88630F48C06BC8630D48406BE9
:100CB0000D4908600B48806B48600648808A2021F7
:100CC0000840202802D1FFF7C5FB01E000BFFEE786
:100CD00010BD00000000005080E200E00033005032
:100CE0004018080000ED00E080180800F8B53A4808
:100CF000006B002802D00021C94300E001213648E2
:100D00000163046BE51702222046294603F0C0F870
:100D1000102206460F4603F0BBF8304B1A685B689A
:100D2000104319432D4A106051602B48406B002836
:100D300002D00021C94300E0012127484163446BF0
:100D4000E51703222046294603F0A2F810220746A1
:100D50000E4603F09DF8214B1A685B681043194357
:100D60001E4A10605160F8BD08B50020042303221C
:100D7000120202210090012003F094FA00200323C4
:100D8000024619460090012003F08CFA08BD10B508
:100D900005200007008A022188431149088200BF0C
:100DA0000F48808A08210842FAD0FFF719FCFFF7A4
:100DB000DBFF0B4880884021884340300849888009
:100DC0000321092000F057FD0548408A202188436F
:100DD00020300349488210BD20900020C0900020A0
:100DE000000000500020F9490860704700B5052058
:100DF0000007008930218843F549088108460089A9
:100E0000802188438030F2490881084600898008A3
:100E10008000401C0881084600890821884308306A
:100E2000EB490881EB480088802188438030E949FC
:100E30000880E748408A08218843E54948820846F7
:100E40000089402188434030E14908810846008AF2
:100E500004218843DE49088200BFDD48808A0221E0
:100E60000842FAD0FFF7BEFFD8480068002832D108
:100E7000D848008840084000401CD64908800846F1
:100E80004089D54908404012012807D1D14800883F
:100E9000C90088434018CF49088006E0CD48008843
:100EA000012109038843CB490880CA48008878217A
:100EB00088432830C74908800846008806218843AF
:100EC000801DC4490880C248408A082188430830F0
:100ED000BF49488232E0BD480068AA282ED1BD48EB
:100EE0008088F0218843B030BA49888008468088DD
:100EF000BA498843FF300130B64988800846808867
:100F000000090001888008468088B5498843401858
:100F1000B049888008468088B24988434018AD4966
:100F2000888008468088B04988434018A94988804D
:100F3000A748408A08218843A5494882A5480088D7
:100F400080218843A3490880A14800894021884323
:100F50009F4908819F4840899F49084040120128C5
:100F600002D10520A1498880012080070068FF2167
:100F7000013188439E4908609E4800689E49884325
:100F80000121490340189B490860084600689B49B5
:100F9000884340189749086000BD9049984A91815C
:100FA00008215180002000E0401C9628FCD3082135
:100FB000934A91807047934948800988890889003D
:100FC000C91C904A11801146098804229143091DC9
:100FD0008C4A118001218C4A11707047F0B587B09E
:100FE00007468948007800283FD000BF8548008820
:100FF0000421084080100128F8D08248C5888688DE
:10100000280480190690814979430846069902F020
:1010100045FF044600207C4908707D480460204656
:1010200002F044FE014603907A4802F0FFFD892158
:10103000C905049002F0BDFD059002F03EFE764920
:1010400008607348006802F031FE019002F04AFE29
:10105000724A734B0391029002F026FF05910490AF
:1010600002F057FE6F49086000BF07B0F0BD70B5D1
:1010700056480068AA2803D167480068050A00E0BE
:101080007C25694C601984B200BF534971312046F8
:1010900002F010FF081984B2204602F011FF70BD63
:1010A000F8B50020009000BF01206049C86300BF70
:1010B00000BF00BF00BF5D48C06B0028FAD100BF71
:1010C0004B48C46900BF5A480068844202D20020DD
:1010D000574908600098002812D00020009054481A
:1010E000046002F0F3FE53490880012002F0F4FE90
:1010F00002F0F8FE0646002E01D101200090F8BD56
:101100004B480068201A1921C90188421FD348485A
:10111000046002F0DBFE0546464909888D4204DD85
:1011200044480088281A87B203E042480088401BE0
:1011300087B2182F0BDB3F480580012002F0CCFE60
:1011400002F0D0FE0646002E01D10120009000BF23
:10115000D5E770B504462E4909686143084636490B
:1011600002F09CFE0546284670BD01462A4A1268D8
:101170004A43900A704770B5054614480068002835
:1011800004D1284602F0B4FE044603E02846FFF7E7
:10119000E0FF0446204670BD70B505460B48006868
:1011A000002804D1284602F0A9FE044603E02846A0
:1011B000FFF7DBFF0446204670BD00BF1F494869AA
:1011C000C107C90F00293BD10120704708800020CA
:1011D000000000502000005000020000000300004A
:1011E0000004000000080000001000008000005013
:1011F0000000004000020040007E000000002000CF
:101200002030005000160050108000200024F40010
:101210000C80002000247449148000207B14AE4709
:10122000E17A443F1880002001120000C000004015
:101230007C0408007804080040420F0000100050B1
:101240000020704770B5012500BF00BF12494869F2
:10125000402101408909002907D000BF0E49486993
:10126000202101404909002901D1002511E0002079
:1012700009490861002400E0641CFF205F308442BB
:10128000FAD3FFF79AFF002802D102F03DFE0025B5
:1012900000BF00BF284670BD00100050C949CA48B1
:1012A000CA4A128880239A438032C84B1A8000BFF2
:1012B000C64A2032528908231A40082A03D00A4617
:1012C000491E002AF4D10122C14B1A600288C14B89
:1012D0001A80801C0288C04B1A80BC4A1288802366
:1012E0009A43BA4B1A8070470146002070477047F6
:1012F0007047704702460020704700BFB749096B2E
:1013000006221143012208461043B449086300BF76
:1013100070477047B248B34908604C20B249088012
:10132000B248B3490882B348B3494880B348B44986
:101330000880B448488022204881B3480882B348D6
:101340004882B3480883B3484883B348B349888088
:10135000B348B4498880B448C880B448C881B2480A
:1013600008824882B2488882B248C882B24808835C
:10137000B24848835920B2490880B248B24908802F
:1013800043204880B148AE494882D520AE49888084
:10139000AF480881AF484881AF488881AF48B0491D
:1013A0000880B048B04948800846C088102188436A
:1013B0001030AD49C880AD480881AD48AD4948807E
:1013C0008A488B4948820820A7494881824800887A
:1013D000A94908827F480088A8490880704770475B
:1013E000F0B58DB0044600250026A5486062A548EA
:1013F000A062A5486061A548E062A5482060A548B4
:101400002062A5486060A548E0617F210906284662
:1014100088430721090645180F21090228468843F9
:10142000052109024518FF21090428468843152192
:1014300089044518280A000205464C3569480560AC
:101440009748006B97498843954908630846406B65
:1014500095498843032109044018914948639348FA
:10146000006893498843914908600846006891499B
:1014700088438E49086003E003A88655701CC6B2F5
:10148000282EF9DB03A82027019028200290B8031A
:101490003818029A019902F03DFD00BFFFF73AFFAC
:1014A00002F014FD84490880002002F015FD02F0CE
:1014B00019FD0DB0F0BD70B500247F21090620464E
:1014C00088430721090644180F2109022046884352
:1014D000052109024418FF210904204688431521EB
:1014E00089044418200A000204464C343D48046034
:1014F0006B48406B6C4988430321090440186849D4
:10150000486336480068C008C000344908602F4866
:10151000008980088000401C2C4908810846008909
:10152000082188430830294908810846008A634910
:1015300088434018254908826148008940094001D4
:101540005F490881084600895E4988430521C90230
:1015500040185B4908815C48488226208882072021
:10156000C8825A48088301204883084640881E21C3
:1015700088431430524948805548006800280DD1EE
:1015800008464089090108404012012806D14C480C
:10159000008878218843083049490880FFF7BAFE5F
:1015A0004C48056B2878002803D1012002F03AFC52
:1015B00006E0494800882C49C880002002F032FC2F
:1015C00070BD0000A0860100087F040000000050EC
:1015D00000800040560208004A0308000000004056
:1015E0004C05540780000040602C00507F7F0000B5
:1015F000402C0050AC2900000022005009090000D6
:10160000002400502209000004020000220400000F
:1016100030D0000033040000EE1100002024005000
:1016200010040000002500502E0200003E020000C1
:101630003002000039020000450100004420000093
:10164000402800500D950000602800500242000024
:10165000D2010000E4DC000010920000537800008A
:10166000002A00508B100000002C00500395000051
:101670009DD50000202C005000280050002600506E
:10168000E9120020EF120020F5120020FB120020CA
:10169000F112002013130020F3120020DF130020AA
:1016A000400000400000400000001F000002004019
:1016B000000008000000040078040800000F00008B
:1016C00020000050003C00004E0200007777000030
:1016D00008800020200200205204080010B50024D9
:1016E00028E000BFE3490868C1B2E348006901701F
:1016F000E148C068401EE049C86008460069401CD7
:1017000008610846C068002814D10021DA48016148
:101710000020D8494968490849000143D54A516029
:1017200000BFD5484469002C03D00021416100204E
:10173000A04706E000BFCF494869C107C90F00298B
:10174000CFD100BF10BD10B500240020CA49C86029
:101750000021C9480161C748808840084000C54948
:101760008880C5484469002C03D0002141610120D4
:10177000A04710BD10B5002426E0BF49496808788D
:10178000BC49086000BFBC480068401EBA490860F8
:1017900008464068401C486008460068002813D18D
:1017A000486000BFB3494968022291434200114397
:1017B000B04A516000BFB0488468002C03D00020BC
:1017C000AD498860A04709E000BFAA496031898B14
:1017D00002221140481000BF0028CED100BF10BD2A
:1017E00000BFA4494869C107C90F002901D10120E0
:1017F00070470020FCE770B504460D469D4880897F
:10180000802188439B4988810720088100208880A7
:10181000084680898021884380309649888100204D
:10182000888088800846048085818089802188435B
:10183000904988810D2001218140904A116000BFAC
:10184000012100F0E0F80D20012181408C4A116057
:1018500000BF00BF012181408A4A116000BF002003
:101860008549087600218448016100208249C860CA
:101870004860086070BD70B504460D462946204694
:10188000FFF7B9FF70BD22207A490861704700B5A3
:10189000FFF7F9FF00BD70B5012500BF00BF754916
:1018A0004869402101408909002907D000BF7149DA
:1018B0004869202101404909002901D1002511E092
:1018C00000206C490861002400E0641CFF205F30A8
:1018D0008442FAD3FFF784FF002802D1FFF7D7FF35
:1018E000002500BF00BF284670BD10B5FFF7D3FF2D
:1018F00010BD30B50120002102460B46C4018D0108
:101900002C4355012C435D002C435A4D2C6100BFE4
:1019100000BF00BF574948692021014049090029FB
:10192000F7D000BF53494869402101408909002987
:10193000EFD030BD00B5FFF7DCFF00BD30B54E4B3A
:10194000D96018615A6101234A4C64689C431C4366
:10195000484D6C6000BF30BD70B504460D4616465C
:10196000324629462046FFF7E9FF70BD70B50446B0
:101970000D4616464048056044608660FFF7FAFE53
:101980003D48406800280AD001203A4949680222AF
:10199000914342001143374A516000BF00BF70BD00
:1019A00070B504460D461646324629462046FFF7D6
:1019B000DDFF70BD10B52F4880680407240F012C8F
:1019C0001CD0022C15D0042C10D00C2C14D12A4879
:1019D000007E012809D100BF2649486980210140C5
:1019E000C909002901D0FFF7AEFE06E0FFF776FE39
:1019F00003E0FFF7BFFE00E000BF00BF10BD10B561
:101A0000FFF7D8FF10BD10B5002819DA1E4A0307EA
:101A10001B0F083B9B089B00D2588307DC0EFF235B
:101A2000A3409A438B071B0E8407E40EA3401A437E
:101A3000154B0407240F083CA408A4001A5118E011
:101A40000F4A03231B02D21883089B00D258830736
:101A5000DC0EFF23A3409A438B071B0E8407E40E82
:101A6000A3401A43064B032424021B198408A40034
:101A70001A5110BD001100504047002080E100E0E5
:101A800000E100E080E200E01CED00E070B5EFF363
:101A90001085012080F31088264802F041FA0446A0
:101AA000002D1DD0012080F31088002C23D020466B
:101AB0002038C08B204988421DD16189208902F0DD
:101AC00035FA05000ED021461031A389628920899C
:101AD000A847002806D001280DD002280BD105E028
:101AE0000020E0E7204602F027FA04E011482146F2
:101AF0000C3002F027FAEFF31084012080F31088F5
:101B00000C480068002802D1012002F021FA002CC4
:101B100003D0012080F3108870BD0020FAE710B5D3
:101B2000BC21064802F01AFA0549012002F01CFA0D
:101B300010BD0000A8050800388300000406080056
:101B40008D1A0020F8B50D46064681002B48EA881C
:101B50004458521C20686B89018F294F51430091D2
:101B6000014640314A89C989511A8AB2991A89B203
:101B7000B94214D29A4212D0294602F0FBF92D89BB
:101B80002049009802F08AF92818801C4034E0822D
:101B90003002401C80B2042102F0F2F9F8BD282185
:101BA000304602F0F3F9F8BDF8B505468700134852
:101BB0000C46C059C9880068114E0246403253890C
:101BC000D2899A1A92B28B1A9BB2B34211D20B4E9F
:101BD0008A420ED002F0E0F9F0590522611C5F3014
:101BE00002F098F92802401C80B2052102F0C8F9E1
:101BF000F8BD2821284602F0C9F9F8BD4C030800B9
:101C0000FF7F00001027000070B516460D461046F5
:101C100002F0C8F9002869D0340A304602F0C2F94F
:101C2000012812D0A87A1E2811D029460A310E2880
:101C300045D019DC801E030002F0BAF90B255829A3
:101C4000582D58315839583D5800022070BD314642
:101C5000274802F0B3F90021204602F0B5F902212D
:101C6000304602F08DF941E018283CD006DC1028FF
:101C700019D012282BD0162838D130E0522822D083
:101C8000D22833D127E0204602F0A4F92EE02046E6
:101C900002F0A6F92AE0204602F0A8F926E0204644
:101CA00002F0AAF922E0204602F0ACF91EE020463C
:101CB00002F0AEF91AE0204602F0B0F916E0204634
:101CC00002F0B2F912E0204602F0B4F90EE020462C
:101CD00002F0B6F90AE0204602F0B8F906E0204624
:101CE00002F0BAF902E0204602F0BCF9002070BD13
:101CF00001280000F3B581B001980C460102CA1D0D
:101D00000E310223344802F0B3F9047001990546FC
:101D1000022732488E00002C06D0042C16D0062C48
:101D200010D0072C3FD108E0815905224968897CF1
:101D3000114069708059C77335E0084602F09EF97A
:101D4000687030E080590F21C1732CE0044680593F
:101D50004068417C012902D1007E01280FD0019802
:101D600002F092F901210028A0590BD04268D07DE1
:101D700000281CD001281AD004280DD00FE0002024
:101D800068700DE04068C27D022A01D0042A06D1A5
:101D9000007C02280BD102E0107C022807D06F7073
:101DA000A1590320C873284602F074F9FEBD69707A
:101DB000F6E701460A780120042A01D9002070477D
:101DC0004A78002A01D0012AF8D10A79082AF5D8E0
:101DD00049790829F2D87047021C0000280508003C
:101DE000FFB589B00D4600206946059008720B9832
:101DF000000A009002F048F907460B9802F0D2F86A
:101E000000287DD00B982978000A8400764E01299D
:101E10005ED0042904D0062943D0072963D120E0ED
:101E2000687800281BD0305910224068A91C02F0A5
:101E300071F8002F06D03159C87B032807D0042839
:101E400008D050E03059C07B032803D04BE00B2072
:101E5000C87348E00521009802F022F943E0012010
:101E6000B6E03059C07B0E283DD1009802F006F94B
:101E7000002103E02A18401C9170C0B21028F9D349
:101E8000688A69460883294606A808221431023068
:101E900002F040F806ABAA1C3946009802F006F999
:101EA00021E03059C07B0F281DD1AA1C0A210098BF
:101EB00002F002F9002F04D03946009802F002F92E
:101EC00011E000231A463946009802F001F90AE0B1
:101ED000012F08D10B9802F065F801281CD00028CA
:101EE00001D0022005906846007A002811D002AA8D
:101EF0000521009802F0E0F86846027A602000E0D0
:101F000007E002436846027201233946009802F056
:101F1000DFF805980DB0F0BD3059C07B0228E2D142
:101F20006878002851D002210B9802F029F8305926
:101F300007224068A91C173001F0ECFFE878002860
:101F400004D130594068407C01283AD0009802F012
:101F5000C5F8002837D0297A009802F0C5F8002883
:101F600033D0009802F0C6F80121009802F0C8F8BA
:101F700000282CD030594068417E00292BD00429FC
:101F800029D0C17E027D1140C17630594068017F61
:101F9000427D114001776846007A0028A7D1305968
:101FA000022142680098173202F086F830594168E1
:101FB0004031897B002913D004210098FFF79AFE55
:101FC00091E7022004E0062002E0082000E0032060
:101FD000694608728BE70021C17630594068D9E71D
:101FE0000B21C1737FE700002805080070B5044687
:101FF000007800250D2801D00A2200E002225A496B
:102000004B7A002B06D00D2804D0637C032B01D023
:10201000432551E0097A8A4339D10D2809D00E2889
:1020200002D00F2803D134E0607C032804D340257C
:1020300042E0607C0328FAD8A07C0428F7D20A2961
:1020400008D0607C012822D0022820D060780328A4
:1020500009D811E002F05AF8012806D16078032867
:1020600003D0002801D0492526E002F04FF80028CF
:1020700002D160780228F6D83020035D224620463F
:10208000E17C3132143000F019F8054614E04225A5
:1020900012E002F03BF8012807D16078052804D14E
:1020A000A01D02F039F80028DDD002F02FF800283A
:1020B00002D160780228D6D8284670BDFFB500202E
:1020C00086B001216A461170044605910021002C5A
:1020D00006D0089D099A1F239A4234D9402032E045
:1020E0001C23069D079AF7E76B185E78330001F012
:1020F0005FFF1D261010101010101010102626263D
:1021000026262626262626262626101010101010F3
:102110002600059B03E06F46FF5CB74204D05B1EC0
:102120005BB2002BF7DA03E0002B01DB4A2006E06C
:10213000059B6F46FE54059B5B1CDBB205936B5CF5
:10214000491C5918C9B2914201D20028CCD0914201
:1021500002D04A200AB0F0BD641CE4B2022CF9D2CD
:102160000028B3D0F6E7000098050800F8B5064649
:102170000C4615460127312E77D012DC0C2E75D077
:1021800008DC012E20D0022E46D0072E60D00B2E68
:1021900041D17DE0102E6AD0112E69D0122EF7D1D8
:1021A000DCE0412E6FD008DC322E6DD0352E6CD0A5
:1021B000362E6BD0402EEBD145E1422E67D0432E18
:1021C00073D0442EE4D19CE10622ED49ED4801F0A4
:1021D000A9FF002808D00622EA49284601F09AFE05
:1021E000062020700020F8BDE74800680068C0079E
:1021F000C00F10D02078062803DA002020700427B2
:1022000009E00622E04801689831284601F082FE84
:102210000620207000278BE1DB480068006802215F
:10222000084214D020783E2803DA002020700427CA
:102230000DE0D5480068427ED34801685A312846EF
:1022400001F068FED0480068407E207000276FE1F2
:10225000CD48006800680421084213D02078022885
:1022600007DA0020207004270CE08CE02DE048E025
:102270005FE0C5480068817C2970C07C68700220DE
:102280002070002754E1F7E096E0AEE0C3E00AE1F9
:10229000BD48006800680821084215D02078202831
:1022A00004DA0020207004270EE013E1B64800682D
:1022B000C27DB54801681A31284601F02BFEB248AC
:1022C0000068C07D2070002732E1AF4800680068D8
:1022D0001021084214D02078202803DA0020207032
:1022E00004270DE0A8480068027EA74801689831DD
:1022F000284601F00FFEA4480068007E20700027E9
:1023000016E1A148006800682021084210D020781A
:10231000042803DA00202070042709E004229A48E8
:102320000168091D284601F0F5FD042020700027F2
:10233000FEE0954800680068402108420DD02078F2
:10234000012803DA00202070042706E08E48006888
:10235000007D2870022020700027E9E08A4800688C
:102360000068802108420DD02078012803DA00207F
:102370002070042706E084480068407D2870022011
:1023800020700027D4E0804800680068FF210131F8
:10239000084210D02078042803DA00202070042797
:1023A00009E00422784801680C31284601F0B2FDAA
:1023B000042020700027BBE07348006800680121FA
:1023C0004902084210D02078042803DA0020207047
:1023D000042709E004226C4801680831284601F00E
:1023E00099FD042020700027A2E06748006800687B
:1023F0000121890208420DD02078012803DA00204B
:102400002070042706E060480068807D2870012065
:10241000207000278CE05C48006800680121C90238
:1024200008420FD02078022803DA00202070042709
:1024300008E055480068017C2970407C68700220E3
:102440002070002774E050480068006801210903EB
:10245000084210D02078022803DA002020700427D8
:1024600009E0494800688230017F2970407F687028
:102470000220207000275BE04348006800680121CB
:10248000490308420ED02078012803DA002020708A
:10249000042707E03C480068A0300078287001203D
:1024A0002070002744E03848006800680121890353
:1024B00008420ED02078012803DA0020207004277B
:1024C00007E031480068A1300078287001202070B2
:1024D00000272DE02C48006800680121C90308424C
:1024E0000ED02078012803DA00202070042707E0AE
:1024F00025480068A230007828700120207000274D
:1025000016E02148006800680121090408420ED045
:102510002078012803DA00202070042707E01A48F9
:102520000068A3300078287001202070002700BFC9
:1025300000BF384657E670B5144C154D1548008855
:102540008021884380301349088000BF1148203023
:10255000408908210840082803D02046641E00282E
:10256000F4D101200C49086006222946054801F0F3
:10257000D1FC08480088802188430649088070BD46
:10258000383E03001C800020C0060800A086010021
:10259000D47F0400000000500080004070B5044665
:1025A000E002642101F07AFC0546284670BDF8B5CA
:1025B0000446204601F07AFB074676480168384613
:1025C00001F0F7FA064601F078FB05462846F8BD0B
:1025D000F8B50027704840690090FEF70EFB002810
:1025E00003D16E480079022801D10020009000BF7D
:1025F0006B48006800281BD16A48007800281AD070
:1026000000BF0121684AD16300BF00BF00BF00BF07
:102610006549C96B0029FAD100BF6449C86900BF88
:102620006349884200D2B1E000215E4A117002E0A5
:1026300000205C49087001F07BFD002800D1A5E076
:1026400001275648C078002800D19FE005200007E8
:10265000808AC007C00F01D0042797E001F0EEFB8D
:10266000002800D092E0534800683F2800D006E0E0
:102670004A480079002802D147480069009047483D
:102680008178684601F05AFD002800D17EE0434879
:102690008178684601F0E4FB002800D176E001F083
:1026A00053FD002800D171E03D480068AA280DD1F3
:1026B0004148FEF760FD044603250098401E009047
:1026C000364880780099884202D95FE09724072530
:1026D0003648C06B800A8002401C3449C8630846F3
:1026E000C06B36490840A10208433049C863084618
:1026F000C06BC002C00A690508432C49C86304279F
:102700002748006800280FD10098FFF747FF0646CA
:1027100022480079002801D0012000E00020014675
:10272000304601F017FD12E01D480068AA280ED1BE
:102730000098FFF73CFF064618480079002801D0B2
:10274000012000E000200146304601F003FD1C4955
:10275000C86A804700BF00BF1449086B194901408F
:10276000C90B0029F7D001F0FBFC01F0FFFC00BF12
:1027700015480068FF2101310842F9D00520000703
:102780000089802188431149088100BF00BF384675
:10279000F8BD000018800020A0020020C606080036
:1027A0000880002000800020C000004000000040A1
:1027B000800C00006001002001120000FF03E0FF18
:1027C0001C070800008000000002004000000050CC
:1027D00010B500240820754908807548008830210C
:1027E000884330307249088008460088800880009D
:1027F000C01C088002E000BF00BF00BF6C48808A98
:1028000080210840C011F6D06948408980088000C6
:1028100067494881674840884008400065494880CA
:102820006348008830218843614908800846008851
:102830008008800008800846808A042108408010B3
:1028400001D0FEF7A4FA5A480089802188438030DD
:10285000574908810846008A042188435449088260
:1028600000BF5348808A02210842FAD002E0002CBF
:1028700000D00CE050480068012109050840000D17
:10288000F5D188020069042108408008EFD000BF1C
:1028900010BDF8B500BF4948806B06463046FEF7CC
:1028A0007BFC07464649384601F0F8FA054644499C
:1028B000384601F0F3FA27200001441A002C00D119
:1028C000012400BF3F48456000BF00BF046000BF57
:1028D00001208107096B08229143C2001143374A46
:1028E000116300BFF8BD10B501F046FC2F48008908
:1028F000400840002D490881334800683F2800D037
:1029000001E001F03FFC2D48806904218843001D4F
:102910002A49886101F03CFC01F040FC01F044FCD4
:102920002A480068AA2802D11420FEF744FB0020A0
:102930002749087010BD10B501F03CFC10BD10B562
:102940001E48048A0820044204D001F039FC032008
:102950001F49087010BD70B51E4800888606B60E67
:10296000154844681C48056B2878002802D1304679
:1029700001F02CFC19480089FF21013108400012A8
:1029800005D08020044202D0304601F025FC802092
:10299000044202D002200E4908700120C003044204
:1029A00002D001200A49087070BD000000330050B9
:1029B00000000050200000500002004000000040D5
:1029C00071020000400000406001002008800020EB
:1029D000228000200020005020020020002C005007
:1029E000FFB581B004460E4617466288218806234B
:1029F000384601F03DFB0546207901F0F3FB2880C5
:102A00002E7104986880284601F044FB05B0F0BDA3
:102A1000F8B504460E461746628820790002014642
:102A20000C310423284801F023FB0546002E01D079
:102A3000132000E0122028706F80284601F02AFB46
:102A4000F8BD10B502460888134618701A465B1C7C
:102A5000FF242402044024121C7000BF8878907068
:102A6000C878D07008791071487950718879907160
:102A7000072010BD10B5024600BF13785478240219
:102A80002343184600BF088090788870D078C870BB
:102A9000107908715079487190798871072010BDBC
:102AA00010B500F013F810BD70B506460C4615467B
:102AB0003A2001F077FA022805D1E2B23A232946FA
:102AC000304601F095FB70BD0D30000010B50A21B5
:102AD0001C4801F093FB1C493A2001F095FB0021B2
:102AE0003A2001F04DFA10BD70B504461549C8886A
:102AF000002101F08FFB1348018804233A22134878
:102B000001F0B6FA05462C80284601F0C3FA0121EF
:102B10003A2001F035FA70BD70B5054609480188C4
:102B200004233A220948801C01F0A2FA0446054910
:102B3000087901F057FB2080A570204601F0AAFA21
:102B400070BD0000248000203046002001E8000015
:102B5000FEB515461F463A20F9494880F94800233A
:102B60000E22194600950190F548801D01F058FB92
:102B70000646F349C888002101F04CFB002E03D122
:102B800001213A2001F0FCF901233A223946EE48AE
:102B900001F06EFA04462670204601F07BFA002010
:102BA000FEBDF8B506460C4617461D4600200090AF
:102BB000E3480580208801F039FBE14908710846A7
:102BC0000079FF2808D11D23DB02DF4AD21D8921AD
:102BD000DB48FFF705FF10E0A178D94AD08801F063
:102BE00019FBD749C9880B3188B26A46022101F026
:102BF00023FB02213A2001F0C3F90020F8BDF0B513
:102C000085B00C461E4600200390002780200290CD
:102C10003012CB490979884271D12188C848C088CF
:102C2000801C814201D101276AE02188C448C08804
:102C3000001D814201D1022762E02188C048C0887E
:102C4000801D814201D103275AE02188BC48C088F9
:102C50000830814201D1042752E02188B848C08859
:102C60000B3081424CD1218903916846808900282C
:102C700003D068468089012813D10020029068465D
:102C80008089002806D1AE48007A40084000AC494F
:102C9000087208E0AA48007A01210843A84908728E
:102CA00001E080200290029800281CD1208803AA0D
:102CB000022101F0C1FAE079002814D0A04801886F
:102CC00004233A22A048401C01F0D2F905469C4951
:102CD000087901F087FA2880694689896980284641
:102CE00001F0D8F900BFA079002805D02188944AC6
:102CF0001079029A01F0A6FA002005B0F0BD7FE03D
:102D0000002F7DD0208822460832012101F094FA5C
:102D100000200290012F06D0022F46D0032F70D042
:102D2000042F6FD1CBE06088A188401801214902AF
:102D3000884239DCA088002806D161882088224694
:102D4000083201F079FA06E0A288618820882346DB
:102D5000083301F07DFAE079002825D000210191A7
:102D60000020009020886A4601A901F077FA744893
:102D70000188764B3A227448801C01F079F90546A7
:102D80006F49087901F02EFA28800120A870684662
:102D90008088A88068468288A81D009901F0BAF84A
:102DA000284601F077F900BFD3E06088A188401879
:102DB000FF21013188423EDCA088002806D16188CD
:102DC00020882246083201F037FA06E0A28861889E
:102DD00020882346083301F03BFAE07900282AD006
:102DE000002101910020009020886A4601A901F08D
:102DF00035FA53480188FF2307333A22524802E04C
:102E0000B1E019E0A4E0C01C01F032F905464C49DC
:102E1000087901F0E7F928800220A87068468088C8
:102E2000A88068468288A81D009901F073F828469A
:102E300001F030F900BF8CE06088A1884018FF21C4
:102E4000013188423ADCA088002806D161882088B8
:102E50002246083201F0F0F906E0A2886188208855
:102E60002346083301F0F4F9E079002826D0002148
:102E700001910020009020886A4601A901F0EEF936
:102E80002F480188FF2307333A222F48001D01F005
:102E9000EFF805462A49087901F0A4F928800320B3
:102EA000A87068468088A88068468288A81D009916
:102EB00001F030F8284601F0EDF800BF49E06088E5
:102EC000A1884018012839DCA088002806D1618833
:102ED00020882246083201F0AFF906E0A288618816
:102EE00020882346083301F0B3F9E079002825D083
:102EF000002101910020009020886A4601A901F07C
:102F0000ADF90F48018808233A220F48401D01F00F
:102F1000AFF805460A49087901F064F928800420D1
:102F2000A87068468088A88068468288A81D009995
:102F300000F0F0FF284601F0ADF800BF09E0000006
:102F4000248000206845002005E8000006020000FB
:102F500000BF00BFA079002805D02188214A107940
:102F6000029A01F06FF90020C7E6F8B506460C4654
:102F700017461D4628121B490979884202D120882C
:102F8000FFF7B2FD0020F8BDF8B506460C4617461F
:102F900000251449087901F025F92188884218D1C3
:102FA0001048007AC007C00F012810D10D49C98808
:102FB0000A3188B2A21C032101F03EF90948C088F9
:102FC0000A3082B200210748FFF722FD02E08A257D
:102FD00000E08125002D02D02846FFF79DFD00204E
:102FE000F8BD00002480002008B5012000900C21CD
:102FF000514801F003F901204F49C8700A1D694684
:10300000352001F031F9002802D001204A49087129
:1030100000F0F0FB4949322001F0F6F8002132209F
:1030200000F0AEFF08BD10B5002400F090FC04468F
:10303000204610BD10B540488078000201460E3190
:10304000022332223E4801F013F80446012020708A
:1030500013206070204601F01DF810BD70B50546C4
:1030600035488078000201460E312C233222344844
:10307000801E00F0FDFF0446282005550021292070
:103080000155204601F006F870BD10B550233222DC
:103090000D212C4800F0ECFF0446204600F0D0FB48
:1030A000204600F0F7FF0221322000F069FF10BD3A
:1030B00010B5012332220D2122480B3800F0D8FF31
:1030C000044602202070204600F0E4FF10BD10B539
:1030D00000F058FC10BD70B505460E4614461A485F
:1030E000844201DD044602E0002C00D10124224686
:1030F0003146284601F0BEF870BDF8B506460F46C9
:103100001546252332220D210E48C01C00F0B0FFC9
:103110000446012020770622394620461D3000F063
:10312000F9FE2320065565822582204600F056FCD4
:10313000204600F0AFFFF8BD308000208846002018
:10314000043800000E34000030750000F8B5064663
:103150000F461446204600F025FF00280CD101231D
:1031600032220D21574800F083FF054601202870C8
:10317000284600F08FFF00BF0020F8BDF8B50746D5
:103180000C46154620780F282ED008DC01280DD0DB
:1031900002282DD003281DD00E2834D120E010287D
:1031A00027D0112826D012282DD126E060780028BB
:1031B0000FD1222332220D214248801C00F058FFFB
:1031C00006463146284600F0DEFB304600F062FF3E
:1031D00000BF19E06078002801D100F0EAFB13E09D
:1031E000607800F0F4FB0FE0607800F0F1FB0BE09A
:1031F00000BF00BF00F0F1FB06E06078442801D179
:1032000000F0EEFB00E000BF00BF0020F8BDF8B505
:1032100007460C4615461E46284600F0C3FE022807
:1032200005D1301228498870204600F0E8FA0020C5
:10323000F8BDF8B506460C4615461F4620780A2804
:1032400012D1284600F0AEFE04280CD16078002888
:1032500003D0607800F0B9FB05E00521284600F0B6
:103260008FFE00F0B3FB00E000BF00BF0020F8BD00
:10327000F8B506460D4614461F462946204600F07E
:1032800056FB0020F8BDF8B506460C4615461F460D
:10329000284600F087FE012808D12078002805D1B3
:1032A000FFF7C1FE002801D000F093FB0020F8BD1D
:1032B000F8B505460C4616461F46204600F08FFB23
:1032C0000020F8BD023400003080002001460020BC
:1032D0000A68002A04D0086842680A600022426036
:1032E00070470246002901D100207047106800286D
:1032F00001D1116007E0136800E05B68586800289E
:10330000FBD1596048600120EFE770B50546032105
:10331000082000F0B5FF0446002C00D170BD032149
:10332000284600F0ADFF20602068002804D1204628
:1033300000F0ACFF0020F1E7002060602046EDE7E0
:1033400010B50446002C00D110BD2068002801D122
:10335000FDF782F8206800F099FF204600F096FF04
:103360000120F1E70146002000E0401C0A5C002A31
:10337000FBD17047FFB583B01E4635460020029052
:103380000498102802D9002007B0F0BD0398002847
:1033900004DA0120029003984042039000BF049990
:1033A000039800F07BFD019101980A2802DA019848
:1033B000303008E00598002801D0412100E061216B
:1033C000019808180A3828706D1C0499039800F0B9
:1033D00065FD039003980028E1DCAF1B3C4603E049
:1033E000302028706D1C641C0C988442F8D302981D
:1033F000002802D02D2028706D1C00202870AF1BE3
:10340000002408E0305D391B491E715C3155391BC1
:10341000491E7054641C7808A042F3D83846B3E7BC
:1034200030B504462068401A401C904201D3002069
:1034300030BD206803702068401C20600020256893
:1034400028700120F4E7F0B50446059D2068401A75
:10345000101A401EA84203D22068401A101A451EB6
:10346000002606E0985D276838702068401C2060C0
:10347000761CAE42F6D30020276838701046F0BDA7
:10348000FFB58DB0074615460C97002005902C78A7
:103490006D1C00BF0C98C01B401C0E99884200D3C5
:1034A000E0E0252C06D0234639460CA80E9AFFF7FB
:1034B000B7FFD2E0002004902C786D1C302C0ED188
:1034C0002C786D1C002C00D1CEE0302C05DB392C83
:1034D00003DC20463038C0B204902C786D1C6C2C74
:1034E00001D0682C02D105942C786D1C692C11D068
:1034F00008DC002C0DD0582C3AD0632C77D0642CEB
:1035000073D108E0732C7DD0752C2FD0782CF7D197
:103510002DE0A9E000BF0598682806D11098006842
:1035200002901098001D10900FE005986C2806D1AD
:103530001098006802901098001D109005E01098F7
:10354000006802901098001D1090049806AB0022AD
:103550000A2100900298FFF70DFF064606AB009681
:1035600039460CA80E9AFFF76EFF74E000BF00BF4B
:103570000598682806D11098006802901098001DE0
:1035800010900FE005986C2806D110980068029002
:103590001098001D109005E0109800680290109897
:1035A000001D1090752C09D1049806AB00220A2149
:1035B00000900298FFF7DEFE06460DE004980090AA
:1035C000582C01D1012000E00020024606AB10215A
:1035D0000298FFF7CFFE064606AB009639460CA8C8
:1035E0000E9AFFF730FF36E001E01DE00AE0109888
:1035F00002C8CCB21090234639460CA80E9AFFF7A9
:103600000FFF28E01098006803901098001D10909C
:103610000398FFF7A7FE0290009039460CA8039B81
:103620000E9AFFF710FF16E0252062A3009039469E
:103630000CA80E9AFFF707FF234639460CA80E9AEE
:10364000FFF7EEFE022065A3009039460CA80E9A03
:10365000FFF7F9FE00BF00BF00BF2C786D1C002CE7
:1036600000D017E700BF00BF0C98C01B11B0F0BD21
:10367000FFB581B004460D4616463246294620461F
:10368000049BFFF7FDFE0746384605B0F0BDF8B5D0
:1036900007465348FFF71AFE05462846FFF750FE37
:1036A000FEF748F94E48006800280CD04C480068E6
:1036B00004682046FFF756FE06464A4A3146204631
:1036C000FEF76EF901E0FDF73FFAF8BD0FB470B5F3
:1036D000C2B045480078002805D0002042B070BC38
:1036E00008BC04B0184747A84190FF21013101A848
:1036F000419B469AFFF7BCFF0020419001A8FFF7CD
:1037000031FE0546681CFFF700FE0446002C2FD052
:1037100001A9206800F044FA00BF00BFEFF3108059
:103720000646012080F3108800BF2D48006800285D
:1037300002D101202D49087021462948FFF7D1FD0B
:10374000002808D12046FFF7FBFD25480068002827
:1037500001D126490870002E04D1002080F3108882
:1037600000BF04E0012080F3108800BF00BF00BF4D
:103770000120B3E710B5044621461DA0FFF7A6FFC0
:1037800010BD10B519480078002811D0FDF719FABE
:10379000134909680868FFF7E5FD04461049096800
:1037A000104A08682146FEF7FBF800200F49087010
:1037B00010BD0000464154414C3A20756E7375703F
:1037C000706F72746564207072696E7466206368CD
:1037D000617261637465723A200000002E0A000075
:1037E000408000208F360020C4060800448000205E
:1037F0002573000010B500F007F910BD704710B533
:10380000044678488078FF2817D07649088800F069
:103810000EF90521322000F0B3FB208871490880A1
:10382000607A4871062221460A316E48801D00F0F8
:1038300071FB0020FFF712FC01E0FFF726FC10BD32
:1038400030B591B004460E202070002060706648AC
:10385000A081E08107202074012060741C21E174A4
:103860001F213020015522461432511E0B2000F03A
:10387000FBFC002807D00021E174E27C5BA120461C
:10388000143000F047FB22463132511E0C2000F06C
:10389000EBFC002808D0002130200155025D55A125
:1038A0002046313000F036FBE07C1C21081A801ED7
:1038B00045B2002D39DD3E2010906A4610A9022045
:1038C00000F0D2FC002807D00B21109110A802783C
:1038D00049A1684600F0E0FC10A80078002824DD2B
:1038E00010AA10782946884201D2024600E00A4612
:1038F000D0B2109010A90878401CC1B2E27C2046DA
:10390000143081540922E17C491C4254E27C921C0F
:103910000146501810A90A78694600F0FBFAE27CCB
:1039200010A90878801C1018E07411B030BD70B573
:1039300005460E46284600F035FB0446032C03D00E
:10394000052C01D0042C01D1FFF79FFB70BD10B5F1
:10395000002402202B4908702248C07802280EDA81
:103960002048C078012802D100F053F800E000BFE1
:1039700000BF1C48C078401C1A49C87000E00124F0
:10398000204610BD704703220A700A224A700022A6
:103990004A820A754A751722CA8208220A831022AF
:1039A0004A8300228A836422CA830023202253543C
:1039B000704710B50121322000F0E2FAFFF733FB27
:1039C000002801D0FFF761FB10BD704770477047BA
:1039D000704710B5FFF759FB10BD7047704770472F
:1039E00070470000308000204C04000007010318DD
:1039F0000000000002FF00005A484959414E472D7F
:103A000048505300C890002010B51AA0FFF75EFE82
:103A100010BD10B5012332223A21194800F028FBCD
:103A2000044600202070204600F034FB10BD70B525
:103A30000546062332223A21880200F019FB04468B
:103A400025800120A070204600F024FB70BDF8B551
:103A500005460E461746062332223A210848801EA4
:103A600000F006FB0446258066802771204600F0A2
:103A700011FBF8BD68707320696E69740A0000005C
:103A800004E80000F8B507460C461546284600F045
:103A900089FA01280CD1012332221146900200F04C
:103AA000E7FA064620783070304600F0F3FA00BF9F
:103AB0000020F8BD10B50446002010BDF8B506463C
:103AC0000D461746062332223A21334800F0D0FA39
:103AD00004462888208031486080012121712046D9
:103AE00000F0D8FA0020F8BDF8B506460D46174696
:103AF000062332223A21284800F0BAFA04462888E0
:103B000020802648608002212171204600F0C2FA00
:103B10000020F8BDF8B506460D46174606233222AA
:103B20003A211D4800F0A4FA0446288820801B484A
:103B3000608003212171204600F0ACFA0020F8BD1E
:103B4000F8B506460D461746062332223A2112489A
:103B500000F08EFA044628882080104860800421F6
:103B60002171204600F096FA0020F8BDF8B506460F
:103B70000D461746062332223A21074800F078FA0C
:103B8000044628882080012060800221217120467F
:103B900000F080FA0020F8BD02E80000AA550000FD
:103BA00003460A780270491C401C002AF9D11846C5
:103BB0007047024670B54A40D30FDB0740002DD056
:103BC0004A002AD0010E140E091900021202400AFE
:103BD000520A8418E50104465443000A120A2E04CE
:103BE0005043A4194219200CC543AA18120C0125F0
:103BF0007F39521CAD0352191204240400D0521C08
:103C0000104301D44000491EC2B20C06C00920185E
:103C1000401C4008802A02D003E0002070BD40080C
:103C20004000002900DA0020184370BD70B502463C
:103C30004A40D50F40004A00ED07400852080028CE
:103C400016D0002A14D041000C0E51000B0E410278
:103C50000120C0055202490A520AE41A0918121832
:103C60007D34914201D3641C00E04900002C01DA4C
:103C7000002070BD0023914201D3891A03434008FC
:103C800049000028F7D100290AD0914202D1012130
:103C9000C90705E0914201D2012101E00121C94398
:103CA000E005C018401900F050F870BD10B50022B2
:103CB0009623114600F051F810BD40004008C10D98
:103CC00040020122400AD20580187F2901DA002033
:103CD0007047962903DC9622511AC84070479639DE
:103CE00088407047C20FD207400040080ED0C10D77
:103CF0000723DB01C918090540021143400A0022CD
:103D0000C30852071A434007114370470020014679
:103D10007047CB0FDB07490010B5490802460A433C
:103D200007D00A0D07240903E401090B121B002A1E
:103D300001DC002010BDC900440F0C43C100E01895
:103D4000D205801800F001F810BD002904DA401CEB
:103D5000490001D140084000704770B40024050CB0
:103D600005D11024000402D1002922D01124050E0F
:103D700001D108340002050F01D1241D0001850F77
:103D800001D1A41C8000002801DB641C4000002934
:103D900008D020252E1B0D46F540A14000D0012162
:103DA0000D4328431B1B0106DB1D000A002B02DA12
:103DB000002070BC7047DB05181880180029F8DA5D
:103DC000401C4900F5D170BC40084000704700001D
:103DD000064C0125064E05E02046E36807C82B4344
:103DE00098471034B442F7D3FCF72EFB104700205D
:103DF0004047002003B40148019001BD551B02005B
:103E000003B40148019001BD0F3B030003B4014816
:103E1000019001BDCF2B030003B40148019001BD07
:103E2000CB2C030003B40148019001BD09900200AE
:103E300003B40148019001BD1F21020003B40148F1
:103E4000019001BDC12D030003B40148019001BDE3
:103E50000921030003B40148019001BDC92D0300ED
:103E600003B40148019001BD2B69020003B401486D
:103E7000019001BDEB31030003B40148019001BD85
:103E80003D32030003B40148019001BDD721030076
:103E900003B40148019001BD8D3D030003B4014806
:103EA000019001BDA73A030003B40148019001BD90
:103EB000913B030003B40148019001BDD33A0300D4
:103EC00003B40148019001BD2F2F030003B4014842
:103ED000019001BD938F020003B40148019001BD20
:103EE000CD8C020003B40148019001BD418F020056
:103EF00003B40148019001BD2768020003B40148E2
:103F0000019001BD3968020003B40148019001BD70
:103F1000B780020003B40148019001BD213B0300BA
:103F200003B40148019001BDBF22020003B401485F
:103F3000019001BDEB26030003B40148019001BDCF
:103F40003524030003B40148019001BD2F22020073
:103F500003B40148019001BDDD20030003B4014812
:103F6000019001BD533B030003B40148019001BD22
:103F70009D20030003B40148019001BD33500200AD
:103F800003B40148019001BD3126030003B4014888
:103F9000019001BD5548020003B40148019001BDE4
:103FA0001F50020003B40148019001BDB326030075
:103FB00003B40148019001BDFD3D030003B4014875
:103FC000019001BDA528030003B40148019001BD83
:103FD000D5AF020003B40148019001BDA1A50200C4
:103FE00003B40148019001BDE3A5020003B40148F8
:103FF000019001BD87A8020003B40148019001BDF2
:10400000A7A9020003B40148019001BD93AA0200D0
:1040100003B40148019001BD95AB020003B401480F
:10402000019001BDF9AB020003B40148019001BD4C
:1040300069AC020003B40148019001BD17AD020054
:1040400003B40148019001BD77AD020003B40148FB
:10405000019001BDF1AD020003B40148019001BD22
:1040600085AE020003B40148019001BD11AF02000A
:1040700003B40148019001BDB123030003B401481A
:10408000019001BD49E5020003B40148019001BD62
:10409000F9E3020003B40148019001BDE1230300EC
:1040A00003B40148019001BD4BCD020003B40148A7
:1040B000019001BD99D1020003B40148019001BDF6
:1040C000ABD0020003B40148019001BD69D00200E9
:1040D00003B40148019001BD77CF020003B4014849
:1040E000019001BD01CC020003B40148019001BD63
:1040F00029CC020003B40148019001BD15D2020091
:1041000003B40148019001BD8DD2020003B40148FF
:10411000019001BD7F0C030003B40148019001BD73
:10412000AB0C030003B40148019001BD773B0300D1
:1041300003B40148019001BD7920030003B4014894
:10414000019001BD2129030003B40148019001BD84
:10415000D990020003B40148019001BDC768020074
:1041600003B40148019001BD0D2C030003B40148C4
:10417000019001BDB9C7020003B40148019001BD1F
:10418000652C030003B40148019001BDF7930200C0
:1041900003B40148019001BDDB2E030003B40148C4
:1041A000019001BD231D020003B40148019001BD2F
:1041B000C32C030003B40148019001BD3B6602001B
:1041C00003B40148019001BD2B66020003B401480D
:1041D000019001BD038D020003B40148019001BDAF
:1041E000CF8F020003B40148019001BDE3E3020058
:1041F00003B40148019001BD95E3020003B40148F6
:10420000019001BD533B030003B40148019001BD7F
:104210008725030003B40148019001BD7B9C020087
:1042200003B40148019001BD459F020003B4014859
:10423000019001BDB7E3020003B40148019001BD44
:104240006D9B020003B40148019001BDF3AF020071
:1042500003B40148019001BD2B9B020003B4014847
:10426000019001BDA59B020003B40148019001BD6E
:10427000D129030003B40148019001BD25280300A2
:1042800003B40148019001BD1522030003B40148A5
:10429000019001BDD722030003B40148019001BD84
:1042A000213B0300FFB583B006460F463A46012482
:1042B000002520462946FFF7EBFD320101910290CF
:1042C000FFF7E6FD0F4B1A685B68104019400023AA
:1042D00058405940084301D1FCF7BCF80C9800281D
:1042E00004D03946304600F00FF803E03946304636
:1042F00000F03CF839463046069B059A00F068F815
:1043000007B0F0BDC0900020F0B585B004460D4662
:104310002A460126002730463946FFF7B9FD22011B
:1043200002910390FFF7B4FD0E4B1A685B681040D2
:104330001940002358405940084301D1FCF78AF83E
:10434000032C00D104246001074940180190019812
:10435000801C00900120A84081B20098018005B027
:10436000F0BD0000C090002000300050F0B585B0D6
:1043700004460D462A460126002730463946FFF7F7
:1043800087FD220102910390FFF782FD0E4B1A6810
:104390005B6810401940002358405940084301D140
:1043A000FCF758F8032C00D1042460010749401899
:1043B00001900198001D00900120A84081B2009852
:1043C000018005B0F0BD0000C0900020003000501A
:1043D000FFB585B004460D462A4601260027304623
:1043E0003946FFF755FD220103910490FFF750FD78
:1043F0000F4B1A685B681040194000235840594021
:10440000084301D1FCF726F8032C00D104246001F5
:1044100008494018029069000298801D0818019010
:104420000899079801430198018009B0F0BD000088
:10443000C090002000300050F0B585B000240CE0A2
:10444000002507E00021282060432C4A8018AA009C
:1044500081506D1C0A2DF5DB641C042CF0DBFCF78D
:1044600045FC0021264A11605160002441E00025EE
:104470003BE00120A84080B2029060002149085A28
:104480000299084200D132E0282060431B494018BD
:10449000A9004058401C04D101940095FBF7DAFFB5
:1044A00000BF2820604315494018A9004058002843
:1044B00000D119E02820604310494018A90046584F
:1044C000F7172A4630463946FFF7E2FC22010391EE
:1044D0000490FFF7DDFC0A4B1A685B681043194330
:1044E000074A1060516000BF6D1C0A2DC1DB00BF80
:1044F000641C042CBBDB05B0F0BD00002090002044
:10450000C09000205E45002002E008C8121F08C1CC
:10451000002AFAD170477047002001E001C1121F44
:10452000002AFBD170470000AD050020091C0020C7
:10453000F51C0020B31D0020E11D0020451B0020BC
:10454000A91B0020ED1F00200101000A04280A0415
:104550000203AA0055032A00A001FFFF2C01FF005F
:104560003F00FF03FF0100000028010002000200DD
:104570001046002003280100050005001246002017
:10458000B62A080000020000000000000328010015
:104590000500050017460020B72A090000010000A9
:1045A0000000000003280100050005001C46002053
:1045B000B92A0900000100000000000003280100E2
:1045C0000500050021460020BA2A0800010000006D
:1045D0000000000003280100050005002646002019
:1045E000B82A0002030000000000000002290900B0
:1045F0000200000000000000032801000500050083
:104600002B460020BB2A0100010000000000000032
:104610002018080000B62A0A0000B72A0A0000B9CC
:104620002A080000BA2A100000B82A020000BB2A9B
:1046300068460020804600202E80002003000100F4
:1046400004E80000512B002000E80000A32B00200C
:104650000E300000FF2B002002E80000892F002010
:10466000033800006B2F00204046002001000000AE
:1046700048460020010000005046002002000000D3
:1046800060460020010000000000000008470020F4
:104690003C80002006000100013400004D31002064
:1046A000003400007D31002000380000333200204B
:1046B000013800000F320020033800007132002062
:1046C00000C800008732002010340000B132002002
:1046D00001E80000B53A002005E80000853A002016
:1046E00007E80000BD3A002008E80000E93A002091
:1046F00009E80000153B00200AE80000413B0020CB
:1047000006E800006D3B0020984600200E000000E7
:104710005C47002000800020480000001845002071
:104720005C47002020900020AC00000018450020CD
:1047300068070800F41108000C1E0000184500204E
:104740000000000000000000000000000000000069
:0C4750000000000000000000000000005D
:040000052000044192
:00000001FF
