:020000042000DA
:1000000000980020AD040020B5040020CD0400209D
:1000100000000000000000000000000000000000E0
:10002000000000000000000000000000E5040020C7
:100030000000000000000000FD040020FF0400207C
:10004000C1270020053103000D31030015310300E5
:100050006B2800208D310300B5280020BD2800202A
:10006000010500204B120020D5280020AD310300EF
:1000700057810200010500204B1B02004B1B0200B0
:100080004B1B02004B1B02004B1B02004B1B0200D0
:100090004B1B02004B1B0200010500204B1B020002
:020000042000DA
:1001600032000000210600203D100020B93600209A
:10017000000000000000000063800200BD8002005B
:10018000970E0020FB8002001981020035810200D9
:100190005D8102003D280020070600206B0E002034
:1001A000810E002000000000000000003F00000061
:1001B000F48B002000040000740B080048010000CC
:1001C0006807080000040000C80C080020050000B3
:1001D000000000002000000048000000580000005F
:1001E0006800000004010000160100002801000062
:1001F0002E010000202A00008E2E000001000000C9
:1002000088130000C7100020E9600200FD9302007F
:10021000831D002019280300A5740200D1230020AB
:1002200003000000D5200200D136002004000000A9
:10023000D74902000F490200831D020063910200AA
:10024000B7910200BF910200078202007182020092
:100250005C610020AD8302009384020041850200AE
:1002600015860200378602005F860200758602004E
:10027000F9870200258902005D8A0200D38C020002
:10028000098D02000F900200438D0200278E0200AC
:10029000F98E0200478F0200998F0200D58F02006D
:1002A00049510200775102002F5202001000000055
:1002B00020030000803E000000000000000000005D
:020000042000DA
:1002C000504600030003983A6400F401B80B000C98
:1002D000B80B120030003000CD009A01120024004B
:1002E00030006400B0001800280012001200D0078F
:1002F0000000FFFF00000000000000000000000000
:100300001F000002444131343538302D30310000B7
:1003100000000000000000000000000000000000DD
:0403200000000000D9
:020000042000DA
:10034000FFFF010000C201000000000000000000EB
:100350000000F4010100011B070A1AFFD200021578
:10036000585CDE931B0142CC9A1325009BEDC65EC0
:1003700000000000C5000000000009FF00605257A7
:100380002D424C450000000000000000000000006D
:1003900000000000000000000000494E464F525F80
:1003A0004C494E4B0000000000000000000000001F
:1003B000000000000000000000000000000000003D
:1003C000000000000000000000000000000000002D
:1003D0000000000000000000010000CAEA80D00711
:0403E00006D06432AD
:020000042000DA
:100440000348854605F0B2FA00480047C72002007D
:100450000098002000BE000010B5114881683E22BF
:1004600091432E3181600F4906200880FF200E49FC
:10047000013008600021052000070180028A0F2357
:100480001B021A4302820122D204032308461B03E3
:1004900084182160001D9842FADB62B610BD00008E
:1004A000003300500034005080E100E015488047E0
:1004B0001548004704207146084203D0EFF3098035
:1004C00012490847EFF30880104908470420714695
:1004D000084203D0EFF309800D490847EFF3088085
:1004E0000B49084704207146084203D0EFF3098006
:1004F00008490847EFF3088006490847FEE7FEE78A
:10050000FEE700005904002041040020250A0020D5
:10051000190500208F05002010B505221207518A09
:10052000802319435182124903680B6043684B6072
:1005300083688B60C368CB6003690B6143694B615F
:1005400083698B61C069C8610A48836A0B62C36AA8
:100550004B62036B8B62C36BCB62436B0B63806B31
:100560004863908A800602D5FFF774FF10BDFEE74E
:100570000018080000ED00E082688868CC49101A75
:1005800080B2884201D901207047002070478169FC
:100590002039897F082904D2C64A890051588161CF
:1005A0007047FEE7C548C4490161C5494161C54975
:1005B0008161C549C161C5490162C5494162C549F9
:1005C0008162C549C162C5490163C5494163C549E5
:1005D0008163C549C163C349B8485C31403001609B
:1005E000C2494160C2498160C249C1600120C2491B
:1005F000C0060860C149CA691202120ACA61BE492E
:1006000080390860704710B5BD490020086000F0CF
:10061000DAFB01208007016B49004908016310BD26
:100620001CB5B84801260670B749C82008800020CC
:100630004880B64D08246C8005F0CAF905F01CFD11
:1006400000F0EEFAB24801780170B248017801700A
:10065000012005F0C3F90D206101800105F0C4F906
:1006600001F0C8FF00F054FC00F004FBAA4F3889E9
:1006700040094001388138890F2189028843691473
:1006800040183881A54878822620B8820720F88251
:10069000A34838837E8378881E218843143078806D
:1006A000042000F0FEF8072000F0FBF80A2000F01C
:1006B000F8F8062000F0F5F80B2000F0F2F8012021
:1006C00000F0EFF8022000F0ECF8002000F0E9F86C
:1006D0009448006805F08EF9E00601688215114320
:1006E000016000F03CF990480068AA2805D1142068
:1006F00000F02EFB142000F039FB03F001FCFFF7A3
:1007000082FFA22005263607F08283484188E02236
:100710009143A03141808548006B007800280CD0BF
:10072000002005F06DF905F071F98027022806D048
:1007300005F06CF9012802D008E00120F1E72C80D7
:10074000B08A800602D5708A384370826E49C8200C
:1007500008806C8002253089000621D501208007A1
:10076000006B00041CD405F057F9C00718D1042011
:1007700005F058F9044605F05BF9002C10D0002074
:10078000019069480068AA2802D1142000F0EEFA0E
:10079000042101A805F052F9002801D000F028FB3F
:1007A00072B661480068AA2801D100F00CFB01F084
:1007B00049FF69460870042806D002280CD0032897
:1007C0000AD0012867D067E059480078012802D094
:1007D0000320087000E00D70308A0424204330822A
:1007E00052484038C0690128087811D9032849D1F6
:1007F00005F02AF9002845D005F02CF9002841D051
:10080000032005F02DF900283CD04A48057008E087
:10081000032837D105F024F9002833D045490120B9
:100820000870364A106920431061708A202188437D
:100830007082308A28433082684600780228708AA5
:1008400022D0204370827F2031888001394331805B
:100850000021491CC9B20A29FBD3718A102319430C
:1008600071823549401E48613088B84330802A4B38
:100870005888FF2101318843588030BF1069A04358
:10088000106109E06846C1E720437082708A102138
:1008900088437082EBE730BF62B6C8201A490880EF
:1008A00059E7C106C90E01208840244908607047F5
:1008B000307500003C610020942703000084004054
:1008C00062B600DF28A30200704701DF1CCA0200E5
:1008D000F8BD02DF40CB0200F5E703DF84D402005D
:1008E00004DF89B0BC330200F8BD05DFF8BD06DFC8
:1008F000EC0C030070BD07DF80E100E000ED00E0DC
:100900008C030800008000200031005000330050AC
:1009100000000800202A0800200000504E020000BD
:1009200077770000049000200C8000202002002037
:1009300054020800C40608000080004080E200E085
:100940007047000033480178002902D080214170AF
:1009500070473149002008703049C87070472D48F1
:100960000178002902D08121417070472A49012075
:1009700008702A49C870704726480178002902D0BB
:1009800082214170704724490220087023490120C8
:10099000C87070471F498878002804D0401E0006A0
:1009A000000E887017D148780022002804D08007F4
:1009B000800F08704A7004E00878002801D0401EBB
:1009C00008700006000E0A7005D0012802D0022827
:1009D00001D1D1E7C3E7704710B50E4CA078401C99
:1009E000A0702078002805D105F010F8421CFFF710
:1009F000A9FF227010BD07490120C8707047054942
:100A00000020C87070470348C078704704480078D9
:100A1000704700000180002054020800C60608004C
:100A20002B80002010B505221207118A04231943D8
:100A30001182118A0223194311821189402319431B
:100A40001181184B01211960174B08211980518A17
:100A5000802319435182154903680B6143684B6138
:100A600083688B61C368CB6103690B6243694B6226
:100A700083698B62C069C8620D48836A0B63C36A6D
:100A80004B63036B8B63C36BCB63436B0749403191
:100A90000B60806B4860908A800602D5FFF7DAFC15
:100AA00010BDFEE780E200E000330050401808006F
:100AB00000ED00E070B56A4D0020E96AC0430029EE
:100AC00001D0024600E00122D117D30B4904654E44
:100AD0001943EA623368520474681A43214332604E
:100AE0007160E969002901D0014600E00121CA17BF
:100AF0004B0ED2011A43E9613368C9017468194386
:100B0000224331607260A96A002901D0024600E0E8
:100B10000122D117130C09041943AA623368120485
:100B200074681A432143326071602968002901D03A
:100B3000014600E0012129603368CA17746819432F
:100B4000224331607260A969002901D0024600E0A9
:100B50000122D117930E89011943AA6133689201CA
:100B600074681A432143326071606969002901D0B9
:100B7000024600E00122D117D30E490119436A61F0
:100B80003368520174681A43214332607160E96826
:100B9000002900D10120C117420FC900E8601143AC
:100BA0003368C0007268184311433060716070BDD3
:100BB00038B50024FF220121234601320846009463
:100BC00005F0A0F9032500232D022A460721184627
:100BD000009405F097F900232A4619460120009455
:100BE00005F090F90120009008232A4603210020F7
:100BF00005F088F9002107232A460846009405F0ED
:100C000081F906232A4619460020009405F07AF956
:100C10000523002219461046009405F073F938BDEB
:100C200010B505242407208A022188432082A08A47
:100C30000007FCD50C484188FF2201321143418056
:100C4000FFF7B0FCFFF7B4FF0721002003F0FAFC28
:100C500003F022FE608A20210843608210BD00005C
:100C6000289000202090002020000050974900206C
:100C70004860704770B50520000701893022914314
:100C80000181018980231943018101898908890033
:100C9000491C018101890824214301818C4A118862
:100CA00019431180418AA14341820189402529438A
:100CB0000181018A0426B1430182818A8907FCD51A
:100CC000824E0021716011880126314311805189C3
:100CD0008E058049168801D50E4300E08E431680AC
:100CE00011887826B14328311180118806263143B6
:100CF0001180418A214341821188994311800189E1
:100D0000A94301815089800503D5714905206031CF
:100D100088800120800701688215914301606E4838
:100D200001683F2252029143421489180160016810
:100D300002031143016070BD0320684900028881ED
:100D400008224A800020401C9628FCD38A807047E5
:100D500063494880088803221043088008880422D9
:100D600010430880594901200870704770B5574CEE
:100D700002462078002825D0594801884907FCD42C
:100D8000C1888088090409185648504304F06EFE53
:100D900000212170A06004F077FD0546014652480D
:100DA00004F01BFD0A2104F058FD04F074FDE0601E
:100DB000284604F085FD4D4A4D4B04F05DFE04F0DD
:100DC00096FD206170BD10B540484168AA290CD03D
:100DD0007C204849081884B24749204604F046FE62
:100DE000081980B204F04EFE10BDC068000AF0E79A
:100DF00010B5002241480121C163C16B0029FCD11B
:100E000001208007C0693E490B68984201D2002347
:100E10000B603C4C002A03D0086004F039FE10E05F
:100E2000C21A1923DB019A4211D3086004F030FE84
:100E30002188884201D9411A00E0091A89B218298B
:100E400005D32080012004F029FE04F02DFE10BD02
:100E500010B51E49896848432B4904F007FE10BDB0
:100E60001A49C9684843800A704710B5174949684C
:100E7000002902D0FFF7ECFF10BD04F01BFE10BDEF
:100E800010B512494968002902D0FFF7E9FF10BDEB
:100E900004F016FE10BD10B51C4B0120596949061F
:100EA000C90F10D059698906C90F0CD000211961EA
:100EB000FF225F32491C9142FCD35969C907C90F0F
:100EC00002D004F003FE002010BD000008800020C6
:100ED00020000050001000000002004020300050B0
:100EE000001600500024F400002474497B14AE471F
:100EF000E17A443F0112000071020000C00000408E
:100F00007C0408007804080040420F0000100050E4
:100F100030B59B489B4BC4052188802529432180FF
:100F200099494A89120701D4401EFAD297490120F3
:100F30000860974918880880964958880880208852
:100F4000A843208030BD002070477047704770472D
:100F50000020704701218907086B072210430863AE
:100F60007047704710B58D498B4808608C494C20FC
:100F700008808B4B8B4A203B1A828C498A484880D8
:100F80008C488B4901808A49193141802221418155
:100F900081218900018288494182884901838649EB
:100FA0001131418383498648203188804121854819
:100FB000090181808449C180834C1034C48101823D
:100FC0004182891C8182611FC182FF2146310183D8
:100FD0007E4941837E49592008807D487D4C2030E0
:100FE0000480432444807C4C4C82D5218180FF21A5
:100FF000D331018179494181794981817A4979489F
:1010000008806748794960384180C18810242143AD
:10101000C18070490A390181614C7549403C618049
:101020005A82082141815B48694900884039088219
:10103000574870490088088010BD704700B58BB0D4
:101040006D4A42626D4A82626D4A42616D4AC26275
:101050006D4A02606D4A02626D4A42606D4AC26129
:101060004E4A4D48002110604C484038026B031234
:101070009A430263426B1F231B049A4303231B04FE
:10108000D218426364480368C21293430360026843
:1010900003139A43026068464154491CC9B2282987
:1010A000FAD3014628225D4804F016FDFFF75AFFE7
:1010B00004F0EEFC5A490880002004F0EFFC04F034
:1010C000F3FC0BB000BD10B534490F2232481202B8
:1010D000086032484038416B1F231B0499430323A7
:1010E0001B04C918416300060168C908C9000160F2
:1010F00005200007018989088900491C01810189AF
:10110000082319430181018A114301821E48018984
:1011100049094901018101899200914342148918CA
:101120000181294920314182262181820721C18202
:101130002C49DC3901830121418341881E229143DE
:101140001431418037490968002907D1418989054F
:1011500004D501887822914308310180FFF702FF0E
:101160003148006B0078002808D0304800880C49CE
:101170006039C880002004F043FC10BD0120FAE76C
:10118000A0860100087F040020000050008000407D
:10119000560208004A0308004C055407800000402E
:1011A000602C00507F7F0000AC290000002200501E
:1011B00009090000002400502204000030D0000083
:1011C000EE110000002500502E0200004420000017
:1011D000402800500D95000002420000E4DC0000B1
:1011E0001092000053780000002A00508B1000007D
:1011F0009DD5000000260050470F00204B0F002017
:10120000510F0020550F00204D0F0020630F0020CC
:101210004F0F00203B10002000020040200008007B
:10122000780408000C8000202002002052040800EE
:101230003B480078002802D00020C04370470120BE
:1012400038494002086000207047052000070188E7
:1012500030229143018001888908890001808088BB
:10126000C0060BD53048012181800188802291433E
:1012700001802B484068002800D000477047F0B537
:1012800005252D07AC8810263443AC80264E00245B
:101290003481D2B272802246D5000446EC40E7B2D7
:1012A0005400A41967810F46EF40FDB26582521CBD
:1012B000042AF1DBF489032212020004800F944314
:1012C00000020443F481F08A0904890F9043090263
:1012D0000843F0820120B080144942020A60990656
:1012E000890E8031318012490B68FF242402A34308
:1012F000840323430B600A490B78034309480B70AE
:1013000080380260F0BD0648017849084900017044
:10131000054801218180018880229143018087E76F
:101320001C80002080E100E00001005080E200E02D
:1013300008E400E010B5424908804249884201D9DA
:10134000642010BD4049411878290ED86321090155
:10135000401A04F08EFA3D4904F03FFA3C4904F08B
:10136000FFF904F098FA1C3013E03749394CE031AA
:101370004118DF290FD855210901401A04F079FAE4
:10138000214604F02AFA344904F0EAF904F083FA19
:10139000001DC0B210BD31494118DF290DD84721C9
:1013A0000901401A04F065FA214604F016FA0221F8
:1013B00004F053FA04F06FFAEBE7002010BD274960
:1013C00010B54942884209D3494240186421484334
:1013D0004721C90004F086FBC0B210BD002010BD3B
:1013E000D0B50121890204464F00384600F03AF892
:1013F000072000F044F800F050F806460021384677
:1014000000F030F8072000F03AF800F046F88019B4
:1014100086B200F03EF8124930090A780001002A2D
:1014200001D1FF220A70012C03D0022C04D000202D
:10143000D0BDFFF77FFFD0BDFFF7C1FFD0BD0000DB
:10144000C8900020A9060000CFF9FFFF0000F2427B
:1014500000009042000060430000C0418FFBFFFF8E
:101460002480002008430121890302460A431249CF
:101470000A80124A104308800B20488070470E4AA9
:1014800011880F239B0100079943800D01431180B0
:1014900070470949002008807047074908480A88B2
:1014A00002231A430A80401E02D30A889207FAD404
:1014B0000020088148897047001500500140000055
:1014C000A0860100FB4A03C2704710B5012000F05E
:1014D00082FA0520000200F0BFFAC0B210BD70B55C
:1014E0000024F54DFFF7F1FFC00704D0641CAC42A7
:1014F000F8D30020C04370BD70B5FFF7F0FF00289F
:1015000015D100F068FAEC4E0025062000F0A4FA90
:101510000024FFF7DAFFC10703D1800701D50020BF
:1015200070BD641CB442F4D36D1C322DEDD3002089
:10153000C04370BD70B5FFF7D2FF002815D100F091
:101540004AFADD4E0025502000F086FA0024FFF70D
:10155000BCFFC10703D1800701D5002070BD641C0A
:10156000B442F4D36D1C322DEDD30020C04370BDC6
:1015700070B5FFF7B4FF002811D100F02CFACE4E61
:101580000025042000F068FA0024FFF79EFF800782
:1015900007D0641CB442F8D36D1C322DF1D3002067
:1015A000C04370BD10B50446FFF799FF002808D16D
:1015B000012000F010FAE01DF93000F04DFAFFF7BD
:1015C0008EFF10BD70B50546BA480C46006811196B
:1015D000814201D9061B00E01646FFF780FF002874
:1015E00019D1022000F0F7F900F0A2F9032000065B
:1015F000204300F01AFA002000F0EDF9002405E085
:10160000002000F012FA28706D1C641CB442F7D35D
:1016100000F095F9304670BD70B50546A5480E46F8
:1016200040681446824200D984B2FFF758FF002870
:101630001DD1FFF761FF002819D1022000F0CBF97E
:1016400000F076F901204006304300F0EEF900206A
:1016500000F0C1F905E028786D1C00F0E6F9641E81
:10166000A4B2002CF7D100F06AF9FFF738FF70BD83
:1016700070B505460C46FFF73FFF002802D000205A
:10168000C04370BD022000F0A6F92006284300F0F8
:10169000E3F9FFF724FF70BD10B5FFF72DFF002819
:1016A00002D00020C04310BD002000F094F9C720F4
:1016B00000F0D2F9FFF713FF40B210BD0020C04385
:1016C000704710B5FFF70BFF002812D1012000F082
:1016D00082F900F02DF90920000300F0A6F900209E
:1016E00000F0A3F9002000F0A0F9044600F027F96B
:1016F00020B210BDF8B5FFF7F2FE002801D0C117E7
:10170000F8BD002000F067F900F012F94B2000F05E
:101710008CF9022000F05FF9002000F086F900202B
:1017200000F083F905460026304600F07EF930438C
:1017300004462F4600F003F920463946F8BD70B53F
:10174000FFF7CDFE002817D100F045F900F0F0F8C2
:101750009F2000F06AF9002000F067F905040020DE
:1017600000F063F904022C43002000F05EF92043EE
:10177000054600F0E4F8284670BDF7B582B04D4F3D
:101780000E460091796815460C46304604F06EF915
:10179000401C6043441E002000F01DF93868801B87
:1017A000A84200D205462E46002719E0009880196D
:1017B000A04202D90098261A761C0298B2B2C0192B
:1017C0000099FFF729FF002803D00020C04305B08F
:1017D000F0BD601C00903748BF1940682418EE1B0C
:1017E000AF42E3D33846F2E710B5FFF778FE0028A2
:1017F00005D100F0F0F8B92000F02EF9002010BD5E
:1018000010B5002000F0E7F8AB2000F025F900202B
:1018100010BD10B50446FFF76FFE002802D000206F
:10182000C04310BDFFF751FED3210840A1002C2278
:1018300011400843FFF7B6FE10BD10B5FFF741FF9A
:101840001E4980B2401804D0012802D00620C043AF
:1018500010BD0020FFF7DDFFFFF71EFF10BD70B5C4
:10186000054614480E4640681446824200D984B2A8
:10187000FFF735FE00281CD1FFF73EFE002818D1E7
:10188000022000F0A8F800F053F801204006304391
:1018900000F0CBF8002000F09EF804E0284600F0AD
:1018A000C4F8641EA4B2002CF8D100F048F8FFF789
:1018B00016FE70BDCC900020400D0300F010FFFF1D
:1018C000F7B582B0194F0E460091796815460C465F
:1018D000304604F0CBF8401C6043441E002000F06A
:1018E0007AF83868801BA84200D205462E460027A9
:1018F00017E000988019A04202D90098261A761C99
:10190000B2B200990298FFF7AAFF002802D0002087
:10191000C0435CE7601C00900448BF19406824186D
:10192000EE1BAF42E5D3384651E70000CC900020D3
:1019300010B54F484178007804F056FB10BD10B543
:101940004B484178007804F02DFB10BDF8B50C46EB
:10195000154647490278069F0A7040781E4648702F
:10196000FFF7EDFF0520000781880122D202114315
:101970008180404801884908490001800188FF2290
:1019800081329143E2011143018001884022914359
:10199000AA0111430180018804229143B20011433E
:1019A00001800188022291437A001143018001885D
:1019B000012292039143079A920311430180018807
:1019C00018229143089AD200114301800188012214
:1019D00011430180F8BD27490A88520852000A8045
:1019E0000A88FF2381339A43C00102430A80088892
:1019F000012210430880704710B51E48018849082D
:101A0000490001800520000781880122D20291430C
:101A1000818017484178007804F0C4FA10BD154859
:101A20000188490849000180704710B51149002319
:101A30000A88D205920F012A01D9040C8C804880B3
:101A400008888004FCD50120C880012A01D9888833
:101A500003044888C01810BD10B50446FFF768FF9E
:101A60002046FFF7E2FF0446FFF769FF204610BD5E
:101A7000D490002000120050F0B59B4E3370052327
:101A80001B079C8820252C439C80984F0023BB81FA
:101A9000964B6124603B1C801C880625AC434900A2
:101AA0000C431C8019881024A14312011143198092
:101AB0008105890D99800121B981398A8906FCD473
:101AC0007070F0BD89490020888105200007818859
:101AD000202291438180704770B5844B834C834DA5
:101AE0000822603B81482034203D1A82018A490740
:101AF000FCD5018A8906FCD42188AE8AC907F4D1B5
:101B000070BD30B5784D794C29780204130E603CD5
:101B1000012902D002290ED110E0744900228A81E5
:101B2000C2036D78D20F2A43A28001228A810A8AD9
:101B30009206FCD42382C0B2208230BD0102090E7D
:101B40002182F7E710B50446FFF7C6FF2046FFF7EE
:101B5000D8FF6648018A8907FCD5FF21634A013115
:101B6000603A1182018A4907FCD5018B0029FCD01B
:101B7000108AC0B210BDF0B5044608461546FFF7FE
:101B8000C0FF5A4B0020603BFF265849013604E055
:101B90000A8A9207FCD51E82401CA842F8D3EFF3B4
:101BA0001086012080F31088002009E00A8B002AAB
:101BB000FCD01A8A27683A702268521C401C2260A6
:101BC000A842F3D3002E03D0012080F31088F0BD8B
:101BD0000020FAE7F7B50D46002A09D0012040049D
:101BE000441B944200D314462646FFF775FF08E0D5
:101BF0000020FEBD202229466846FFF7BCFF2035A5
:101C0000203C202CF6D2002C04D0224629466846DF
:101C1000FFF7B1FF3046FEBD30B505460C46FFF775
:101C20005BFF2846FFF76DFF3048018A8907FCD526
:101C30002E4960390C82018A4907FCD5018A890640
:101C4000FCD430BDF0B505460120002640040F4607
:101C500081422CD2FF21F8B201310C1AA24200D2EB
:101C60001446FFF739FFEFF310808446012080F31C
:101C700010883846FFF745FF1C491C486039028A26
:101C80009207FCD52A786D1C0A82641E761CA4B2C9
:101C9000B6B2002CF3D16146002900D0012181F3B6
:101CA0001088018A4907FCD5018A8906FCD4304690
:101CB000F0BDF0B50746012040040E46814201D335
:101CC0000020F0BD801B904200D202461446002541
:101CD00006E0A2B271197819FFF7B4FF2D18241A83
:101CE000002CF6D12846F0BDD6900020601300509D
:101CF00070B5EFF31085012080F31088264803F0BB
:101D0000F7FE0446002D1DD0012080F31088002C22
:101D100023D020462038C08B204988421DD16189BC
:101D2000208903F0EBFE05000ED021461031A38977
:101D300062892089A847002806D001280DD00228F2
:101D40000BD105E00020E0E7204603F0DDFE04E0D3
:101D5000114821460C3003F0DDFEEFF31084012022
:101D600080F310880C480068002802D1012003F09D
:101D7000D7FE002C03D0012080F3108870BD002016
:101D8000FAE710B5BC21064803F0D0FE0549012052
:101D900003F0D2FE10BD0000A80508003883000043
:101DA00004060800F11C0020F8B50D460646810027
:101DB0002B48EA884458521C20686B89018F294FB0
:101DC00051430091014640314A89C989511A8AB26A
:101DD000991A89B2B94214D29A4212D0294603F014
:101DE000B1FE2D892049009803F040FE2818801C80
:101DF0004034E0823002401C80B2042103F0A8FE8F
:101E0000F8BD2821304603F0A9FEF8BDF8B5054617
:101E1000870013480C46C059C9880068114E024615
:101E200040325389D2899A1A92B28B1A9BB2B3422A
:101E300011D20B4E8A420ED003F096FEF0590522C5
:101E4000611C5F3003F048FE2802401C80B205216F
:101E500003F07EFEF8BD2821284603F07FFEF8BD82
:101E60004C030800FF7F00001027000070B51646E5
:101E70000D46104603F07EFE002869D0340A304635
:101E800003F078FE012812D0A87A1E2811D0294626
:101E90000A310E2845D019DC801E030003F070FEC5
:101EA0000B255829582D58315839583D58000220D3
:101EB00070BD3146274803F069FE0021204603F03B
:101EC0006BFE0221304603F043FE41E018283CD06F
:101ED00006DC102819D012282BD0162838D130E073
:101EE000522822D0D22833D127E0204603F05AFED0
:101EF0002EE0204603F05CFE2AE0204603F05EFE62
:101F000026E0204603F060FE22E0204603F062FE59
:101F10001EE0204603F064FE1AE0204603F066FE51
:101F200016E0204603F068FE12E0204603F06AFE49
:101F30000EE0204603F06CFE0AE0204603F06EFE41
:101F400006E0204603F070FE02E0204603F072FE39
:101F5000002070BD01280000F3B581B001980C4647
:101F60000102CA1D0E310223344803F069FE0470D9
:101F700001990546022732488E00002C06D0042C19
:101F800016D0062C10D0072C3FD108E0815905222D
:101F90004968897C114069708059C77335E00846EB
:101FA00003F054FE687030E080590F21C1732CE0BB
:101FB000044680594068417C012902D1007E0128F5
:101FC0000FD0019803F048FE01210028A0590BD042
:101FD0004268D07D00281CD001281AD004280DD0DA
:101FE0000FE0002068700DE04068C27D022A01D039
:101FF000042A06D1007C02280BD102E0107C0228C2
:1020000007D06F70A1590320C873284603F02AFE39
:10201000FEBD6970F6E701460A780120042A01D95D
:10202000002070474A78002A01D0012AF8D10A79A5
:10203000082AF5D849790829F2D87047021C00000F
:1020400028050800FFB589B00D46002069460590B7
:1020500008720B98000A009003F0FEFD07460B98EB
:1020600003F088FD00287DD00B982978000A8400B1
:10207000764E01295ED0042904D0062943D00729D1
:1020800063D120E0687800281BD0305910224068C6
:10209000A91C03F021FD002F06D03159C87B03286D
:1020A00007D0042808D050E03059C07B032803D063
:1020B0004BE00B20C87348E00521009803F0D8FDE1
:1020C00043E00120B6E03059C07B0E283DD1009896
:1020D00003F0BCFD002103E02A18401C9170C0B23F
:1020E0001028F9D3688A69460883294606A8082279
:1020F0001431023003F0F0FC06ABAA1C39460098FC
:1021000003F0BCFD21E03059C07B0F281DD1AA1C73
:102110000A21009803F0B8FD002F04D0394600983A
:1021200003F0B8FD11E000231A463946009803F089
:10213000B7FD0AE0012F08D10B9803F01BFD012821
:102140001CD0002801D0022005906846007A0028A3
:1021500011D002AA0521009803F096FD6846027A84
:10216000602000E007E0024368460272012339461E
:10217000009803F095FD05980DB0F0BD3059C07B77
:102180000228E2D16878002851D002210B9803F090
:10219000DFFC305907224068A91C173003F09CFC73
:1021A000E878002804D130594068407C01283AD0B2
:1021B000009803F07BFD002837D0297A009803F0BF
:1021C0007BFD002833D0009803F07CFD01210098AE
:1021D00003F07EFD00282CD030594068417E002954
:1021E0002BD0042929D0C17E027D1140C1763059FF
:1021F0004068017F427D114001776846007A0028DF
:10220000A7D13059022142680098173203F03CFDF3
:10221000305941684031897B002913D0042100984E
:10222000FFF79AFE91E7022004E0062002E0082072
:1022300000E00320694608728BE70021C17630591F
:102240004068D9E70B21C1737FE70000280508002B
:1022500070B50446007800250D2801D00A2200E060
:1022600002225A494B7A002B06D00D2804D0637CF9
:10227000032B01D0432551E0097A8A4339D10D2837
:1022800009D00E2802D00F2803D134E0607C032847
:1022900004D3402542E0607C0328FAD8A07C0428BF
:1022A000F7D20A2908D0607C012822D0022820D049
:1022B0006078032809D811E003F010FD012806D149
:1022C0006078032803D0002801D0492526E003F0D8
:1022D00005FD002802D160780228F6D83020035D81
:1022E00022462046E17C3132143000F019F80546D0
:1022F00014E0422512E003F0F1FC012807D16078D8
:10230000052804D1A01D03F0EFFC0028DDD003F068
:10231000E5FC002802D160780228D6D8284670BD96
:10232000FFB5002086B001216A4611700446059170
:102330000021002C06D0089D099A1F239A4234D907
:10234000402032E01C23069D079AF7E76B185E7861
:10235000330003F015FC1D26101010101010101083
:10236000102626262626262626262626262610104F
:10237000101010102600059B03E06F46FF5CB7426B
:1023800004D05B1E5BB2002BF7DA03E0002B01DB0D
:102390004A2006E0059B6F46FE54059B5B1CDBB2A2
:1023A00005936B5C491C5918C9B2914201D20028AF
:1023B000CCD0914202D04A200AB0F0BD641CE4B2F5
:1023C000022CF9D20028B3D0F6E7000098050800E7
:1023D000F8B50C46944916460968012500270222E3
:1023E0008B1C312873D012DC0C2874D008DC012837
:1023F00021D0022840D007284FD00B2869D156E0C1
:1024000010287FD0112876D01228F7D18DE0012333
:10241000412871D008DC32286FD035286ED036289C
:102420006DD04028EAD1B1E0422869D0432868D075
:102430004428E3D1CFE006227C497D4803F05AFCD2
:10244000002808D006227A49304603F045FB0620D2
:1024500020700020F8BD744801680868C00738D0B3
:102460002078062801D22770C2E006229831304633
:1024700003F032FB06200EE00A686B48920728D56D
:1024800022783E2AEFD305464A7E5A31304603F081
:1024900023FB2868407E2070A7E00868400718D515
:1024A00020780228DFD3887C3070587C78E00A6876
:1024B0005D4812070DD52278202AD4D30546CA7D5F
:1024C0001A31304603F008FB2868C07DE3E735E0A9
:1024D00001E077E016E00A685348D20672D5227808
:1024E000202AC0D305460A7E9831304603F0F4FA1C
:1024F0002868007ECFE70EE054E028E034E03BE0BF
:1025000058E060E00868800670D520780428AAD3D7
:102510000422091D23E00868400667D520780028BA
:1025200066D0087D08E022705FE0086800065DD58F
:10253000207800285CD0487D3070F4E70868C0053A
:1025400054D5207804288ED304220C3107E0086883
:1025500080054BD52078042885D3042208313046E5
:1025600003F0BAFA042096E7086840053ED52078C3
:1025700000283DD0887D36E00868000536D52078F3
:1025800002288FD3087C3070487C09E00868C004BA
:102590002CD52078022885D38231087F3070487F7F
:1025A0007070C0E70868800420D5207800281FD00C
:1025B000A03117E00868400418D52078002817D00B
:1025C000A1310FE012E0086800040FD52078002840
:1025D0000ED0A23106E00868C00307D52078002895
:1025E00006D0A33108783070237000252846F8BD46
:1025F0000425FBE770B50F480F49C40522888025E4
:102600002A4322800D4B5A89120701D4401EFAD268
:102610000B4A012010600622054803F05DFA20886D
:10262000A843208070BD0000C0060800383E0300AB
:1026300025800020A0860100D47F040020000050E7
:1026400000800040F8B5534D002468690090FEF703
:10265000DAF90021504E002802D13079022800D149
:1026600000914E4F4E4A386800280FD1107800284C
:102670000DD04C4B0120D863D86B0028FCD1012031
:102680008007C0691923DB0198420ED3117003F053
:1026900037FB00287CD0F0780124002878D0052072
:1026A0000007808AC00701D0042471E003F0B4F968
:1026B00000286DD13C4800683F2804D130790028BB
:1026C00001D128690090B178684603F01FFB00280B
:1026D0005ED0B178684603F0B1F9002858D003F015
:1026E0001BFB002854D03868AA281BD0972007214C
:1026F0000125AD07EA6B920A9202521CEA63EA6B6B
:102700002A4B80021A400243EA63E86BC002C00A07
:1027100049050843E8633868042400280DD0AA2836
:1027200013D020E02248FEF7A0FB009A0321521E9E
:102730000092B37893422BD8DAE700986421C00264
:1027400003F094F90AE001210BE0009803F09CF8F3
:102750001849096803F004F803F09DF8317900295D
:10276000F1D103F0DFFA1448C06A8047286B0004F7
:10277000C00FFBD003F0DCFA03F0E0FA0F48016869
:10278000C905FCD5052000070189802291430181FC
:102790002046F8BDA0020020C60608000C800020DC
:1027A00000800020C000004060010020FF03E0FF27
:1027B00001120000188000201C07080000020040E1
:1027C00070B5002505242407208830210843208087
:1027D000208803221043208002E000BF00BF00BF1A
:1027E000A08A0006F9D560898008800060814B4886
:1027F00042885208520042802088884320802088E6
:10280000800880002080A08A400701D5FEF708FAE2
:102810002089802108432081208A04218843208246
:10282000A08A8007FCD53E4841050268D20202D446
:102830000A69520701D4002DF7D070BD10B50124EC
:10284000A407A06BFEF71CFB364903F00FF9272203
:102850001201511A00D10121334A50601160206BDE
:10286000082188430843206310BD10B503F06CFABB
:102870002E4801894908490001812D4800683F28F8
:1028800001D103F067FA0120800781690422114316
:10289000816103F065FA03F069FA03F06DFA2548E7
:1028A0000068AA2802D11420FEF752FA224900201B
:1028B000087010BD10B503F065FA10BD10B5012009
:1028C0008007008A000704D503F062FA1A49032042
:1028D000087010BD70B51948008885061048AD0E07
:1028E00044681348C030016B0878002802D128469C
:1028F00003F054FA124800890F4EC00505D5200692
:1029000007D5284603F050FA01E0200601D5022041
:102910003070200401D50120307070BD20000050BF
:1029200000020040710200004000004000330050EF
:10293000600100200C8000202B800020002000502F
:10294000002C005010B50E212B4803F033FA2B4910
:10295000202003F035FA0021202003F0F9F810BD03
:1029600070B5254E0546318804232022244803F003
:1029700067F90446307903F029FA2080A5702046D3
:1029800003F070F970BD7CB504461B4E1C483188BD
:1029900008232022C01E03F053F9048005460024BA
:1029A0001FE03019817A890708D562000121521988
:1029B0005180817AFD221140817203E00020610084
:1029C0004919488060008019C0886A46801C80B21E
:1029D00001A903F001FA009829190078641C887194
:1029E000E4B2307BA042DCD8284603F03BF9012159
:1029F000202003F0ADF87CBD2C800020C0610020B9
:102A000006800000FFB585B00F46072069460872B2
:102A1000BD492020488038780025022853D8087303
:102A2000002443E0B84A381940781119049188729B
:102A3000012805D16946087A0821084369460872C9
:102A4000107B012805D96946087A10210843694698
:102A50000872079800906000AC4986180191B01D7B
:102A60000023052202A903F0BDF9050019D1F08861
:102A7000002103F0BDF905460498807A012810D1A1
:102A8000122069460873F08803AB401C80B2012213
:102A9000002103F0B3F9F0889D49801C80B203F057
:102AA000B3F907206946641C0872E4B23878A04282
:102AB00002D9002DB6D007E0002D05D1012120203C
:102AC00003F046F800E0812501232022914808996F
:102AD00003F0B6F8057003F0C5F8002009B0F0BDAA
:102AE000F0B585B00D4600206946874E8881338059
:102AF000288803F08FF93071FF2801D0002454E0BA
:102B0000844B89215B1C9A1C7F4800F08AFD54E0AD
:102B10000320009060007C4904904618F0882F192B
:102B20003A46801C0A3280B2012103F079F97648D6
:102B30000019817A012920D104210091E978012925
:102B400014D104996B4649198A889A818988012988
:102B50000CD103218172387AB97A884206D0F08884
:102B60000021801C82B2684800F070FDF08803AA42
:102B7000C01C80B2022103F053F96348007B012896
:102B80000DD9E00041190C3101A800F0C1FAF1881B
:102B9000009801AA081880B2072103F041F9A9782A
:102BA000F08803F025F9641CE4B25749087BA04281
:102BB000AED80221202002F0CBFF002005B0F0BDEE
:102BC00070B5514D0C46287903F000F921888842F0
:102BD00021D1A078297B88421DD2E17864291AD8B6
:102BE00040004019C088E21C801C80B2012103F023
:102BF00017F9A07829460A31415C890709D54000B8
:102C00004019C0880021801C82B2284600F01EFDB9
:102C100004E08A2000E08120FFF7A2FE002070BDC2
:102C2000F8B50D463849802400200A7B09E04600AB
:102C30007118C9882B88C91C8B4200D10024401C04
:102C4000C0B23149824201D9802CF0D0401EC6B2B8
:102C5000002C0FD1687A297A00020843694608805F
:102C60000AD0012808D080242748298800792246E4
:102C700003F0DCF80020F8BD234F7000C019C088B5
:102C80000A46C01C80B2022103F0CAF868460088D8
:102C900001281FD0B819817AFD2211408172E8798C
:102CA0000028E1D01848062301881A482022801DF8
:102CB00002F0C6FF07461448007903F087F8388011
:102CC00069460988B970090AF9703E71384602F000
:102CD000C9FFC9E7B819817A02221143DEE710B5AE
:102CE0000878122802D14878FFF73AFE002010BD7C
:102CF00010B5054A180A1279904202D10888FFF7E8
:102D000042FE002010BD00002C8000207C610020CD
:102D1000010200000180000010B51221244803F0D8
:102D200049F824491C2003F04BF800211C2002F034
:102D30000FFF10BD30B502460120002103241346C9
:102D4000CB40DB0704D04D006D1C2346AB4018433D
:102D5000491CC9B20929F2D330BD0246002012290C
:102D600001D98D207047062A06D0072A07D0082AE5
:102D7000F8D10729F5D170470829F2D17047062903
:102D8000EFD3704770B50A4C0546218802231C22F8
:102D9000094802F055FF058002F064FFE088002139
:102DA00003F026F801211C2002F0D2FE70BD0000C5
:102DB0003C8000203463002004700000FEB53B4ED0
:102DC0001C20708014461D460888FFF7B3FF029050
:102DD0003748334601900833132202A90094B01DEE
:102DE00003F000F8040008D1F088002103F000F897
:102DF000044601211C2002F0ABFE01231C222946BF
:102E00002C4802F01DFF047002F02CFF0020FEBDD4
:102E100070B50C4625490B802078082814D8CA883C
:102E20000831415C51188DB2822D0BD06178FFF7CB
:102E300094FF010009D16D1C6178A8B2A21C02F0B8
:102E4000EFFF08E0822100E081211A4B17485B1C4C
:102E5000DA1C00F0E6FB002070BD70B50C461D4684
:102E6000088802F0D7FF114AFF281071158009D099
:102E7000A178D08802F0BCFF02211C2002F068FE7D
:102E8000002070BD0B4B89219B1C9A1C074800F049
:102E9000C8FBF5E710B5054A180A1279904202D12D
:102EA0000888FFF76FFF002010BD00003C80002065
:102EB000206200200170000010B50C21254802F0AE
:102EC00079FF2549102002F07BFF0021102002F03D
:102ED0003FFE10BD70B504461E480D4616460188DB
:102EE000042310221D4802F0ABFE06808470C570DA
:102EF00002F0B8FE70BD7CB5164D0646E88800218C
:102F000002F076FF2889002802D0002102F070FF2D
:102F10006889002802D0002102F06AFF0F48298842
:102F200004231022401E02F08BFE0446E8886A4605
:102F3000801C80B201A902F04FFF26800098007823
:102F4000A070204602F08EFE0121102002F000FE4B
:102F50007CBD00005080002008640020024000007A
:102F6000FFB5664E83B01020708065480F46154649
:102F700000230092019003221946B01D02F032FF97
:102F80000446F088002102F033FF3878C0071CD0D7
:102F90005C48019000233046032219460095083012
:102FA00002F020FF3089002102F022FF56480190F4
:102FB000002330460322194600950A3002F012FF22
:102FC00004467089002102F013FF002C03D1012177
:102FD000102002F0BDFD012310224C48069902F09A
:102FE0002FFE047002F03EFE002007B0F0BD70B569
:102FF000424D0C462B80088802F00CFF2871FF28F8
:1030000023D0A178E88802F0F3FEE888E21C801C57
:1030100080B2012102F004FF2889002802D0A178A3
:1030200002F0E6FE6889002809D0801C80B2221DCB
:10303000012102F0F5FEA178688902F0D9FE022193
:10304000102002F085FD002070BD01239B035A1D56
:1030500089212A4800F0E5FAF5E770B5274E0C46BD
:1030600031798022180A884227D1F1882088891C6A
:10307000884201D1012504E03189891C88421CD194
:103080000225217A022912D822460832012102F0B3
:10309000C7FEE079002809D0022D07D1307902F06F
:1030A00095FE0246207A2946FFF714FF0022012DE3
:1030B00003D12188307902F0B9FE002070BD1CB523
:1030C0000C460E49180A0A79904214D1A0781328A8
:1030D0000ED016280CD0C8886A46801C80B201A980
:1030E00002F07AFE0098228800780121FFF7F2FEB4
:1030F0002088FFF700FF00201CBD0000508000204A
:1031000084630020A8630020CC63002004400000FA
:103110000A7902704A7942700B8883701B0AC37067
:103120008A79027149884171090A8171704710B525
:10313000428800791C4601020C310823FC4802F049
:103140007FFD082101700121417000218180C18033
:10315000448002F087FD10BD10B50C460988002997
:1031600010D04288007906230102F1480C31401D3D
:1031700002F066FD10210170218841806188818004
:1031800002F070FD10BD10B50C460988002910D062
:103190004288007906230102E5480C31401D02F007
:1031A0004FFD11210170218841806188818002F0EA
:1031B00059FD10BD10B5428800790C460102DC486B
:1031C0000C310823401F02F03BFD03210170012157
:1031D0004180891E8180022141708471210AC17160
:1031E00002F040FD10BD10B5428800790C46010286
:1031F000CF480C310823401F02F022FD042101704A
:103200002188418061888180022141700021817183
:10321000C17102F027FD10BD10B5428800790C463F
:103220000102C3480C310823401F02F009FD0521AB
:1032300001702188418061888180022141700021D4
:103240008171C17102F00EFD10BD70B50C46098888
:10325000627963888A180179521E0E025B1C002570
:103260000C3641889A4215DBB1480A46082331469C
:10327000401F02F0E5FC072101706188491C418074
:10328000218862798918491E8180022141708571E7
:10329000C57106E0032002233246000302F0D0FC91
:1032A000457002F0DFFC70BDF8B50E4617461946B2
:1032B00042881D460A3100798BB201029C480C31CC
:1032C000801C02F0BDFC002181800181044606982B
:1032D00020706680E5800120607020462A463946CD
:1032E0000A3002F0F9FB204602F0BCFCF8BD1CB528
:1032F0006B461A71120A5A710C220092022301AA1B
:10330000FFF7D2FF1CBD70B50546002003460EE056
:1033100006245C430E5B002E0ED09E00B618641887
:10332000F6782479A64300D085205B1CDBB2AB4243
:1033300001D20028ECD070BD9C00A418A478FF2C0A
:10334000F3D18320F1E7F0B506460020044611E0F2
:1033500065004D5B002D0BD1A500AD18AF78FF2F98
:1033600006D1ED7806277D435D5B002D00D08320DC
:10337000641CE4B2B44201D20028E9D0F0BDFFB52C
:1033800081B0154600240B9F0A9E24E00498A100FA
:10339000425A7179B01D02F04FFD002819D0204625
:1033A0000622318850432952728841194A80327965
:1033B0000A712B5A019AD21A521C4A713978A142C9
:1033C00006D006225143285A6A5A801A4919487170
:1033D0003C70641CE4B202988442D7D305B0F0BDBF
:1033E000FFB581B00E4617461D46002414E0A0002C
:1033F000C119CA780A998A420CD13A5AA978E81CAC
:1034000002F01AFD002805D06000315A002901D1D0
:1034100029883152641CE4B201988442E7D3DDE785
:10342000F8B500250446002815D04248C0698842F6
:1034300011D9206800280ED08E008759002F0AD09D
:10344000002A01D038469047384602F0FBFC21683C
:103450000020885100E081252846F8BD70B58125FF
:10346000044600281DD0334EF069884219D92068DF
:10347000002816D02046FFF7D3FF050011D10146E2
:10348000F26904E08B002068491CC058C9B28A4226
:1034900002D90028F6D004E0002802D1204600F02E
:1034A00055F9284670BD02460020002A02D0080ABD
:1034B000800010587047FFB581B007460D461E4684
:1034C000039802F057FBB04288D038680399FFF7A1
:1034D000EAFF040082D0628821880423284602F093
:1034E000AFFB05460A98288060880B9A010A384687
:1034F000FFF7B4FFA870284602F0B4FB31460398EA
:1035000002F026FB6AE7F8B50C79154607460E4629
:103510001A46FF2C1ED07088010AA1420CD021024D
:10352000C0B201433288284602F092FC8C2512E09A
:1035300007300000E00100202146384600F010F975
:10354000050008D13868A10040580622314602F033
:10355000C3FA00E089252846F8BDFFB50746006894
:10356000984D81B00E4600280ED0002406E021467A
:1035700038460A9AFFF754FF641CE4B2E869A04297
:10358000F5D8384600F0E2F8F0B2049902F018FCE1
:10359000002406E020023043039902F0D9FA641CAB
:1035A000E4B2E869A042F5D818E7F8B506460D463A
:1035B00014461F46084602F0DDFAA04208D13946FB
:1035C000284602F0C5FA290A3046069AFFF746FF58
:1035D000F8BDFFB5074681B00846039900261D4691
:1035E000002900D1AE887A88314608318BB23988FB
:1035F00002F026FB0446387902F0E8FB20800398AD
:10360000A07100206080A680002D06D028886080F0
:103610003246A91DE01D02F05FFA204602F022FBAF
:10362000DCE6F8B505460E4610461F466A8829882E
:10363000062302F005FB0446287902F0C7FB208030
:1036400026716780204602F00DFBF8BD70B5144668
:10365000428800790D4601020C3104235A4802F0D9
:10366000EFFA002D01D0132100E0122101704480F7
:1036700002F0F8FA70BD0A880270120A42708A7865
:103680008270CA78C2700A7902714A794271897966
:103690008171072070474278037812021A430A802A
:1036A00082788A70C278CA7002790A7142794A7146
:1036B000807988710720704710B5FFF72DFB00F067
:1036C00085F8FFF7F9FB00F0A5F9FFF73BF910BD0E
:1036D000F8B506460C461746102002F04BFA0228B1
:1036E00005D1E2B210233946304602F0B7FB332051
:1036F00002F040FA022805D1E2B2332339463046BF
:1037000002F0ACFB35021135284602F033FA0028EE
:1037100005D0E2B22B463946304602F09FFB1C2012
:1037200002F028FA022805D1E2B21C2339463046BD
:1037300002F094FB202002F01DFA022805D1E2B22B
:1037400020233946304602F089FBF8BD10B5044607
:103750000068002803D002F075FB0020206010BD37
:10376000F7B5054600680024164E0F46002810D114
:10377000F0690121800002F077FB2860002806D064
:10378000F169890002F0D2F9002C02D018E08924F6
:10379000FAE7F069B84212D92868BF00C05900287A
:1037A0000BD10121029802F05FFB060005D00299BF
:1037B00002F000FB2868C65102E0892400E0812461
:1037C0002046FEBDE00100200D30000008B50020BD
:1037D00002460090214B11212148FFF7BEFE08BD93
:1037E000F8B5164607460C464A8809880E231D4838
:1037F00002F026FA0546207902F0E8FA2880AE7039
:10380000002E0BD00020009003466188012214484E
:10381000FFF7CBFE284602F025FAF8BD39460A220A
:103820000831281D02F058F96088022102F090F951
:10383000F0E770B50E460446428801880948042323
:10384000801C02F0FDF90546207902F0BFFA2880BD
:10385000AE70284602F006FA70BD000058640020E1
:1038600060800020014400007CB50C4616461D46D1
:10387000088802F0CFFA694608714E800D80142343
:1038800022465F48FFF73FFE02468C2804D0002AFC
:1038900004D06946002013E001207CBD5848314621
:1038A0000068FFF700FE0546A07800280BD02846E8
:1038B0000A22211D083002F00FF90022694628462D
:1038C000FFF78EFF09E04F4C28462146FFF772FCB8
:1038D000EC800121304602F03BF900207CBD10B5A0
:1038E00047480C4611460068FFF7DDFD218801813D
:1038F00061884181C17C491CC174002010BD1CB588
:103900003F480C4611460068FFF7CDFD01461231D5
:103910000094019144898A1F3B4B01212046FFF707
:103920002EFD00201CBD38B535480D4611460068F7
:10393000FFF7B9FD0446007902F048FA2988884269
:1039400006D1A878002809D0012807D0022805D080
:1039500081212046FFF76DFF002038BDA089002897
:1039600008D00D200090E1890123AA1C2046FFF712
:103970009BFCF1E78221ECE770B50E461446104639
:1039800002F0F8F805461E4821460068FFF78BFD57
:103990000446012D27D170780A2801D0002822D1B1
:1039A000E0881849194D884210D12089002804D098
:1039B000E07C012803D9842211E083220FE0214614
:1039C00008312046FFF728FCE5800CE0A8420AD128
:1039D00021460D4A0C310120FFF795FC0246214695
:1039E0000846FFF7FDFE002070BD1CB508880023C7
:1039F0000090074901930248FFF75DFD00201CBDC0
:103A00006080002002180000686400200328000085
:103A10000244000010B508211A4802F0CBF91A49F7
:103A2000332002F0CDF90021332002F091F810BDCF
:103A300070B5144E0546318818233322134802F01E
:103A4000FFF80446307902F0C1F92080A5702046C5
:103A500002F008F970BD70B50A4D0446E8880021EF
:103A600002F0C6F90948298804233322001F02F016
:103A7000E7F8048002F0F6F80121332002F068F83C
:103A800070BD00006A8000202065002005CC000089
:103A9000FFB589B00520C00269468882C01C8881B4
:103AA000F7480883F74C3320608006209921019164
:103AB0000090082200233321A01D02F0DBF905004D
:103AC0007ED1A01D0125009501900222E08805AB62
:103AD000114602F0D5F9E088EB4A022102F0A0F984
:103AE00004AE01960095E08803AB0222132102F098
:103AF000C7F902AF092001970090E088E34B10223C
:103B0000042102F0BDF9E2486B46197A4170597AF6
:103B1000817002461321188A02F082F901960095FD
:103B2000E08803AB0222132102F0AAF909200197D1
:103B30000090E088D74B1022042102F0A1F9D6486A
:103B40006B46197A4170597A817002461321188A9E
:103B500002F066F901960095E08803AB022213217A
:103B600002F08EF901970095E088CC4B10220421D9
:103B700002F086F9CA486B46197A4170597A817009
:103B800002461321188A02F04BF901960095E0884D
:103B900003AB0222132102F073F909200197009070
:103BA000E088C04B1022022102F06AF9BE486B4641
:103BB000197A4170597A817002461321188A00E0FF
:103BC0004CE002F02DF901960095E08803AB02224B
:103BD000132102F055F9092001970090E088B34BBA
:103BE0001022142102F04CF9B1486B46197A417049
:103BF000597A817002461321188A02F011F9AD4DED
:103C000001960095E08803AB0222132102F038F9F7
:103C100001970095E088A84B1022012102F030F9AD
:103C2000A6486B46197A4170597A81700246132171
:103C3000188A02F0F5F807A90920019100900222E4
:103C4000E08806AB114602F01BF90546E08800212A
:103C500002F0CEF80121332001F07AFF0123332254
:103C600097480C9901F0ECFF057001F0FBFF002074
:103C70000DB0F0BD3EB5834C0D46E08802AA0C3075
:103C800080B2694602F0A8F8E08801AA0D3080B23F
:103C9000694602F0A1F8E088AA1C0C3080B201212C
:103CA00002F0BEF801980088002806D0E0880021C4
:103CB0000C3082B22046FFF7C9FC00203EBD10B593
:103CC00070480A46C0880421801D80B202F0A8F81E
:103CD000002010BD38B50D4600206946694C0880AB
:103CE0002380288802F096F82071FF2817D0E088FA
:103CF0006A460D3080B2022102F092F8E0886A46EE
:103D00000C3080B2012102F08BF8A978E08802F033
:103D10006FF80221332001F01BFF002038BD684AF4
:103D200033239B02521C89215648FFF77AFCF4E7A3
:103D3000F8B5544E0C4631798022180A884279D160
:103D4000F188208825468B1C00270835984224D10D
:103D50000121009161882A4602F062F8E07900288A
:103D600047D05748318808233322C01F01F068FF2D
:103D70000546307902F02AF828806F60E07A010663
:103D80006960A07A000401436960607A000201431F
:103D90006960207A014369606DE00B1D984229D16A
:103DA0000221009161882A4602F03AF8E079002861
:103DB00064D04348318808233322801F01F040FF3C
:103DC0000546307902F002F828806F60E07A01063B
:103DD0006960A07A000401436960607A00020143CF
:103DE0006960207A014369600099A970284601F052
:103DF00039FF43E00B460A3398421CD1042000905F
:103E0000E07900283AD02E48318818233322001F49
:103E100001F016FF0746307901F0D8FF388062883C
:103E20002946381D01F058FE6088F8700098B87077
:103E30003846DCE755E00B460833984242D103216F
:103E4000009161882A4601F0EBFFE079002815D047
:103E50001B48318806233322401F01F0F1FE05463E
:103E6000307901F0B3FF2880AF80607A0102A98029
:103E7000207A0143A9800098A870B7E7002229E0C2
:103E8000022900006A800020BC640020BE6400207B
:103E9000D0660020CE640020E3660020DE640020AF
:103EA000F6660020EE64002009670020FE64002012
:103EB0001C670020010200000E6500202F67002013
:103EC00009CC00000D31884204D161882A4601F0F6
:103ED000A7FFD3E7A079012803D12188307901F029
:103EE000A5FF0020F8BD10B5044A180A12799042C7
:103EF00002D10888FFF7AFFD002010BD6A800020C6
:103F000038B50124684604700C21484801F052FF7E
:103F1000464D6946EC702A1D352001F0B7FF002898
:103F200000D02C7100F0F4FC4149322001F048FF30
:103F30000021322001F00CFE00F0B0F838BD10B5C1
:103F400000F0AEFD10BD10B5384802238078322253
:103F500001020E31374801F073FE01210170132177
:103F6000417001F07FFE10BD10B504462F482C2390
:103F70008078322201022F480E31801E01F060FE4F
:103F8000014620310C7200224A7201F06BFE10BD16
:103F900010B5502332220D21274801F051FE04466E
:103FA00000F0FDFC204601F05DFE0221322001F010
:103FB000CFFD10BD204810B5012332220D210B3852
:103FC00001F03EFE0221017001F04CFE10BD10B563
:103FD00000F088FD10BD194B10B59A4201D91A4660
:103FE00002E0002A00D1012201F056FF10BDF8B511
:103FF000064611480F461546252332220D21C01CC6
:1040000001F01EFE04460120207720460622394694
:104010001D3001F061FD2320065565822582204672
:1040200000F08FFD204601F01DFEF8BD74800020D9
:1040300080650020043800000E3400003075000058
:1040400010B501F02FFF254901F04CFD2448081858
:1040500010BDF8B5234E0546B076002401F022FFCE
:104060003119641CE4B20874082CF7D3002410271B
:10407000381BA84201DD002007E001F013FFC11743
:10408000090E0918090A0902401A3055641CE4B2E5
:10409000102CEDD301F006FF3083F8BD10B52421BC
:1040A000104801F087FE00F042FC10BD10B50E482C
:1040B00002238078322201020E310C4801F0C0FD4B
:1040C0000D210170074920318978417001F0CAFD46
:1040D0000321322001F03CFD10BD0000A0BB0D000B
:1040E000A086010080800020748000201A38000023
:1040F00010B5084609781C460B0001F041FD080583
:1041000020202008181B1E2000F01EFD17E041781B
:10411000012904D0002902D0022903D00FE000F0C9
:104120002BFD0CE01146204600F08DFD07E000F06D
:1041300041FD04E000F03FFD01E000F059FD0020EA
:1041400010BD10B508782F4C801E030001F018FD3B
:10415000020214188878A070C0070AD02A49294A98
:104160004879203AD07627480622891D001F01F0A1
:10417000B3FC00F063FD03E0FFF7E5FE0020A07054
:10418000002010BDF8B50E46194612231F4801F055
:1041900057FD0446304600F052FD0027002821D08C
:1041A000184DA878C0071DD028460822B11C103829
:1041B00001F0A0FD002815D128462038018B328857
:1041C00091420FD101212170807E60742946102216
:1041D0002039601C01F080FCA878FFF7C5FE00F0D4
:1041E00031FD00E02770204601F03CFD20780028DA
:1041F00001D1FFF7A8FE0020F8BD10B500F021FDA9
:10420000002010BDA080002074800020183800001D
:1042100010B5104601F0AEFC002809D1012332226E
:104220000D21484801F00CFD0121017001F01AFD3B
:10423000002010BD70B5087814460F282DD008DC7A
:1042400001280DD002282CD003281CD00E2830D1F4
:104250001FE0102825D0112823D0122829D123E0CF
:104260004878002825D13748222332220D21801C8E
:1042700001F0E6FC05460146204600F034FC2846E5
:1042800001F0F0FC15E04878002812D100F03FFC66
:104290000FE0487800F048FC0BE0487800F04BFC59
:1042A00007E000F04DFC04E04878442801D100F01C
:1042B0004AFC002070BD70B50D4610461C4601F04A
:1042C00059FC022805D12049200A8870284600F0B0
:1042D00032FB002070BD70B508780C4615460A28E0
:1042E00010D1104601F046FC04280BD1607800285C
:1042F00002D000F0F6FB05E00521284601F028FC7D
:1043000000F011FC002070BD10B5104600F0B9FBA4
:10431000002010BD10B50C46104601F02BFC012802
:1043200008D12078002805D1FFF709FE002801D028
:1043300000F002FC002010BD10B5084600F002FCA1
:10434000002010BD023400007480002010B5202130
:1043500003233222880201F073FC012101704170B5
:104360000021817001F07EFC10BD10B50120FDF729
:1043700037F84849087010BD10B504464548C1706B
:10438000027143711C2332222021434801F058FC62
:1043900042490123098801808370C3700022828012
:1043A000C280047242728472C2723D4C8481C281A6
:1043B000042404744274837401F054FC10BD70B57D
:1043C000344C01256570E078002803D061792079AC
:1043D00001F0E8FDA570C82232213248FFF7FBFD4D
:1043E00070BD10B504462C48042332222021C01C85
:1043F00001F026FC29490988018000218170C470E0
:1044000001F030FC10BD70B50120FCF7E9FF214D33
:1044100004462878844202D02046FFF7E2FF2C7041
:10442000E878002803D0052C01D2FFF7C8FF70BD43
:1044300010B518490A22C8801A483221401EFFF7D9
:10444000CAFD10BD174810B53221401E01F09EFB79
:1044500010BD70B50F4C00256570E078002803D0C2
:104460006179207901F0C0FDA57032210D4801F07D
:104470008DFB70BD10B50748C178002906D0827841
:1044800041790079012A02D001F0AEFD10BD01F0A2
:1044900089FD10BDA68000200280000074800020ED
:1044A000AD27000003C8000010B532220C460123DE
:1044B0001146900201F0C4FB2178017001F0D2FB9B
:1044C000002010BD002070470020704710B5144632
:1044D000FFF799FF1448214602881448FFF77BFD37
:1044E000002010BD70B5124816460078002818D07C
:1044F000104C114911480D4D22786D1C0978007837
:10450000002A05D001F070FD00202070142204E084
:1045100001F048FD01202070052231462846FFF7B2
:104520005AFD002070BD0000AC80002002C80000D1
:10453000A9800020A8800020AB800020AA80002055
:10454000704710B511210E233222880201F078FB4A
:104550000B49098801800021817001F083FB10BDA7
:1045600010B5042332221121064801F069FB0449E9
:10457000098801800221817001F074FB10BD0000E8
:10458000748000200444000000207047354A1072F7
:104590005172704710B533480021417101600171BB
:1045A000417A007A01F020FD32212F4801F0EEFA25
:1045B00010BD10B5102106233222880201F040FB05
:1045C0000446FFF7E7FF294826490088208001209C
:1045D000A0708879E070C8792071204601F042FB14
:1045E00010BD10B51F4C012860710ED03220206024
:1045F00001202071617A207A01F0D4FC20683221F8
:1046000082B2194801F048FC10BD9620EFE710B5C2
:10461000042332220121164801F012FB13490988B4
:1046200001800021817001F01DFB10BD10B5012338
:10463000322210210F4801F003FB0121017001F02B
:1046400011FB10BD10B5FFF7A1FF06480179012944
:10465000417A007A02D001F0C7FC10BD01F0A2FC43
:1046600010BD0000B080002001C800007480002050
:104670000F0400000340000010B50C46104601F086
:1046800079FA012809D1322201231146900201F062
:10469000D7FA2178017001F0E5FA002010BD20481A
:1046A0000A880088904202D188781E4988710020CB
:1046B000704710B50A781B48002A01D0002105E098
:1046C000174A4B8812889A4201D10979C171FFF7C4
:1046D00070FF002010BD10B58878002802D0FFF7C9
:1046E00080FF01E0FFF756FF002010BD70B50D4CB4
:1046F000154621462279087A497A002A03D001F02A
:1047000073FC002002E001F04DFC012020712068C4
:10471000294682B2044801F0BFFB002070BD0000B2
:1047200074800020B080002001C80000704710B5E0
:104730001C2102233222880201F082FAFF21643117
:10474000018001F08FFA10BD10B504460423322217
:104750001C21054801F074FA0480012181700021B8
:10476000C17001F07FFA10BD03700000FEB50D4668
:10477000104601F0FFF9012871D12878002864D192
:104780000E2332221C21384801F05AFA0446002038
:1047900020700B2767703A4634A1A01C01F09CF9E9
:1047A000204601F05FFA0A2332221C212E4801F034
:1047B00047FA0446012020700720607002462EA1AF
:1047C000A01C01F089F9204601F04CFA0B2332229B
:1047D0001C21254801F034FA0446062020700826E2
:1047E0006670324626A1A01C01F076F9204601F041
:1047F00039FA0E2332221C211B4801F021FA04460B
:104800000520207067703A4620A1A01C01F064F9D1
:10481000204601F027FA0A2332221C21124801F017
:104820000FFA04460670072060700120A070D220A5
:1048300069460880F8014880700188800622E01CE3
:1048400001F04AF9204601F00DFA32220123114607
:10485000900201F0F5F92978017001F003FA0020C7
:10486000FEBD002070470000027000004469616CCA
:104870006F672053656D690044413134353830002D
:10488000123456FFFE9ABCDE00000000765F332E25
:10489000302E342E3237300010B5F74801F048FC86
:1048A0000121084601F058FB002805D001225002E2
:1048B00000230146FCF7E3FC10BD10B5EF4840793A
:1048C000002802D0FFF766FE06E0112001F052F941
:1048D000022801D1FFF744FE05200007808A400727
:1048E00001D5FCF79DF9FCF78EF800280DD0FCF7F8
:1048F00036F8E3488168012211438160FCF77FF8B4
:1049000000223221DF4801F0D3FAFFF7C5FF10BDC6
:1049100010B507210020FFF739FED8490220887121
:10492000FFF723FDFFF702FF00F0DCF910BDD648CA
:1049300001218170704770B5D44D0446A878FF28D6
:104940002AD0FFF736FED248012200231146007814
:10495000FFF712FDCF48FFF76BFDFFF7F2FD288848
:10496000FFF7F2FE00F0DCF90521322001F0F0F84B
:1049700020882880607A6871214606220A31A81DA5
:1049800001F0AAF8C0488078FFF7EEFABD4832215E
:10499000401E01F0FBF870BDFFF7FAFA70BDF0B5EC
:1049A000044691B00E20207000206070BA48A081AB
:1049B000E08107202074012060741C20E0742546EB
:1049C00022461F212035143229741646511E0B2011
:1049D00001F05CFA002805D00822E274AFA130464D
:1049E00001F07AF8224631321746511E0C2001F0B0
:1049F0004DFA002805D00A222A74ABA1384601F0EE
:104A00006BF8E07C1A21081A45B2002D31DD3E20FA
:104A10006946087001AA022001F038FA002807D080
:104A20000B2268460270A3A101A801F047FA03E037
:104A30006846007800281CD068460078A84200D359
:104A400028466A461070E17C401C8855E27C20466E
:104A5000092115301154E17C401C08186A4612786F
:104A600001A901F039F86A461078E17C801C081829
:104A7000E0748448924A3221401EFFF7ACFA11B02C
:104A8000F0BD10B501F076F80446FFF7DBFC032C0F
:104A900003D0052C01D0042C01D1FFF779FA10BD09
:104AA00070B57A4D0024E978052917D201290CD078
:104AB000022904D0032905D004290BD108E0FFF70F
:104AC000B5FD07E0FFF742FC04E0FFF730FE01E030
:104AD00000F01AF9E878401CE87000E00124204654
:104AE00070BD70477047032008700A20487000208E
:104AF0004882087548751722CA8208220A83102244
:104B00004A8388836422CA8320310870704710B5B5
:104B10000121322001F01CF8FFF711FA002801D022
:104B2000FFF736FA10BD7047564810B53221401EC7
:104B300001F02CF810BD704710B5FFF729FA10BD31
:104B4000704770477047704710B51E2332220E2100
:104B50005C4801F075F80121017041700022C270BB
:104B60001023437103238370017102720422827146
:104B7000C17101F077F810BD70B51E2332220E21ED
:104B8000504801F05DF80446FFF75AFA0546042044
:104B90002070012060701021A01C01F00BF9280E7C
:104BA0006071280C2071280AE070A570204601F081
:104BB00059F870BD704770B505461E2332220E218C
:104BC000404801F03DF804466878FFF742FA0620B5
:104BD0002070012060701021A01C01F0EBF806226B
:104BE00039A1A01C00F078FF204601F03BF870BD11
:104BF00070B505461E2332220E21324801F020F8FE
:104C000004466878FFF725FA072020701E49012026
:104C100060702039887E2077088B608220460822C9
:104C20001031143000F058FF174910222039A01C11
:104C300000F052FF204601F015F870BD70470120CA
:104C4000704770477047704710B5FFF7B3F90D4CC8
:104C50003221641E204600F099FFFBF78DFE3221C1
:104C6000204600F093FFFFF795FCFBF7C4FEFFF72B
:104C700013FE002010BD0000BB480020B0800020C3
:104C80000033005005C80000A08000207480002080
:104C9000A6800020701700004C04000007030318D2
:104CA000021804180000000009FF006052572D424E
:104CB0004C450000444131343538302050585200C2
:104CC0005046000014380000ABAB455523010000EE
:104CD00010B5104600F04EFF022801D1FFF758F939
:104CE0000020C7E7FE480021017441618161C16075
:104CF000FC4A01771165142101707047F8480021C2
:104D000001744161C160704710B501233222332123
:104D1000F54800F095FF0021017000F0A3FF10BDE1
:104D200010B5332110233222880200F089FFEF49A9
:104D3000098801800121817000214160816000F0BB
:104D400091FF10BD10B50446E94804230288E648E7
:104D50003321401E00F074FFE4490988018084700B
:104D600000F080FF10BD10B5DD4C2078022801D185
:104D7000FCF7A8FE2078032801D1FCF73DFE1420A3
:104D8000207010BD08B5AA2168460170D448027889
:104D90004068132A04D0801CFCF73EFF022008BDA7
:104DA000811C01226846FCF7E8FC40B20128F5D0DE
:104DB000062008BD10B5CA4C2078C00601D40120D9
:104DC00000E01020FFF7BEFF002020746061A061AA
:104DD000E060207710BDF8B50E460021040EC04FEC
:104DE0003160142C18D23C7080B225467860002CBB
:104DF00001D0012D07D1BF49280608437960002161
:104E000001F062F830603878122801D0132803D1FD
:104E1000786802280BD87874112C26D00EDC022C6E
:104E200020D006DC002C1DD0012C13D11AE011205B
:104E300022E0032C16D0102C0CD116E0FD2C2CD027
:104E400004DC122C0ED0132C04D10BE0FE2C16D057
:104E5000FF2C0CD00820FFF775FF142038700020BD
:104E60003060F8BDFFF7A6FFF8BD082004E0FFF7AB
:104E70007AFFFFF743FF0320FFF764FFF8BD387F99
:104E8000002801D0042001E0FFF77CFFFFF75AFF64
:104E9000FFF769FFFFF732FFF8BD002001F01AF8B5
:104EA000F8BD10B504469248042302888E48332189
:104EB000801E00F0C5FE046000F0D4FE10BD3EB5BB
:104EC00000220124640465120092019213461146E7
:104ED0000292FCF73BFDFCF7F4FB874980B24218D5
:104EE00002D0012A00D1940429462046FCF7EAFAB0
:104EF0003EBDF8B504467A48804F81680025090612
:104F0000090FA1718268ED431207120FE2718368E5
:104F100092001B041B0F237083681B051B0F63701B
:104F200083681B021B0FA37083681B031B0FE370B6
:104F300083681B0F237180680001000F60712820B7
:104F40004143C9198858002801D0284600E00120B3
:104F50008850A679E279C11700F0C2FF320100F053
:104F6000BFFF674E32687368104319433060716049
:104F7000A07828214843C119E07882008858002889
:104F800001D0284600E001208850A678E278C117B9
:104F900000F0A6FF320100F0A3FF594E326873689B
:104FA0001043194330607160207928214843C119AA
:104FB000607982008858002801D0284600E001204E
:104FC000885027796279C11700F08AFF3A0100F012
:104FD00087FF32687368104319433060716020782E
:104FE0002821484345494118607880000A58002A22
:104FF00000D101250D50284627786278E91700F086
:105000006FFF3A0100F06CFF326873681043194378
:1050100030607160012000900326360261782078AC
:105020000823324600F06EFF00250095E179A07953
:105030000723324600F066FF0095E178A07806234A
:10504000324600F05FFF0095617920790523002248
:1050500000F058FFF8BDF8B504462148274F816895
:1050600000250906090FA1708168ED430907090FA2
:10507000E17081680904090F217082681205120F1E
:10508000627080689200000C606028204143C9195A
:105090008858002801D0284600E001208850267852
:1050A0006278C11700F01CFF320100F019FF144EA6
:1050B000326873681043194330607160A07828210A
:1050C0004843E178C01989004258002A00D10125DF
:1050D00045502846A778E278E91700F001FF11E073
:1050E000BC8000204467002008CC000074800020B1
:1050F0006A80002090680020F010FFFF28900020B8
:10510000209000203A0100F0EBFE326873681043F3
:10511000194330607160002500956178207809237B
:105120002A4600F0EFFE0095E178A0780A230022DD
:1051300000F0E8FEF8BDF0B5FA4F02243878E60139
:1051400085B000280AD0012808D039464A68896805
:10515000022827D003284FD0082473E0F24D000620
:105160002843002100F0B0FE8004397C000C0A18AE
:10517000B24201D9072465E0301A401AEB4A80B2E6
:1051800089185432101805E00A68091F04C03A7CD7
:10519000121F3A743A7C002AF6D138780006284368
:1051A000002122E001204006104300F08DFE800423
:1051B000050C387C4019B042DCD802A8FFF74BFF41
:1051C0000398012380B200220221FCF755FC786885
:1051D0003A7C4119D548001DFCF76BFD397C8142B2
:1051E00000D00624FCF778FC22E000F06DFEFFF70B
:1051F00058FE022C22D025E003200006104300F0C8
:1052000063FE8004050C387C4019B042B2D8684671
:10521000FFF76FFE6846FFF752FE78683A7C411947
:10522000C248001DFCF7A9FA397C814200D006244F
:105230003878796800060843B968D6E7FFF793FD28
:10524000FFF75CFDE0B2FFF77DFD05B0F0BDF8B5FE
:1052500002460020160BC04336030C0B090500D094
:10526000641C002C00D10124002501273F0307E026
:1052700020213046FCF7FCF9F619002802D16D1CFC
:10528000A542F5D3F8BD0021FF2802D0401CC0B2D2
:10529000704708467047FF2802D0FF2905D006E076
:1052A000FF2908D0002906D001E0002801D088425B
:1052B00001D9022070470120704710B5994B1B7827
:1052C000132B02D0FCF786FC10BDFCF77BF910BD58
:1052D000F7B598B0074600251A980C462E46402888
:1052E00005D30878702802D16078512802D01220A6
:1052F0001BB0F0BD606815908A49403008621F21DC
:105300000C2209036846FFF7D8FF0C284BD16846EA
:105310000078702803D168464078522801D01420C4
:10532000E6E701981190029812901598002805D090
:1053300011991298411A1598814201D21320D7E78A
:105340006846402210901199FFF7B7FF40282AD1F4
:105350006846C07813906846817803A81690204666
:105360000C301790AA2907D168460078702803D11D
:1053700068464078512803D00125002013900BE0A7
:1053800010221699179800F0B5FC002804D1E069A6
:105390000799884200D10225402212991098FFF700
:1053A0008CFF402801D01620A2E76846C0781490F0
:1053B00068468078AA2807D168460078702803D10B
:1053C00068464078512803D00126002014900BE055
:1053D00010221699179800F08DFC002804D1E0697E
:1053E0000799884200D10226002F01D0022F08D948
:1053F000012D17D0012E17D014991398FFF74BFFEA
:105400000746FF224021684600F070FD022F0DD0B4
:10541000022D23D0434911984860002E20D0022E3F
:105420001ED00CE00127ECE70227EAE7022E15D098
:105430003C4912984860002D0ED0022D0CD0012559
:10544000384E3078132810D0402268467168FCF737
:1054500030FC40283AD110E0139802E0152047E7CD
:105460001498FFF710FF0546EAE71598403081B21F
:105470007068FFF7ECFE002828D16946CD7060689F
:105480000190A0680290E16863692269A06903AD98
:105490000EC50690E069079020786946087060782C
:1054A000487020461A9C31784030403C132971687E
:1054B0000ED040312246FCF7FCFBA04206D1402230
:1054C00071681098FCF7F5FB40280DD006200FE717
:1054D00040312246FCF751F9A042F7D140227168D1
:1054E0001098FCF74AF9EFE7002001E7F0B50D4D01
:1054F0000E490224002085B054316B6904E02A7FF4
:105500000E5C72402A77401C8342F8D82878002627
:1055100012280DD0132839D00824E0B2FFF712FC6E
:1055200093E60000BC8000209068002040670020C7
:1055300002A8FFF790FD0398012380B20022022108
:10554000FCF79AFA6A69002A02D0A869002811D0EB
:10555000A969286A8A18431C9A4240D8824201D914
:10556000401A686168682F46411826486A69FCF746
:10557000A0FB28E0687C2349FFF7AAFE002829D079
:1055800084B26E61A869FFF78CFCC6E76846FFF736
:10559000B0FC6846FFF793FC6A69002A02D0A8694C
:1055A0000028E7D0A969286A8A18431C9A4216D8AD
:1055B000824201D9401A686168682F464118114833
:1055C0006A69FCF7DAF87969814208D1B86940184C
:1055D000B861D6E76A69A9698918A961D1E7062483
:1055E000CFE770B5084C094D2146284600F06CFC09
:1055F0000104090C05D083B2024A2146284600F076
:105600007BFC70BD946700200003060500280003A2
:1056100010B50C46104600F0ADFA012809D132222F
:1056200001231146900200F00BFB2178017000F07D
:1056300019FB002010BD70B5464E3078142835D2C5
:105640008A78002A34D0F468002C2BD0C00614D4F9
:10565000307CCA788518502D26D83F4B091DC018BC
:1056600000F03AFAE8B23074844201D1FFF763FDEA
:10567000307C14E0FFF766FB1AE0CA787069FF23FC
:10568000851801339D420FD8344B091DC01800F016
:1056900023FA7561AC4201D1FFF728FF7069F16808
:1056A000884205D90520E5E70720E3E70820E1E780
:1056B000002070BD08B58878002806D04868694683
:1056C000FFF789FB0098FFF7ECFB002008BD10B541
:1056D000887800280ED01F4A496891601078022807
:1056E0000AD0032808D0122804D0132802D008209A
:1056F000FFF728FB002010BD52680006104300F0A1
:10570000E3FBFFF7CEFBF5E770B588780C46002881
:105710001DD0A088002805D00E4D2978CA0603D4D4
:10572000820701D005200EE0142910D2C90605D445
:10573000502807D8FFF7E2FAA08807E0FF210131DF
:10574000884203D90720FFF7FDFA00E0E860002057
:1057500070BD0000BC8000204467002094670020DA
:10576000024670B54A40D30FDB0740002DD04A00F7
:105770002AD0010E140E091900021202400A520A20
:105780008418E50104465443000A120A2E045043CB
:10579000A4194219200CC543AA18120C01257F39FF
:1057A000521CAD0352191204240400D0521C1043A1
:1057B00001D44000491EC2B20C06C0092018401C8A
:1057C0004008802A02D003E0002070BD400840005D
:1057D000002900DA0020184370BD70B502464A4027
:1057E000D50F40004A00ED0740085208002816D0A7
:1057F000002A14D041000C0E51000B0E4102012072
:10580000C0055202490A520AE41A091812187D34D6
:10581000914201D3641C00E04900002C01DA002011
:1058200070BD0023914201D3891A03434008490007
:105830000028F7D100290AD0914202D10121C907DD
:1058400005E0914201D2012101E00121C943E005B7
:10585000C018401900F067F870BD420005D0420042
:10586000120E52428A4201DB00207047C905081817
:105870007047C217C10F504010B54018CA07962391
:10588000002100F058F810BD10B5002296231146F3
:1058900000F051F810BD40004008C10D4002012247
:1058A000400AD20580187F2901DA00207047962926
:1058B00003DC9622511AC8407047963988407047D9
:1058C000C20FD207400040080ED0C10D0723DB01F4
:1058D000C918090540021143400A0022C3085207B3
:1058E0001A43400711437047002001467047CB0F11
:1058F000DB07490010B5490802460A4307D00A0DE4
:1059000007240903E401090B121B002A01DC002013
:1059100010BDC900440F0C43C100E018D205801827
:1059200000F001F810BD002904DA401C490001D143
:1059300040084000704770B40024050C05D11024C5
:10594000000402D1002922D01124050E01D108340F
:105950000002050F01D1241D0001850F01D1A41CF7
:105960008000002801DB641C4000002908D02025AD
:105970002E1B0D46F540A14000D001210D432843C8
:105980001B1B0106DB1D000A002B02DA002070BC85
:105990007047DB05181880180029F8DA401C490008
:1059A000F5D170BC4008400070470000064C01254E
:1059B000064E05E02046E36807C82B43984710349D
:1059C000B442F7D3FAF740FD90660020D06600207D
:1059D00003B40148019001BD551B020003B4014806
:1059E000019001BD0F3B030003B40148019001BDCC
:1059F000CF2B030003B40148019001BDCB2C030061
:105A000003B40148019001BD0990020003B40148AC
:105A1000019001BD1F21020003B40148019001BDA6
:105A2000C12D030003B40148019001BD0921030009
:105A300003B40148019001BDC92D030003B401481E
:105A4000019001BD2B69020003B40148019001BD22
:105A5000EB31030003B40148019001BD3D32030066
:105A600003B40148019001BDD721030003B40148EC
:105A7000019001BDA73A030003B40148019001BDA4
:105A8000913B030003B40148019001BD2F2F030097
:105A900003B40148019001BD938F020003B4014893
:105AA000019001BDCD8C020003B40148019001BDFD
:105AB000418F020003B40148019001BD2768020034
:105AC00003B40148019001BD3968020003B40148E4
:105AD000019001BDB780020003B40148019001BDEF
:105AE000213B030003B40148019001BDD33A0300F8
:105AF00003B40148019001BDBF22020003B4014874
:105B0000019001BDEB26030003B40148019001BDE3
:105B10003524030003B40148019001BD2F22020087
:105B200003B40148019001BDDD20030003B4014826
:105B3000019001BD533B030003B40148019001BD36
:105B40009D20030003B40148019001BD33500200C1
:105B500003B40148019001BD3126030003B401489C
:105B6000019001BD5548020003B40148019001BDF8
:105B70001F50020003B40148019001BDB326030089
:105B800003B40148019001BDFD3D030003B4014889
:105B9000019001BDA528030003B40148019001BD97
:105BA000D5AF020003B40148019001BDA1A50200D8
:105BB00003B40148019001BDE3A5020003B401480C
:105BC000019001BD87A8020003B40148019001BD06
:105BD000A7A9020003B40148019001BD93AA0200E5
:105BE00003B40148019001BD95AB020003B4014824
