:020000040000FA
:1000000090870020C5010000CD010000AD06000072
:1000100000000000000000000000000000000000E0
:10002000000000000000000000000000D1010000FE
:100030000000000000000000D3010000D501000016
:10004000D7010000D7010000D7010000D701000050
:10005000D7010000D7010000D7010000D701000040
:10006000D7010000D7010000D7010000D701000030
:10007000D7010000D7010000D7010000D701000020
:10008000D7010000D7010000D70100006D06000075
:100090008D060000D7010000D7010000D701000045
:1000A00000F002F800F046F80CA030C80838241818
:1000B0002D18A246671EAB4654465D46AC4201D1A0
:1000C00000F038F87E460F3E0FCCB646012633428C
:1000D00000D0FB1AA246AB46334318471046000037
:1000E00030460000103A02D378C878C1FAD85207D7
:1000F00001D330C830C101D504680C6070470000DE
:100100000023002400250026103A01D378C1FBD833
:10011000520700D330C100D50B6070471FB5C046F1
:10012000C0460098019901F074F901F00EF81FBD66
:1001300010B510BD01F0C7F91146FFF7EFFF00F051
:100140008FFC01F0DFF903B4FFF7F2FF03BC01F00D
:100150000DFA000030B40C490C684A682368106836
:10016000C0181060241D121D8C4207D28A4208D28A
:100170000C604A6030BC4000400870470C00DC3C1A
:10018000F6E70A00DC3AF3E72484002070B5054660
:100190000C46164602E00FCC0FC5103E102EFAD2C8
:1001A000082E02D303CC03C5083E042E07D301CC8E
:1001B00001C5361F03E021782970641C6D1C761E72
:1001C000F9D270BD0748804707480047FEE7FEE7C1
:1001D000FEE7FEE7FEE7FEE704480549054A064B51
:1001E00070470000FD010000A10000009084002085
:1001F00090870020908500209085002004490348C6
:1002000008607047024901480860704700E1F50541
:1002100000800020F7B582B00E4605460024994FB5
:1002200014E02919487809280CD104982E23584342
:100230002A5DC0190090891C0F3000F0BCFF0098A7
:10024000295D8173285D641C0019C4B2B442E8D3EF
:1002500005B0F0BD10B58B490120087000F07CFCA2
:10026000002010BD10B53F2A01D100F031FC002064
:1002700010BD844900200870704782480078042827
:1002800002D00020C04370470020704770B57D4CFD
:100290000D462078002801D0012821D100F0E8FA8D
:1002A00002202070784C28882081294606220A31B5
:1002B000601C00F080FF2046FF2160304175017511
:1002C000C17404233F220121704800F000F9218904
:1002D00001800021817000F0DFF8002000F08CFC2C
:1002E000002070BD10B5684A08881289904209D173
:1002F0008A780146102000F04CFD62490020087009
:1003000000F00EFC002010BD5F4809786030417598
:1003100000207047F8B50C465B4809782030022968
:1003200006D0032935D0052905D0072935D114E099
:100330000121817331E054481022A11C4C3000F09F
:100340003AFF51482146102212315C3000F033FF51
:100350004D48217E603081701FE04B4D608A4035F2
:10036000288021461431A81C08220F46064600F0BA
:1003700022FF207FA8722846227FA11C103800F09F
:100380001AFF608A288008223946304600F013FFA1
:1003900003E00021817300F044FC0020F8BD10B59B
:1003A0003F2A08D1374900200870394902228A7152
:1003B000087200F0A9FB002010BD10B5084600F03F
:1003C0008EFC002010BD70B518460D460146122364
:1003D000304800F07CF804462B482030807B002811
:1003E0001BD029480822A91C423000F0B7FE002883
:1003F00013D125482A884030018891420DD101212E
:100400002170817A61740146827A1039601C00F093
:10041000D2FE012000F0F0FB01E000202070204619
:1004200000F03AF8002070BD0020704710B5087841
:10043000002809D114484B88028915489A4201D1F5
:10044000097900E00021C17100F0FFFB002010BD20
:1004500010B50C480078002801D100F061FB0020A5
:1004600010BD10B58878002806D0012807D00228D2
:1004700001D100F0DAF910BD00F0FAF910BD00F07A
:10048000B2F910BD28800020C881002003040000BC
:100490001C8000201838000070B502460838044659
:1004A00001466B4D083AD0882B7E0830012B07D0CF
:1004B00082B2684800F050F9688B401C688370BDB8
:1004C00080B200F0A7FD204600F001FE70BDFFB530
:1004D0000746184681B01D460E46093000F0C6FD9D
:1004E0000780044646800398A080E580002D04D054
:1004F00020462946083000F0BBFE2046083005B0F3
:10050000F0BD10B5083800F0E2FD10BD0020C0437A
:10051000704770B51C464B78002B09D10D782B0025
:1005200001F086F80406030608062346FFF737FFA6
:10053000002070BD2346FFF78DFE70BD70B5428868
:100540003F2A1AD10488444D0146631B0831AC424E
:100550004FD020DC414BE51A9C4240D00EDC404B92
:10056000E3185FD03F4D5B192FD0012B32D0072B02
:1005700003D183882046FFF77CFE70BD3F231B011B
:10058000EB1AFAD0012B2FD0032BF6D1838820460B
:10059000FFF7A8FE70BD102B3AD00ADC0A2B32D030
:1005A0000C2B2BD00E2BF5D183882046FFF70BFFA9
:1005B00070BDFF24E4001B1BFAD0012B2DD0032BB0
:1005C000F6D11046FFF744FF70BD83882046FFF741
:1005D000A0FF70BD83882046FFF744FE70BD83886E
:1005E0002046FFF74AFE70BD83882046FFF74EFE87
:1005F00070BD83882046FFF787FE70BD8388204644
:10060000FFF788FE70BD83882046FFF7D6FE70BDD9
:1006100083882046FFF708FF70BD83881046FFF7E8
:1006200020FF70BD83880E484042FFF7FFFE70BD7B
:1006300010B50D480068002809D00B4800F0A0F85C
:1006400044682046FFF77AFF204600F040FD10BDC9
:10065000288200200C80002009380000103400009F
:10066000F1FBFFFF0FD0FFFF0480002070B50125D4
:100670000F48EC0404600F4800F06EFC0E48C58182
:100680000E4804600A488038046070BD10B501242B
:1006900007482405046008490220C88100F0E8F8F2
:1006A0000648046002488038046010BDFEE7000080
:1006B00080E100E0468200200014005080E200E06B
:1006C00038B5012003252D020146009008232A4653
:1006D000002000F071FF002407232A46214620460F
:1006E000009400F069FF06232A46032100200094AD
:1006F00000F062FF0022052302211046009400F062
:100700005BFF00230122520207211846009400F0EB
:1007100053FF38BD00210520000701808188032296
:1007200012029143FF31FF3102318180094A0821D1
:100730001180418A202211434182418A8022114343
:100740004182018A022291430182818A0907FCD5F4
:10075000B6E700000033005070B5044615460E465B
:100760000C2000F083FC00214660016005812168B7
:10077000002903D061680860606070BD2060FBE7FD
:1007800010B501460068002808D002680A60416878
:1007900061600189218000F09AFC204610BD0000B4
:1007A00031204E49000188810520000781880322FD
:1007B00011438180828808210A4382804848028848
:1007C0008A43028001880222914301800188042229
:1007D000914301807D21C9018180C180018801226E
:1007E00011430180704731203C49000148810520B8
:1007F00000078188032211438180828808210A43EF
:100800008280374802888A4302800188022291430D
:100810000180018804229143018032498180C18096
:100820000188012211430180704731202B490001CA
:100830004881052000078188032211438180828836
:1008400008210A438280264802888A430280018860
:1008500002229143018001880422914301807D217D
:1008600089018180C1800188012211430180704784
:1008700010B51B480188490849000180174A00212A
:100880005181918105221207948808239C4394800A
:100890008180C18041809088502198430843908096
:1008A00010BD01211048090501600C4A0813108190
:1008B0000E48028ACB121A430282028A02231A438A
:1008C00002820A2242800A4802684023120A120267
:1008D0001A4302600448803801607047203000509D
:1008E00000340050C05D000080E100E000140050C2
:1008F00014E400E0F8B50E460746564C00F085FAC1
:1009000000F07CFA002520E0002F04D0012F12D047
:10091000022F18D126E0207800F0EDFA208800049C
:10092000000E00F0E8FA20680002000E00F0E3FA82
:100930002068000E05E0208880B200F0DCFA206814
:10094000000C00F0D8FA241D6D1CB542DCD300F079
:100950005CFA00F053FA002000F0CDFAC0B2AA28E9
:1009600008D101E02068ECE7002000F0C4FAC0B232
:10097000022803D000F049FA0020F8BD00F045FA43
:100980000120F8BD70B515460E46044600F036FA53
:10099000702000F0B0FA502000F0ADFA002000F016
:1009A000AAFAE0B200F0A7FA02280BD12004000E48
:1009B00000F0A1FA304600F09EFA284600F09BFABB
:1009C000022803D000F021FA002070BD002000F0C2
:1009D00092FA00F01AFA012070BD30B50446FF20EB
:1009E00000211C4D0CE08A00AA58130E434010024F
:1009F000000E584013041B0E4340D0B25840491C0F
:100A0000A142F0D330BDF0B5134885B00126467041
:100A10000024124F04703846FFF7DFFF00250390D3
:100A200000942B462A462946029601940A4800F073
:100A3000F3F93C462A4620460399FFF7A3FF000638
:100A4000000EF7D021460020FFF754FF00F03AFADD
:100A500005B0F0BD6016000014800020230C0000DB
:100A60000EB5D3480125457000260670FFF752FEEB
:100A7000D04C26766683A683FFF7C5FF0023009639
:100A80001A461946CA480296019500F0C5F900F0C9
:100A900059FAFFF706FF207E012810D1608B00284D
:100AA0000DD0C548FFF76CFE05464168008800F090
:100AB000B1FA686800F00BFB608B401E6083A08B6E
:100AC0000028E8D0FFF7B4FDA08B401EA083E2E72A
:100AD00070B501233F220D21B848FFF7F8FC01252E
:100AE0000021B74C0570217061700A462E235343D4
:100AF0001B199D70D970D9739973521C5973092AA7
:100B0000F4DBFFF7C9FC70BD10B501233F221021B3
:100B1000AC48FFF7DCFC01210170FFF7BDFC10BD04
:100B2000A64810B522233F220D21801CFFF7CFFCE1
:100B3000032101700A214170002141820175417534
:100B4000082202831022428381836422C2832022EE
:100B50001154FFF7A1FC10BDF0B5984891B0502397
:100B60003F220D210C30FFF7B2FC04460E2020700E
:100B7000002060700121C902A181E1810720207459
:100B80000120607425461F20203528740822204645
:100B9000E27414308CA1109000F00DFB0A22204664
:100BA0002A748CA1313000F006FBE67C1A20801BF1
:100BB00007063F0E1BD008252A4689A16846FFF785
:100BC000E5FA082F00D83D461099681C7054E27C65
:100BD0002046092115301154E17C401C08182A4692
:100BE000694600F0E8FAE07CAD1C4019E07420464C
:100BF000FFF752FC11B0F0BD10B504466D482C2330
:100C00006038007A3F2200020E3081B27748FFF749
:100C10005EFC014620310C7200224A72FFF73CFC58
:100C200010BD644810B56038007A022300020E300F
:100C300081B26E483F22801CFFF749FC0121017000
:100C400013214170FFF728FC10BD10B510210623B9
:100C50003F228802FFF73BFC564960390989018031
:100C60000121817062498A79C270C9790171FFF7E7
:100C700013FC10BDF8B54F4F0646203FB872002454
:100C80004F4DFFF767FA2919FF31E131641CE4B2D7
:100C90008870082CF5D300241020001BB04201DD21
:100CA000002007E0FFF756FAC117090E0918090AD4
:100CB0000902401A2919FF31C131641CE4B20874D9
:100CC000102CE9D3FFF746FA3880F8BD10B5FFF7CE
:100CD00041FA484900F0DAFA4748081810BDF8B55B
:100CE000074634481E236038007A3F2200020E3047
:100CF00081B23E481230FFF7EAFB044638780426FA
:100D00000125002807D0042812D0072824D0204627
:100D1000FFF7F7FBF8BD257065700020E07010212B
:100D200061710321A1702571A671E57120722CE01B
:100D30007878012829D1FFF7C9FF0746267065702A
:100D40001021A01C00F094FA380EA073380CE07348
:100D5000380A2074677418E07878FFF78BFF072053
:100D60002070144865702038817A2177008860826D
:100D70001049204608221E39143000F01CFA0D4993
:100D800010223039A01C00F016FA2046FFF784FB31
:100D9000F8BD70B50D4601461448144604233F22A1
:100DA000401CFFF794FB05808470FFF775FB70BD56
:100DB00016800020288200200C80002002340000D1
:100DC00028800020034000000703031802180418BD
:100DD0000000000009FF006052572D424C45000002
:100DE00046455F50524F5852000000000238000044
:100DF0001C800020A0BB0D00A086010010B54F484C
:100E00004178007800F0FAFB10BD10B54B484178EE
:100E1000007800F0E7FB10BDF8B50E4615464749CF
:100E20000278079F0A7040781C464870FFF7EDFF74
:100E30000520000781880122D202114381804048A9
:100E400001884908490001800188FF2281329143CD
:100E5000F20111430180018840229143AA0111430C
:100E60000180018804229143A2001143018001887E
:100E700002229143069A5200114301800188012207
:100E800092039143BA0311430180018818229143D0
:100E9000089AD20011430180018801221143018088
:100EA000F8BD27490A88520852000A800A88FF23A1
:100EB00081339A43C00102430A800888012210430B
:100EC0000880704710B51E48018849084900018014
:100ED0000520000781880122D202914381801748B2
:100EE0004178007800F07EFB10BD15480188490864
:100EF00049000180704710B5114900230A88D205C6
:100F0000920F012A01D9040C8C8048800888800443
:100F1000FCD50120C880012A01D9888803044888AB
:100F2000C01810BD10B50446FFF768FF2046FFF754
:100F3000E2FF0446FFF769FF204610BD188000203D
:100F40000012005044480821018022210182012022
:100F50004249C00408607047F8B50446801C009000
:100F6000FFF753FFFFF74AFF0820FFF7C4FF0020F9
:100F7000FFF7C1FF2070641C20462038C07F384D29
:100F8000052808D006283DD007283FD00024FFF7C9
:100F90003CFF2046F8BD641C00260020FFF7ABFF95
:100FA0002070761C641CB6B2062EF6D30020FFF724
:100FB000A2FFC6B226700020FFF79DFF6070A41C40
:100FC0000002801986B2002706E00020FFF793FF99
:100FD0002070641C7F1CBFB2B742F6D33046083085
:100FE000064600F043F804463246009900F0E3F864
:100FF000B2B221461B48FFF7AFFBA88B401CA88369
:101000000124C4E7012028760224C0E700202876C6
:101010000324BCE7F8B5064601271048FF048030DA
:101020000D460760104801880906FCD4FFF7EDFE65
:10103000FFF7E4FE0520FFF75EFF002405E02878B7
:101040006D1CFFF758FF641CA4B2B442F7D3FFF73E
:10105000DCFE02480760F8BD0014005000E100E02B
:1010600028820020048000200030005070B5064621
:1010700000F0B2F9056830460B30C408E400B44211
:1010800001D8002070BD68682A46002818D0016881
:10109000A14211D30B46214608318B4208D3436845
:1010A00001194B6003681B1B0B605160046001E079
:1010B00041685160001D70BD024640680028E6D1BD
:1010C0002146284600F090F90028DCD170BD70B5AB
:1010D0000446051F00F080F90068002C1AD044680F
:1010E00001E020466468002C01D0AC42F9D30168CD
:1010F0000A18AA4204D12A6805468918016000E04E
:10110000456028684119A14205D16168696021687C
:101110004018286070BD6C6070BD00000C4A30B58E
:1011200011460C4C44310B46C03B0B62CA6137215F
:1011300006E0020C8D0012185A51074A504300195C
:101140000A46491E002AF4DC30BD0120E6E7000013
:10115000C4830020E119D666CD0D0100034610B509
:101160000B439B070FD1042A0DD308C810C9121FC7
:10117000A342F8D018BA21BA884201D9012010BD83
:101180000020C04310BD002A03D0D30703D0521C57
:1011900007E0002010BD03780C78401C491C1B1B85
:1011A00007D103780C78401C491C1B1B01D1921EEF
:1011B000F1D1184610BDF8B5042A2CD3830712D0FC
:1011C0000B78491C0370401C521E83070BD00B7810
:1011D000491C0370401C521E830704D00B78491C25
:1011E0000370401C521E8B079B0F05D0C91ADF00ED
:1011F0002023DE1B08C90AE0FEF7C8FFF8BD1D4624
:1012000008C9FD401C46B4402C4310C0121F042ADC
:10121000F5D2F308C91A521EF0D40B78491C03709A
:10122000401C521EEAD40B78491C0370401C521E0D
:10123000E4D409780170F8BD01E004C0091F042955
:10124000FBD28B0701D50280801CC90700D0027039
:10125000704700290BD0C30702D00270401C491E02
:10126000022904D3830702D50280801C891EE3E78C
:101270000022EEE70022DFE7002203098B422CD395
:10128000030A8B4211D300239C464EE003460B43D6
:101290003CD4002243088B4231D303098B421CD338
:1012A000030A8B4201D394463FE0C3098B4201D32A
:1012B000CB01C01A524183098B4201D38B01C01A62
:1012C000524143098B4201D34B01C01A52410309D9
:1012D0008B4201D30B01C01A5241C3088B4201D388
:1012E000CB00C01A524183088B4201D38B00C01A35
:1012F000524143088B4201D34B00C01A5241411A5C
:1013000000D201465241104670475DE0CA0F00D03E
:101310004942031000D34042534000229C46030937
:101320008B422DD3030A8B4212D3FC22890112BABD
:10133000030A8B420CD3890192118B4208D3890195
:1013400092118B4204D389013AD0921100E08909AD
:10135000C3098B4201D3CB01C01A524183098B428E
:1013600001D38B01C01A524143098B4201D34B0177
:10137000C01A524103098B4201D30B01C01A5241DA
:10138000C3088B4201D3CB00C01A524183088B4261
:1013900001D38B00C01A5241D9D243088B4201D3EA
:1013A0004B00C01A5241411A00D2014663465241D5
:1013B0005B10104601D34042002B00D549427047D4
:1013C00063465B1000D3404201B50020C046C046D2
:1013D00002BD704770477047004870473484002052
:1013E000704770477047704738B504460A4600207A
:1013F0006946C046C046002805D0024620460099EE
:1014000000F040F8012038BD10B5012000F054F87C
:1014100010BDF8B5C046C046054600200C46102059
:10142000C0460646A819A0420DD93246694600209A
:10143000C046C046070001D100F03EF80098A04227
:1014400000D00546C419FFF7C7FFF61D0746056023
:10145000F008C0004619284600F008F8B44204D04D
:1014600031463868A21B00F00DF8F8BD002101607C
:10147000416080607047102070470000004870474E
:101480002C84002010B50346406801E00346406804
:10149000002801D08842F9D31868C3188B4206D0BF
:1014A000CB1CD808C000001D411A521A0146081D65
:1014B0000A60FFF70CFE10BD10B500F02FF800F029
:1014C00027F810BD70477546FFF7D8FFAE460500F8
:1014D00069465346C008C000854618B020B5FEF7DF
:1014E0007BFE60BC00274908B6460026C0C5C0C5C3
:1014F000C0C5C0C5C0C5C0C5C0C5C0C5403D490008
:101500008D4670470446C046C0462046FEF71BFE87
:1015100010B5002801D000F029F810BD10B5012841
:1015200005D0002103A000F027F8012010BD09A17B
:10153000F8E7000053494752544D454D3A204F7546
:1015400074206F662068656170206D656D6F7279BB
:10155000000000003A2048656170206D656D6F7273
:101560007920636F72727570746564000149182088
:10157000ABBEFEE72600020070B505460C460A2009
:1015800000E06D1C00F012F8002D06D0287800282D
:10159000F7D102E0641C00F009F8002C02D020789A
:1015A0000028F7D10A2000F001F870BD08B569469F
:1015B00008700320ABBE08BDF8B5044606980D467A
:1015C00000281E461746204602D000F00BF801E026
:1015D00000F014F833463A462946204600F01AF83F
:1015E000F8BD0000032800D10420034A4001801800
:1015F00001228A404280704700300050032800D109
:101600000420034A4001801801228A4082807047EA
:101610000030005010B5032800D10420034C4001D5
:101620000019490008181A43C28010BD003000504C
:1016300030B47446641E2578641CAB4200D21D464B
:10164000635D5B00E31830BC184700000000000039
:10165000000000000000000000000000000000008A
:1016600000980020B9040020C1040020D904002003
:10167000000000000000000000000000000000006A
:10168000000000000000000000000000F104002045
:101690000000000000000000090500200B050020EC
:1016A000211E0020053103000D3103001531030018
:1016B000D51E00208D310300251F00202D1F002086
:1016C0000D0500200D0500203F1F0020AD31030057
:1016D000578102004B1B02004B1B02009F1300208E
:1016E0004B1B02004B1B02004B1B02004B1B02005A
:1016F0004B1B02004B1B02000D0500204B1B020080
:10170000FFFFFFFFFFFFFFFFFFFFFFFFFFFFFFFFE9
:10171000FFFFFFFFFFFFFFFFFFFFFFFFFFFFFFFFD9
:10172000FFFFFFFFFFFFFFFFFFFFFFFFFFFFFFFFC9
:10173000FFFFFFFFFFFFFFFFFFFFFFFFFFFFFFFFB9
:10174000FFFFFFFFFFFFFFFFFFFFFFFFFFFFFFFFA9
:10175000FFFFFFFFFFFFFFFFFFFFFFFFFFFFFFFF99
:10176000FFFFFFFFFFFFFFFFFFFFFFFFFFFFFFFF89
:10177000FFFFFFFFFFFFFFFFFFFFFFFFFFFFFFFF79
:10178000FFFFFFFFFFFFFFFFFFFFFFFFFFFFFFFF69
:10179000FFFFFFFFFFFFFFFFFFFFFFFFFFFFFFFF59
:1017A000FFFFFFFFFFFFFFFFFFFFFFFFFFFFFFFF49
:1017B000FFFFFFFFFFFFFFFFFFFFFFFFFFFFFFFF39
:1017C0003F00000029060020D90F00202D24002012
:1017D000000000000000000063800200BD800200E5
:1017E000150E0020FB8002001981020035810200E5
:1017F0005D810200A71E00200F060020C50D0020FD
:10180000DD0D002000000000000000003F0000008F
:10181000F48B002000040000740B08004801000055
:101820006807080000040000C80C0800200500003C
:1018300000000000200000004800000058000000E8
:1018400068000000040100001601000028010000EB
:101850002E010000202A00008E2E00000100000052
:101860008813000063100020E9600200FD9302006D
:101870000725002019280300A5740200351A00204E
:1018800003000000990E002039240020040000000D
:10189000D74902000F490200831D02006391020034
:1018A000B7910200BF91020007820200718202001C
:1018B000CC2D0020AD8302009384020041850200FC
:1018C00015860200378602005F86020075860200D8
:1018D000F9870200258902005D8A0200D38C02008C
:1018E000098D02000F900200438D0200278E020036
:1018F000F98E0200478F0200998F0200D58F0200F7
:1019000049510200775102002F52020010000000DE
:1019100020030000803E00000000000000000000E6
:10192000504600030003983A6400F401B80B000C21
:10193000B80B120030003000CD009A0112002400D4
:1019400030006400B0001800280012001200D00718
:101950000000FFFF00000000000000000000000089
:101960001F000002444131343538302D3031000041
:101970000000000000000000000000000000000067
:1019800000000000FFFFFFFFFFFFFFFFFFFFFFFF63
:10199000FFFFFFFFFFFFFFFFFFFFFFFFFFFFFFFF57
:1019A000FFFF010000C20100000000000000000075
:1019B0000000F4010100011B0A0B1AFFD2000215FE
:1019C000585CDE931B0142CC9A1325009BEDC65E4A
:1019D00000000000C5000000000009FF0060525731
:1019E0002D424C45000000000000000000000000F7
:1019F0000000000000000000000044413134353890
:101A0000302D303100000000000000000000000018
:101A100000000000000000000000000000000000C6
:101A200000000000000000000000000000000000B6
:101A30000000000000000000010000CAEA80D0079A
:101A40000690640AFFFFFFFFFFFFFFFFFFFFFFFF9E
:101A5000FFFFFFFFFFFFFFFFFFFFFFFFFFFFFFFF96
:101A6000FFFFFFFFFFFFFFFFFFFFFFFFFFFFFFFF86
:101A7000FFFFFFFFFFFFFFFFFFFFFFFFFFFFFFFF76
:101A8000FFFFFFFFFFFFFFFFFFFFFFFFFFFFFFFF66
:101A9000FFFFFFFFFFFFFFFFFFFFFFFFFFFFFFFF56
:101AA0000348854602F086F900480047C720020037
:101AB0000098002040BA704740BA7047C0BA7047DB
:101AC000C0BA704710B5114988683E2290432E3045
:101AD00088600F4906200880FF200E490130086009
:101AE0000021052000070180028A0F231B021A43F0
:101AF00002820122D204032308461B0384182160BA
:101B0000001D9842FADB62B610BD000000330050A1
:101B10000034005080E100E0154880471548004738
:101B200004207146084203D0EFF3098012490847A8
:101B3000EFF308801049084704207146084203D09B
:101B4000EFF309800D490847EFF308800B49084778
:101B500004207146084203D0EFF309800849084782
:101B6000EFF3088006490847FEE7FEE7FEE70000BE
:101B70006504002041040020010A00202505002002
:101B80009705002005221207518A802319435182AC
:101B9000114903680B6043684B6083688B60C368BE
:101BA000CB6003690B6143694B6183698B61C069D9
:101BB000C8610A48836A0B62C36A4B62036B8B621B
:101BC000C36BCB62436B0B63806B4863908A800668
:101BD00001D500BE7047FEE70018080000ED00E0E8
:101BE00002890889C549101A80B2884201D90120AA
:101BF00070470020704781692039897F082904D205
:101C0000BF4A8900515881617047FEE7BE48BD490F
:101C10000161BE494161BE498161BE49C161BE49A0
:101C20000162BE494162BE498162BE49C162BE498C
:101C30000163BE494163BE498163BE49C163BC497A
:101C4000B1485C3140300160BB494160BB498160B3
:101C5000BB49C1600120BB49C0060860BA49CA69D6
:101C60001202120ACA61B74980390860704710B57C
:101C7000B6490020086000F087FB01208007016B57
:101C800049004908016310BD08B5B148012404703A
:101C9000B0480825058002F09FF802F05DFB00F0D7
:101CA000A6FAAD4801780170AC48017801700120B6
:101CB00002F098F827020D203946800102F098F8CA
:101CC00001F0FAFA00F022FC00F0AEFAA44E3089DE
:101CD00040094001308130890F2189028843711405
:101CE000401830819F4870822620B0820720F08201
:101CF0009D483083748370881E218843143070801F
:101D0000042000F0F3F8072000F0F0F80A2000F0BB
:101D1000EDF8062000F0EAF80B2000F0E7F80120CB
:101D200000F0E4F8022000F0E1F8002000F0DEF816
:101D30008E48006802F062F8A0070168394301602C
:101D400000F031F98A4F3868AA2805D1142000F034
:101D5000D9FA142000F0E4FAFFF789FFA220052445
:101D60002407E0827088E0218843A0307080814899
:101D7000006B007800280BD0002002F045F802F03C
:101D800049F8022806D002F045F8012802D00AE0FE
:101D90000120F2E76F480580A08A8006FCD4618AA2
:101DA00080208143618204272089000621D50120FB
:101DB0008007006B00041CD402F032F8C00718D171
:101DC000042002F033F8054602F036F8002D10D05A
:101DD0000020009066480068AA2802D1142000F074
:101DE0009FFA0421684602F02DF8002801D000F087
:101DF000E0FA72B65E480068AA2801D100F0C4FA81
:101E000001F082FA0546042806D0022D0BD0032DDE
:101E100009D0012863D067E057480078012801D035
:101E2000032500E00225208A3843208251484038AB
:101E3000C069012810D9032D19D102F009F8002832
:101E400015D002F00BF8002811D0032002F00CF896
:101E500000280CD0022007E0032D08D1032002F057
:101E600003F8002803D001204449087000E002254F
:101E70003548016939430161618A202291436182B9
:101E8000218A022211432182618A022D20D0394306
:101E900061827F212288890180252A4322800022B5
:101EA000521CD2B20A2AFBD3628A10231A436282DE
:101EB000334A491E51612188A94321807188FF223C
:101EC00001329143718030BF0169B94301610BE078
:101ED00039436182618A102291436182EEE700F00A
:101EE000B9FA002800D030BF62B65DE7C106C90E5E
:101EF00001208840234908607047000030750000C9
:101F0000AC2D0020942703000084004000DF896886
:101F100028A30200704701DF1CCA0200F8BD02DFDF
:101F200040CB0200F5E703DF84D4020004DF89B070
:101F3000BC330200F8BD05DFF8BD06DFEC0C030082
:101F400070BD07DF80E100E000ED00E08C030800D9
:101F5000188000200033005000000800202A0800EC
:101F6000200000504E02000077770000049000200F
:101F7000248000202002002054020800C40608002B
:101F80000080004080E200E07047000031480178A6
:101F9000002902D08021417070472F49002008702D
:101FA0002E49C87070472B480178002902D0812142
:101FB000417070472849012008702849C87070474F
:101FC00024480178002902D08221417070472249BB
:101FD0000220087021490120C87070471D4881788F
:101FE000002904D0491E0906090E817017D14278D4
:101FF0000021002A04D09207920F0270417004E081
:102000000278002A01D0521E02701206120E0170D0
:1020100005D0012A02D0022A01D1D1E7C3E77047D7
:1020200010B50C4CA078401CA0702078002805D179
:1020300001F0F0FE421CFFF7A9FF227010BD054918
:102040000120C870704703490020C87070470148DC
:10205000C07870471980002054020800C6060800A6
:1020600005221207118A042319431182118A0223BF
:10207000194311821189402319431181174B012102
:102080001960174B08211980518A80231943518206
:10209000144903680B6143684B6183688B61C368B3
:1020A000CB6103690B6243694B6283698B62C069D0
:1020B000C8620D48836A0B63C36A4B63036B8B630F
:1020C000C36BCB63436B074940310B60806B486047
:1020D000908A800601D500BE7047FEE780E200E0EE
:1020E000003300504018080000ED00E070B54A4889
:1020F00000220168D243002901D0134600E00123E9
:10210000464903600D68DC174E682B4334430B606F
:102110004C604368002B01D0134600E0012343606C
:10212000DC17DB180D6864414E682B4334430B60A9
:102130004C608368002B01D0144600E00124E317B3
:10214000A50F9B002B4384600D68A4004E682C43B0
:1021500033430C604B60C368002B01D0144600E091
:102160000124E317650FDB002B43C4600D68E40016
:102170004E682C4333430C604B60C369002B00D185
:102180000122C261D017530EC00118430C68D2015E
:102190004B68224318430A60486070BDF8B50024BC
:1021A000FF25013507232A4621462046009402F0E8
:1021B00041F808232A4601210020009402F03AF851
:1021C0000623DE01324602210020009402F032F89C
:1021D00005232A4603210020009402F02BF8002357
:1021E000324607211846009402F024F8F8BD10B5D5
:1021F00005242407208A022188432082A08A000720
:10220000FCD500F060FBFFF701FDFFF7C7FF608A18
:1022100020210843608210BD2890002020900020DB
:10222000A34900204860704770B505210907088957
:102230003022904308810889802210430881088950
:1022400080088000401C0881088908231843088101
:1022500098480488144304804C8A9C434C820D891E
:10226000402425430D810D8A0426B5430D828D8AB5
:10227000AD07FCD58E4E00257560058801263543D7
:1022800005804589AE058C4D068801D52E4300E0BA
:10229000AE43068005887826B54328350580058835
:1022A0000626354305804D8A1D434D82038893439E
:1022B00003800A89A2430A814089800503D57D49AC
:1022C00005206031888001208007016882159143D4
:1022D00001607A4801683F225202914342148918F2
:1022E0000160016802031143016070BD032174485D
:1022F00009028181082242800021491C9629FCD3D1
:10230000828070476F494880088803221043088004
:10231000088804221043088065490120087070472E
:102320007CB5634C217800292DD066490A88520774
:10233000FCD4CA880092898801911104019A8918F5
:10234000009161494843009901F094FD00900020FC
:1023500020700098A060009801F09FFC0546294677
:102360005A4801F050FC0A2101F08BFC01F09CFC62
:10237000E060284601F0ACFC554A564B01F080FD68
:1023800001F0BAFC20617CBD10B549484168AA291A
:102390000CD07C205049081884B25049204601F0E6
:1023A00069FD081980B201F071FD10BDC068000A16
:1023B000F0E710B54A490120C863C86B0028FCD17A
:1023C00001208007C16947480268914201D200227A
:1023D000026019238A1ADB019A4212D3016001F0CC
:1023E0005BFD414A1188884201D9411A00E0091A6F
:1023F00089B2182905D31080012001F053FD01F0A6
:1024000057FD10BD08B52A4989684843374901F08E
:1024100031FD009008BD08B52549C9684843800AC8
:10242000009008BD08B522494968002903D0FFF78C
:10243000E9FF009008BD01F041FDFAE708B51C492D
:102440004968002903D0FFF7E6FF009008BD01F0BE
:102450003BFDFAE710B53F2001F03CFD002805D117
:1024600023488078002803D0032801D0002010BD25
:10247000012010BD08B51F4901204A695206D20F3C
:1024800013D04A699206D20F0FD000220A6100923F
:10249000FF225F32009B5B1C00939342FAD3496991
:1024A000C907C90F02D001F01BFD002008BD0000C4
:1024B000208000202000005000100000000200409A
:1024C00020300050001600500024F400002474490D
:1024D0007B14AE47E17A443F011200007102000014
:1024E000C00000407C0408007804080040420F004F
:1024F000A00408000010005001460020002901D06F
:10250000022900D100487047E42D002030B59C4AD4
:102510009C49D005048880231C4304809A4C65891B
:102520002D0701D4521EFAD2984C01222260984CF9
:102530000A882280974A498811800188994301803E
:1025400030BD0020704770477047704700207047CB
:1025500001218907086B0722104308637047704701
:1025600010B58E498C4808608D494C2008808C4BF2
:102570008C4A203B1A828D498B4848808D488C4973
:1025800001808B49193141802221418181218900BB
:1025900001828949418289490183874911314183F7
:1025A00084498748203188804121864809018180FB
:1025B0008549C180844C1034C48101824182891CC8
:1025C0008182611FC182FF21463101837F4941839E
:1025D0007F49592008807E487E4C20300480432467
:1025E00044807D4C4C82D5218180FF21D3310181F3
:1025F0007A4941817A4981817B497A4808806848D3
:102600007A4960384180C18810242143C1807149D2
:102610000A390181624C7649403C61805A82082126
:1026200041815C486A4900884039088258487149AC
:102630000088088010BD704700B58BB06E4A4262BA
:102640006E4A82626E4A42616E4AC2626E4A02609D
:102650006E4A02626E4A42606E4AC2614F4A4E48FA
:10266000002110604D484038026B03129A43026308
:10267000426B1F231B049A4303231B04D21842639B
:1026800065480268C3129A430260026803139A43C2
:10269000026068464154491CC9B22829FAD3014650
:1026A00028225E4801F022FCFFF75AFF01F0F4FBFC
:1026B0005B490880002001F0F5FB01F0F9FB0BB04D
:1026C00000BD10B5354A0F21334809021060334868
:1026D0004038426B1F231B049A4303231B04D21868
:1026E000426300060268D208D2000260052000079B
:1026F000028992089200521C0281028908231A431F
:102700000281028A0A4302821F480189490949015C
:10271000018101890F22920291434214891801819B
:10272000294920314182262181820721C1822D49F8
:10273000DC3901830121418341881E2291431431F8
:10274000418038490968002907D14189890504D5A4
:1027500001887822914308310180FFF701FF324858
:10276000006B0078002808D0304800880C49603998
:10277000C880002001F048FB10BD0120FAE70000EE
:10278000A0860100087F0400200000500080004067
:10279000560208004A0308004C0554078000004018
:1027A000602C00507F7F0000AC2900000022005008
:1027B00009090000002400502204000030D000006D
:1027C000EE110000002500502E0200004420000001
:1027D000402800500D95000002420000E4DC00009B
:1027E0001092000053780000002A00508B10000067
:1027F0009DD5000000260050E30E0020E70E0020CB
:10280000ED0E0020F10E0020E90E0020FF0E00204A
:10281000EB0E0020D70F002000020040200008002F
:1028200078040800248000202002002052040800C0
:10283000F8B5884A10888007C00FFBD0012386496D
:10284000D80308608548802700214180578001888F
:102850008904FCD54188C380C9B2082906D0978075
:102860001488A407E40FFBD00829EDD17C490C683B
:10287000002C20D04C68257806883605FCD445808D
:1028800005892D07FCD445880D68641C6D1E0D60FC
:102890004C60002DEED1978001E04288C380028811
:1028A0009204D20FF9D1C380002048608A68002AC0
:1028B00001D08860904701206A49C00308606649DA
:1028C00080390860F8BD05200007818803221202C4
:1028D0009143818081880122D202114381805F4827
:1028E00001884908490001800188FF228132914313
:1028F0000180018840221143018001880422914314
:102900000180018802229143018001885203114312
:1029100001800189890889000181018852001143E1
:10292000018001880122114301804D490020086186
:10293000C860486008604C4801680902090A0160E3
:10294000704770B5434A11888907C90FFBD001232E
:10295000414CD90321604149802500244C80558099
:102960000C88A404FCD54C88CB80E4B2082C06D09B
:1029700095801688B607F60FFBD0082CEDD10C8891
:102980002405E40FFBD1002801D0062000E0072039
:10299000488008888004FCD54888CB8008890007D7
:1029A000C00FFBD1958070BD00B50120FFF7C9FFB6
:1029B00001202C49C003086027498039086000BD08
:1029C00000B50020FFF7BDFF012000BD244B5A6178
:1029D000D960186101202349C00308601E4980396D
:1029E0000860704710B51E4B9A601960586000204F
:1029F000FFF7A7FFFFF71CFFFFF7D6FF10BD10B5CD
:102A000000F001F810BD30B40124154813490DE061
:102A10004A88CC80D2B20B891B07FCD403691A7098
:102A20005B1CC2680361521EC26005D00A88920412
:102A3000D20FEDD130BC704700220121064BC903F3
:102A40000261196041690029F4D0426130BC002064
:102A5000084700000030005080E100E00012005004
:102A60000080002080E200E00CE400E070B5164633
:102A70000D46104601F02EFA002869D0340A30467F
:102A800001F028FA012812D0A87A1E2811D0294670
:102A90000A310E2845D019DC801E030001F02CFA03
:102AA0000B255829582D58315839583D58000220C7
:102AB00070BD3146274801F025FA0021204601F07B
:102AC00027FA0221304601F029FA41E018283CD0CB
:102AD00006DC102819D012282BD0162838D130E067
:102AE000522822D0D22833D127E0204601F01CFA08
:102AF0002EE0204601F01EFA2AE0204601F020FADE
:102B000026E0204601F022FA22E0204601F024FAD5
:102B10001EE0204601F026FA1AE0204601F028FACD
:102B200016E0204601F02AFA12E0204601F02CFAC5
:102B30000EE0204601F02EFA0AE0204601F030FABD
:102B400006E0204601F032FA02E0204601F034FAB5
:102B5000002070BD01280000F3B581B001980C463B
:102B60000102CA1D0E310223344801F02BFA047011
:102B700001990546022732488E00002C06D0042C0D
:102B800016D0062C10D0072C3FD108E08159052221
:102B90004968897C114069708059C77335E00846DF
:102BA00001F016FA687030E080590F21C1732CE0F3
:102BB000044680594068417C012902D1007E0128E9
:102BC0000FD0019801F00AFA01210028A0590BD07A
:102BD0004268D07D00281CD001281AD004280DD0CE
:102BE0000FE0002068700DE04068C27D022A01D02D
:102BF000042A06D1007C02280BD102E0107C0228B6
:102C000007D06F70A1590320C873284601F0ECF972
:102C1000FEBD6970F6E701460A780120042A01D951
:102C2000002070474A78002A01D0012AF8D10A7999
:102C3000082AF5D849790829F2D87047021C000003
:102C400028050800FFB589B00D46002069460590AB
:102C500008720B98000A009001F0C0F907460B9823
:102C600001F038F900287DD00B982978000A8400FB
:102C7000764E01295ED0042904D0062943D00729C5
:102C800063D120E0687800281BD0305910224068BA
:102C9000A91C01F02BF9002F06D03159C87B03285D
:102CA00007D0042808D050E03059C07B032803D057
:102CB0004BE00B20C87348E00521009801F09AF919
:102CC00043E00120B6E03059C07B0E283DD100988A
:102CD00001F07EF9002103E02A18401C9170C0B277
:102CE0001028F9D3688A69460883294606A808226D
:102CF0001431023001F0FAF806ABAA1C39460098EC
:102D000001F07EF921E03059C07B0F281DD1AA1CAB
:102D10000A21009801F07AF9002F04D03946009872
:102D200001F07AF911E000231A463946009801F0C3
:102D300079F90AE0012F08D10B9801F0CBF80128AE
:102D40001CD0002801D0022005906846007A002897
:102D500011D002AA0521009801F058F96846027ABC
:102D6000602000E007E00243684602720123394612
:102D7000009801F057F905980DB0F0BD3059C07BAF
:102D80000228E2D16878002851D002210B9801F086
:102D9000C5F8305907224068A91C173001F0A6F881
:102DA000E878002804D130594068407C01283AD0A6
:102DB000009801F03DF9002837D0297A009801F0F9
:102DC0003DF9002833D0009801F03EF90121009828
:102DD00001F040F900282CD030594068417E00298C
:102DE0002BD0042929D0C17E027D1140C1763059F3
:102DF0004068017F427D114001776846007A0028D3
:102E0000A7D13059022142680098173201F0FEF82C
:102E1000305941684031897B002913D00421009842
:102E2000FFF79AFE91E7022004E0062002E0082066
:102E300000E00320694608728BE70021C176305913
:102E40004068D9E70B21C1737FE70000280508001F
:102E5000F8B50D46064681002B48EA884458521CB6
:102E600020686B89018F294F514300910146403101
:102E70004A89C989511A8AB2991A89B2B94214D2B7
:102E80009A4212D0294601F0EBF82D89204900988A
:102E900000F0F0FF2818801C4034E0823002401C13
:102EA00080B2042101F03AF8F8BD2821304601F043
:102EB000DDF8F8BDF8B50546870013480C46C05943
:102EC000C9880068114E024640325389D2899A1A45
:102ED00092B28B1A9BB2B34211D20B4E8A420ED0E1
:102EE00001F0CAF8F0590522611C5F3000F0FEFFC6
:102EF0002802401C80B2052101F010F8F8BD2821FD
:102F0000284601F0B3F8F8BD4C030800FF7F00002D
:102F10001027000070B50446007800250D2801D068
:102F20000A2200E002225A494B7A002B06D00D28D3
:102F300004D0637C032B01D0432551E0097A8A43F6
:102F400039D10D2809D00E2802D00F2803D134E042
:102F5000607C032804D3402542E0607C0328FAD833
:102F6000A07C0428F7D20A2908D0607C012822D04E
:102F7000022820D06078032809D811E001F082F8F7
:102F8000012806D16078032803D0002801D0492504
:102F900026E001F077F8002802D160780228F6D800
:102FA0003020035D22462046E17C3132143000F0AF
:102FB00019F8054614E0422512E001F063F80128F3
:102FC00007D16078052804D1A01D01F061F8002820
:102FD000DDD001F057F8002802D160780228D6D859
:102FE000284670BDFFB5002086B001216A461170E9
:102FF000044605910021002C06D0089D099A1F2344
:103000009A4234D9402032E01C23069D079AF7E704
:103010006B185E78330000F06FFF1D261010101043
:1030200010101010102626262626262626262626AE
:1030300026261010101010102600059B03E06F4686
:10304000FF5CB74204D05B1E5BB2002BF7DA03E0F3
:10305000002B01DB4A2006E0059B6F46FE54059BD2
:103060005B1CDBB205936B5C491C5918C9B29142D9
:1030700001D20028CCD0914202D04A200AB0F0BD43
:10308000641CE4B2022CF9D20028B3D0F6E70000A9
:1030900098050800F8B50C469449164609680125BC
:1030A000002702228B1C312873D012DC0C2874D02C
:1030B00008DC012821D0022840D007284FD00B2857
:1030C00069D156E010287FD0112876D01228F7D188
:1030D0008DE00123412871D008DC32286FD03528DB
:1030E0006ED036286DD04028EAD1B1E0422869D0B0
:1030F000432868D04428E3D1CFE006227C497D48AC
:1031000000F0CCFF002808D006227A49304600F0B3
:10311000EDFE062020700020F8BD74480168087894
:10312000C00738D02078062801D22770C2E00622D6
:103130009831304600F0DAFE06200EE00A786B483F
:10314000920728D522783E2AEFD305464A7E5A3187
:10315000304600F0CBFE2868407E2070A7E008785B
:10316000400718D520780228DFD3887C3070587C3F
:1031700078E00A785D4812070DD52278202AD4D34A
:103180000546CA7D1A31304600F0B0FE2868C07D81
:10319000E3E735E001E077E016E00A785348D2062D
:1031A00072D52278202AC0D305460A7E983130464F
:1031B00000F09CFE2868007ECFE70EE054E028E097
:1031C00034E03BE058E060E00878800670D5207875
:1031D0000428AAD30422091D23E00878400667D5F5
:1031E0002078002866D0087D08E022705FE008782B
:1031F00000065DD5207800285CD0487D3070F4E76B
:103200000888C00554D5207804288ED304220C31B8
:1032100007E0088880054BD52078042885D3042250
:103220000831304600F062FE042096E70888400529
:103230003ED5207800283DD0887D36E008880005FE
:1032400036D5207802288FD3087C3070487C09E07E
:103250000888C0042CD52078022885D38231087FC5
:103260003070487F7070C0E70888800420D52078CF
:1032700000281FD0A03117E00888400418D5207816
:10328000002817D0A1310FE012E0088800040FD504
:10329000207800280ED0A23106E00868C00307D5C8
:1032A0002078002806D0A3310878307023700025DC
:1032B0002846F8BD0425FBE770B50F480F49C40543
:1032C000228880252A4322800D4A53891B0701D476
:1032D000401EFAD20B4A012010600622054800F079
:1032E00005FE2088A843208070BD0000C0060800AD
:1032F000383E030034800020A0860100D47F040003
:103300002000005000800040FEB5524D524C6869CC
:103310000090002620793146022800D100914F4FBD
:103320004F483A68002A0FD10278002A0DD04D4A42
:103330000123D363D36B002BFCD101229207D26906
:103340001923DB019A420ED3017000F0ADFE002874
:103350007DD0E0780126002879D005200007808AFA
:10336000C00701D0042672E000F05AFD00286ED19B
:103370003D4800683F2804D12079002801D1286900
:103380000090A178684600F095FE00285FD0A178F3
:10339000684600F057FD002859D000F091FE002843
:1033A00055D03868AA281BD0972007210125AD07E2
:1033B000EA6B920A9202521CEA63EA6B2B4B800280
:1033C0001A400243EA63E86BC002C00A4905084399
:1033D000E8633868042600280DD0AA2813D021E01D
:1033E0002348FFF71FF8009A0321521E0092A3788A
:1033F00093422CD8DAE700986421C00200F03AFD2D
:103400000BE001210CE0009800F047FC1949096825
:1034100000F0BCFB00F048FC019021790029F0D1BC
:1034200000F054FE1448C06A8047286B0004C00FA7
:10343000FBD000F051FE00F055FE10480168C905B0
:10344000FCD5052000070189802291430181304687
:10345000FEBD0000A0020020C60608002480002057
:1034600018800020C000004060010020FF03E0FF42
:1034700001120000308000201C07080000020040FC
:1034800038B50020009053490820088005242407FF
:10349000218830200143218021880322114321808B
:1034A00002E000BF00BF00BFA18A0906F9D561890B
:1034B00089088900618148494A88520852004A8037
:1034C0002188814321802088800880002080A08A74
:1034D000400701D5FEF78BFE20898021084320811B
:1034E000208A042188432082A08A8007FCD53B489B
:1034F00041050268D20202D40A69520702D4009A36
:10350000002AF6D038BD10B50124A407A06BFEF741
:1035100095FF334900F0AEFC27221201511A00D169
:103520000121304A50601160206B08218843084314
:10353000206310BD10B500F0DBFD05200007418AB7
:103540008022914341822348018949084900018131
:10355000254800683F2801D100F0D0FD01208007F8
:10356000816904221143816100F0CEFD00F0D2FD9B
:1035700000F0D6FD1D480068AA2802D11420FEF7ED
:10358000C1FE10BD10B500F0D1FD10BD10B5012079
:103590008007008A000701D500F0CEFD10BD70B590
:1035A0001348008885060D48AD0E44680E48C030AB
:1035B000006B0078002802D1284600F0C3FD0D48BA
:1035C0000089C00504D5200602D5284600F0C0FDBC
:1035D00070BD000000330050200000500002004089
:1035E00071020000400000406001002024800020A3
:1035F00000200050002C005010B51221244800F08B
:10360000ADFD24491C2000F0AFFD00211C2000F07E
:1036100085FC10BD30B503460120002103241A4665
:10362000CA40D20704D04D006D1C2246AA40104368
:10363000491CC9B20929F2D330BD02460020122923
:1036400001D98D207047062A06D0072A07D0082AFC
:10365000F8D10729F5D170470829F2D1704706291A
:10366000EFD3704770B50A4C0546218802231C220F
:10367000094800F0A7FC058000F0B6FCE0880021B6
:1036800000F078FD01211C2000F048FC70BD000016
:103690003A800020102F002004700000FEB53B4E41
:1036A0001C2070801D46174634460888FFF7B2FF7D
:1036B00002903748334601900833132202A900973D
:1036C000A01D00F05DFD040008D1F088002100F08D
:1036D00051FD044601211C2000F020FC01231C2286
:1036E00029462C4800F06EFC047000F07DFC0020A0
:1036F000FEBD70B50C4625490B802078082814D8EB
:10370000CA880831415C51188DB2822D0BD0617886
:10371000FFF793FF010009D16D1C6178A8B2A21CCC
:1037200000F034FD08E0822100E08121194B1748A8
:103730005B1CDA1C00F05EF9002070BD70B51D4600
:103740000C46088800F028FD104AFF2810711580EB
:1037500009D0A178D08800F00DFD02211C2000F0D6
:10376000DDFB002070BD0B4B89219B1C9A1C074878
:1037700000F040F9F5E710B5044A180A12799042B2
:1037800002D10888FFF76EFF002010BD3A800020AC
:10379000FC2D00200170000010B50C21254800F020
:1037A000DDFC2549102000F0DFFC0021102000F096
:1037B000B5FB10BD70B506461E480D46144601887F
:1037C000042310221D4800F0FDFB04808670C570A4
:1037D00000F00AFC70BD7CB5164C0646E08800215E
:1037E00000F0C8FC2089002802D0002100F0C2FCB3
:1037F0006089002802D0002100F0BCFC0F4821881D
:1038000004231022401E00F0DDFB0546E0886A46D6
:10381000801C80B201A900F0C5FC2E8000980078C1
:10382000A870284600F0E0FB0121102000F076FB94
:103830007CBD00004E800020E42F002002400000EC
:10384000FFB5674C83B010206080664816460F466F
:1038500000230092019003221946A01D00F090FC65
:103860000546E088002100F085FC3878C0071CD0B0
:103870005D48019000232046032219460096083037
:1038800000F07EFC2089002100F074FC5748019074
:10389000002320460322194600960A3000F070FCEF
:1038A00005466089002100F065FC002D03D101214F
:1038B000102000F033FB012310224D48069900F040
:1038C00081FB057000F090FB002007B0F0BD70B5E3
:1038D000434C0D462380088800F05EFC2071FF28D1
:1038E00023D0A978E08800F045FCE088EA1C801C21
:1038F00080B2012100F04AFC2089002802D0A9787A
:1039000000F038FC6089002809D0801C80B22A1D94
:10391000012100F03BFCA978608900F02BFC02211A
:10392000102000F0FBFA002070BD01239B035A1DFC
:1039300089212B4800F05EF8F5E770B5284D0C465C
:1039400029798022180A88422AD1E9882088891C8E
:10395000884201D1012604E02989891C88421FD1AF
:103960000226217A02290AD822460832012100F0D3
:103970000DFCE079002801D0022E03D00022012E98
:103980000AD00DE0287900F013FC237A0246314674
:103990001846FFF70FFF03E02188287900F00EFC9E
:1039A000002070BD1CB50E480C460279190A9142E0
:1039B00014D1A17813290ED016290CD0C0886A46DC
:1039C000801C80B201A900F0EDFB009822880078ED
:1039D0000121FFF7EFFE2088FFF7FDFE00201CBD50
:1039E0004E800020602F0020842F0020A82F002070
:1039F00004400000F8B514460F461E4605464288AE
:103A000001880623204600F0DDFA0446287900F0FC
:103A1000CFFB208027716680204600F0E5FAF8BDD4
:103A200070B51446428800790D4601020C3104231A
:103A3000274800F0C7FA002D01D0132100E0122121
:103A40000170448000F0D0FA70BD0A880270120A3A
:103A500042708A788270CA78C2700A7902714A7993
:103A60004271897981710720704742780378120288
:103A70001A430A8082788A70C278CA7002790A7101
:103A800042794A71807988710720704710B5FFF735
:103A9000B3FDFFF781FE10BD70B5064615460C4616
:103AA000102000F017FA022805D1E2B210232946AF
:103AB000304600F089FB1C2000F00CFA022805D1EA
:103AC000E2B21C232946304600F07EFB70BD0000A8
:103AD0000D30000070B5EFF31085012080F31088E1
:103AE000264800F077FB0446002D1DD0012080F30E
:103AF0001088002C23D020462038C08B20498842D3
:103B00001DD16189208900F06BFB05000ED0214694
:103B10001031A38962892089A847002806D001288E
:103B20000DD002280BD105E00020E0E7204600F090
:103B30005DFB04E0114821460C3000F05DFBEFF323
:103B40001084012080F310880C480068002802D1FE
:103B5000012000F057FB002C03D0012080F31088D7
:103B600070BD0020FAE710B5BC21064800F050FBFC
:103B70000549012000F052FB10BD0000A805080017
:103B8000388300000406080075240020024670B542
:103B90004A40D30FDB0740002DD04A002AD0010E47
:103BA000140E091900021202400A520A8418E50193
:103BB00004465443000A120A2E045043A419421921
:103BC000200CC543AA18120C01257F39521CAD03E5
:103BD00052191204240400D0521C104301D4400096
:103BE000491EC2B20C06C0092018401C4008802A99
:103BF00002D003E0002070BD40084000002900DA38
:103C00000020184370BD70B502464A40D50F4000F1
:103C10004A00ED0740085208002814D0002A12D0AC
:103C2000C40DD30D41020120C0055202490A520AB7
:103C3000E41A091812187D34914201D3641C00E083
:103C40004900002C01DA002070BD0023914201D30D
:103C5000891A0343400849000028F7D100290AD0F7
:103C6000914202D10121C90705E0914201D201210F
:103C700001E00121C943E005C018401900F058F8DF
:103C800070BD420005D04200120E52428A4201DB52
:103C900000207047C9050818704710B50022962308
:103CA000114600F04DF810BD410040020122400ACB
:103CB000D205090E80187F2901DA00207047962965
:103CC00003DC9622511AC8407047963988407047E5
:103CD000C20FD207400040080BD0C10D0723DB0103
:103CE000C91840020905400A1143C20840071143A0
:103CF0007047002001467047CB0FDB07490010B525
:103D0000490802460A4307D00A0D07240903E401C3
:103D1000090B121B002A01DC002010BDC900440F52
:103D20000C43C100E018D205801800F001F810BD66
:103D3000002904DA401C490001D1400840007047C6
:103D400070B40024050C05D11024000402D1002910
:103D500022D01124050E01D108340002050F01D133
:103D6000241D0001850F01D1A41C8000002801DB67
:103D7000641C4000002908D020252E1B0D46F5406C
:103D8000A14000D00121294308431B1B0106DB1D74
:103D9000000A002B02DA002070BC7047DB051818FF
:103DA00080180029F8DA401C4900F5D170BC4008A1
:103DB00040007047064C0125064E05E02046E368AA
:103DC00007C82B4398471034B442F7D3FDF76CFE75
:103DD000343000207430002003B40148019001BD4C
:103DE000551B020003B40148019001BD0F3B0300C5
:103DF00003B40148019001BDCF2B030003B4014877
:103E0000019001BDCB2C030003B40148019001BD1A
:103E10000990020003B40148019001BD1F21020076
:103E200003B40148019001BDC12D030003B4014852
:103E3000019001BD0921030003B40148019001BDB7
:103E4000C92D030003B40148019001BD2B69020094
:103E500003B40148019001BDEB31030003B40148F4
:103E6000019001BD3D32030003B40148019001BD42
:103E7000D721030003B40148019001BDA73A030014
:103E800003B40148019001BD913B030003B4014814
:103E9000019001BD2F2F030003B40148019001BD23
:103EA000938F020003B40148019001BDCD8C020044
:103EB00003B40148019001BD418F020003B40148E1
:103EC000019001BD2768020003B40148019001BDC3
:103ED0003968020003B40148019001BDB326030014
:103EE00003B40148019001BDB780020003B401484A
:103EF000019001BD213B030003B40148019001BDC5
:103F0000FD3D030003B40148019001BDA528030055
:103F100003B40148019001BDD5AF020003B40148CC
:103F2000019001BD3126030003B40148019001BD99
:103F3000A1A5020003B40148019001BDE3A5020060
:103F400003B40148019001BD87A8020003B40148F1
:103F5000019001BDA7A9020003B40148019001BD71
:103F600093AA020003B40148019001BD95AB020081
:103F700003B40148019001BDF9AB020003B401484C
:103F8000019001BD69AC020003B40148019001BD7C
:103F900017AD020003B40148019001BD77AD0200E6
:103FA00003B40148019001BDF1AD020003B4014822
:103FB000019001BD85AE020003B40148019001BD2E
:103FC00011AF020003B40148019001BDB123030009
:103FD00003B40148019001BD49E5020003B4014862
:103FE000019001BDF9E3020003B40148019001BD55
:103FF000E123030003B40148019001BD4BCD020051
:1040000003B40148019001BD99D1020003B40148F5
:10401000019001BDABD0020003B40148019001BD85
:1040200069D0020003B40148019001BD77CF0200BE
:1040300003B40148019001BD01CC020003B4014862
:10404000019001BD29CC020003B40148019001BDDB
:1040500015D2020003B40148019001BD8DD20200C7
:1040600003B40148019001BD3350020003B401487C
:10407000019001BD5548020003B40148019001BD03
:104080001F50020003B40148019001BD7F0C0300E2
:1040900003B40148019001BDAB0C030003B4014817
:1040A000019001BD773B030003B40148019001BDBD
:1040B0007920030003B40148019001BD21290300C8
:1040C00003B40148019001BDD990020003B4014836
:1040D000019001BDC768020003B40148019001BD11
:1040E0000D2C030003B40148019001BDB9C70200C3
:1040F00003B40148019001BD652C030003B40148DD
:10410000019001BDF793020003B40148019001BD85
:10411000DB2E030003B40148019001BD231D020002
:1041200003B40148019001BDC32C030003B401484E
:10413000019001BD3B66020003B40148019001BD3E
:104140002B66020003B40148019001BD038D0200FB
:1041500003B40148019001BDCF8F020003B40148B0
:10416000019001BD533B030003B40148019001BD20
:104170008725030003B40148019001BD7B9C020028
:1041800003B40148019001BD459F020003B40148FA
:10419000019001BD6D9B020003B40148019001BD77
:1041A000B7E3020003B40148019001BDA59B0200E2
:1041B00003B40148019001BDE3E3020003B40148E8
:1041C000019001BDF3AF020003B40148019001BDAD
:1041D00095E3020003B40148019001BDBF22020033
:1041E00003B40148019001BDEB26030003B401486C
:1041F000019001BD3524030003B40148019001BDC5
:104200002F22020003B40148019001BDDD2003000C
:1042100003B40148019001BD533B030003B40148BE
:10422000019001BD9D20030003B40148019001BD30
:104230008D3D0300FFB581B00C4605460A461F467A
:10424000012000210A9EFFF7EFFF2A01FFF7ECFF94
:104250000C4B1A685B6810401940084300D100BE3F
:10426000002E2146284602D000F00EF801E000F0B2
:104270002DF83B4621462846039A00F049F805B040
:10428000F0BD00002090002070B504460D460A469F
:1042900001200021FFF7C8FF2201FFF7C5FF094AEF
:1042A0001368526818401140084300D100BE032C27
:1042B00000D104240449600140180121A940418033
:1042C00070BD0000209000200030005070B5044602
:1042D0000D460A4601200021FFF7A6FF2201FFF745
:1042E000A3FF094A1368526818401140084300D1DF
:1042F00000BE032C00D104240449600140180121B0
:10430000A940818070BD0000209000200030005046
:10431000F8B5164604460D460A461F460120002100
:10432000FFF782FF2201FFF77FFF094B1A685B68E6
:1043300010401940084300D100BE032C00D10424D2
:10434000044960014018690008183E43C680F8BD62
:104350002090002000300050FEB50020214E034682
:1043600028220021424392198C00491C13510A292A
:10437000FADB401C0428F3DBFDF7B8FE19480022E5
:104380000838026042601546002417486900475A01
:104390000120A04080B207421CD028206843801929
:1043A000A1004058411C19D0002810D0C117224646
:1043B000FFF73AFF2A01FFF737FF0A4B083B1A685D
:1043C0005B681043074A1943083A10605160641C47
:1043D0000A2CDDDB6D1C042DD6DBFEBD009501949F
:1043E00000BEE3E728900020F42D002002E008C87A
:1043F000121F08C1002AFAD170477047002001E05F
:1044000001C1121F002AFBD1704700008105002066
:104410000D140020F9140020B7150020E515002028
:10442000F117002055180020B51800200101000ADE
:1044300004280A040203AA0055032A00A001FFFF72
:104440002C0100006D13002085130020491300206B
:1044500061130020FF003F00FF03FF01002801005F
:1044600002000200E02E00200328010005000500E4
:10447000E22E0020292A01001200000000000000A6
:104480000328010005000500E72E0020242A010072
:1044900012000000000000000328010005000500D4
:1044A000EC2E0020252A0100120000000000000070
:1044B0000328010005000500F12E0020272A010035
:1044C00012000000000000000328010005000500A4
:1044D000F62E0020262A0100120000000000000035
:1044E0000328010005000500FB2E0020282A0100FA
:1044F0001200000000000000032801000500050074
:10450000002F0020232A0100080000000000000006
:104510000328010005000500052F00202A2A0100BC
:104520001200000000000000032801000500050043
:104530000A2F0020502A01000700000000000000A0
:104540000A18020000292A020100242A020200257A
:104550002A020300272A020400262A020500282A2C
:10456000020600232A0207002A2A020800502A0015
:10457000402F0020582F00204C8000200300010015
:10458000007000003D2000200270000093200020F9
:1045900003700000DD2000200338000017210020F8
:1045A000202F002001000000282F00200200000022
:1045B0000000000000000000382F00200100000073
:1045C0000028010002000200CC2F00200328010077
:1045D00005000500CE2F0020062A0900010000007A
:1045E000000000000028010002000200D42F00207B
:1045F0000328010005000500D62F0020062A080028
:10460000010000000000000000280100020002007C
:10461000DC2F00200328010005000500DE2F00200C
:10462000072A0100010000000000000003180A0032
:1046300000062A000218040000062A0004180200DE
:1046400000072A00143000202C3000205A8000205F
:104650000300010003400000E121002000400000B1
:104660006F2200200E300000DB2200200338000003
:1046700045230020F42F002001000000FC2F002023
:104680000100000004300020010000000C30002078
:10469000010000007430002000800020180000009D
:1046A0008C2D00208C300020188000204400000059
:1046B0009C2D00208C30002020900020A8000000BD
:1046C0009C2D002068070800F41108000C1E000053
:1046D0009C2D0020000000000000000000000000F1
:1046E0000000000000000000000000000C47000077
:1046F000008000201C000000E400000028470000AB
:104700001C800020740700000001000000E1F50596
:104710000000000000000000000000000000000099
:08472000000000000000000091
:04000005000000A156
:00000001FF
